{
	"blockchain/contracts/RouteRegistry.sol": {
		"RouteRegistry": {
			"abi": [
				{
					"anonymous": false,
					"inputs": [
						{
							"indexed": true,
							"internalType": "string",
							"name": "routeId",
							"type": "string"
						},
						{
							"indexed": false,
							"internalType": "bytes32",
							"name": "finalDataHash",
							"type": "bytes32"
						},
						{
							"indexed": false,
							"internalType": "uint256",
							"name": "completedDeliveries",
							"type": "uint256"
						},
						{
							"indexed": false,
							"internalType": "uint256",
							"name": "timestamp",
							"type": "uint256"
						}
					],
					"name": "RouteCompleted",
					"type": "event"
				},
				{
					"anonymous": false,
					"inputs": [
						{
							"indexed": true,
							"internalType": "string",
							"name": "routeId",
							"type": "string"
						},
						{
							"indexed": false,
							"internalType": "bytes32",
							"name": "dataHash",
							"type": "bytes32"
						},
						{
							"indexed": false,
							"internalType": "uint256",
							"name": "timestamp",
							"type": "uint256"
						},
						{
							"indexed": false,
							"internalType": "address",
							"name": "driver",
							"type": "address"
						}
					],
					"name": "RouteCreated",
					"type": "event"
				},
				{
					"anonymous": false,
					"inputs": [
						{
							"indexed": true,
							"internalType": "string",
							"name": "routeId",
							"type": "string"
						},
						{
							"indexed": false,
							"internalType": "bytes32",
							"name": "newDataHash",
							"type": "bytes32"
						},
						{
							"indexed": false,
							"internalType": "string",
							"name": "newStatus",
							"type": "string"
						},
						{
							"indexed": false,
							"internalType": "uint256",
							"name": "timestamp",
							"type": "uint256"
						}
					],
					"name": "RouteUpdated",
					"type": "event"
				},
				{
					"inputs": [
						{
							"internalType": "string",
							"name": "_routeId",
							"type": "string"
						},
						{
							"internalType": "bytes32",
							"name": "_dataHash",
							"type": "bytes32"
						},
						{
							"internalType": "string",
							"name": "_status",
							"type": "string"
						},
						{
							"internalType": "uint256",
							"name": "_totalDistance",
							"type": "uint256"
						},
						{
							"internalType": "uint256",
							"name": "_deliveryCount",
							"type": "uint256"
						}
					],
					"name": "createRoute",
					"outputs": [],
					"stateMutability": "nonpayable",
					"type": "function"
				},
				{
					"inputs": [
						{
							"internalType": "string",
							"name": "_routeId",
							"type": "string"
						}
					],
					"name": "getRoute",
					"outputs": [
						{
							"internalType": "string",
							"name": "routeId",
							"type": "string"
						},
						{
							"internalType": "bytes32",
							"name": "dataHash",
							"type": "bytes32"
						},
						{
							"internalType": "uint256",
							"name": "timestamp",
							"type": "uint256"
						},
						{
							"internalType": "address",
							"name": "driver",
							"type": "address"
						},
						{
							"internalType": "string",
							"name": "status",
							"type": "string"
						},
						{
							"internalType": "uint256",
							"name": "totalDistance",
							"type": "uint256"
						},
						{
							"internalType": "uint256",
							"name": "deliveryCount",
							"type": "uint256"
						},
						{
							"internalType": "uint256",
							"name": "completedDeliveries",
							"type": "uint256"
						}
					],
					"stateMutability": "view",
					"type": "function"
				},
				{
					"inputs": [],
					"name": "getRouteCount",
					"outputs": [
						{
							"internalType": "uint256",
							"name": "",
							"type": "uint256"
						}
					],
					"stateMutability": "view",
					"type": "function"
				},
				{
					"inputs": [
						{
							"internalType": "uint256",
							"name": "_index",
							"type": "uint256"
						}
					],
					"name": "getRouteIdByIndex",
					"outputs": [
						{
							"internalType": "string",
							"name": "",
							"type": "string"
						}
					],
					"stateMutability": "view",
					"type": "function"
				},
				{
					"inputs": [
						{
							"internalType": "uint256",
							"name": "",
							"type": "uint256"
						}
					],
					"name": "routeIds",
					"outputs": [
						{
							"internalType": "string",
							"name": "",
							"type": "string"
						}
					],
					"stateMutability": "view",
					"type": "function"
				},
				{
					"inputs": [
						{
							"internalType": "string",
							"name": "",
							"type": "string"
						}
					],
					"name": "routes",
					"outputs": [
						{
							"internalType": "string",
							"name": "routeId",
							"type": "string"
						},
						{
							"internalType": "bytes32",
							"name": "dataHash",
							"type": "bytes32"
						},
						{
							"internalType": "uint256",
							"name": "timestamp",
							"type": "uint256"
						},
						{
							"internalType": "address",
							"name": "driver",
							"type": "address"
						},
						{
							"internalType": "string",
							"name": "status",
							"type": "string"
						},
						{
							"internalType": "uint256",
							"name": "totalDistance",
							"type": "uint256"
						},
						{
							"internalType": "uint256",
							"name": "deliveryCount",
							"type": "uint256"
						},
						{
							"internalType": "uint256",
							"name": "completedDeliveries",
							"type": "uint256"
						},
						{
							"internalType": "bool",
							"name": "exists",
							"type": "bool"
						}
					],
					"stateMutability": "view",
					"type": "function"
				},
				{
					"inputs": [
						{
							"internalType": "string",
							"name": "_routeId",
							"type": "string"
						},
						{
							"internalType": "bytes32",
							"name": "_newDataHash",
							"type": "bytes32"
						},
						{
							"internalType": "string",
							"name": "_newStatus",
							"type": "string"
						},
						{
							"internalType": "uint256",
							"name": "_completedDeliveries",
							"type": "uint256"
						}
					],
					"name": "updateRoute",
					"outputs": [],
					"stateMutability": "nonpayable",
					"type": "function"
				},
				{
					"inputs": [
						{
							"internalType": "string",
							"name": "_routeId",
							"type": "string"
						},
						{
							"internalType": "bytes32",
							"name": "_dataHash",
							"type": "bytes32"
						}
					],
					"name": "verifyRoute",
					"outputs": [
						{
							"internalType": "bool",
							"name": "",
							"type": "bool"
						}
					],
					"stateMutability": "view",
					"type": "function"
				}
			],
			"devdoc": {
				"kind": "dev",
				"methods": {
					"createRoute(string,bytes32,string,uint256,uint256)": {
						"params": {
							"_dataHash": "SHA-256 hash of the route data",
							"_deliveryCount": "Number of deliveries in the route",
							"_routeId": "Unique route identifier",
							"_status": "Initial status (typically \"optimized\")",
							"_totalDistance": "Total route distance in meters"
						}
					},
					"getRoute(string)": {
						"params": {
							"_routeId": "Route identifier"
						},
						"returns": {
							"completedDeliveries": "Number of completed deliveries",
							"dataHash": "The data hash",
							"deliveryCount": "Number of deliveries",
							"driver": "The driver address",
							"routeId": "The route ID",
							"status": "The route status",
							"timestamp": "The creation timestamp",
							"totalDistance": "Total distance in meters"
						}
					},
					"getRouteCount()": {
						"returns": {
							"_0": "uint256 Total count of registered routes"
						}
					},
					"getRouteIdByIndex(uint256)": {
						"params": {
							"_index": "Index in routeIds array"
						},
						"returns": {
							"_0": "string Route ID"
						}
					},
					"updateRoute(string,bytes32,string,uint256)": {
						"params": {
							"_completedDeliveries": "Number of completed deliveries",
							"_newDataHash": "Updated SHA-256 hash of route data",
							"_newStatus": "New status",
							"_routeId": "Route identifier"
						}
					},
					"verifyRoute(string,bytes32)": {
						"params": {
							"_dataHash": "Hash to verify",
							"_routeId": "Route identifier"
						},
						"returns": {
							"_0": "bool True if hash matches, false otherwise"
						}
					}
				},
				"version": 1
			},
			"evm": {
				"assembly": "    /* \"blockchain/contracts/RouteRegistry.sol\":519:7508  contract RouteRegistry {... */\n  mstore(0x40, 0x80)\n  callvalue\n  dup1\n  iszero\n  tag_1\n  jumpi\n  revert(0x00, 0x00)\ntag_1:\n  pop\n  dataSize(sub_0)\n  dup1\n  dataOffset(sub_0)\n  0x00\n  codecopy\n  0x00\n  return\nstop\n\nsub_0: assembly {\n        /* \"blockchain/contracts/RouteRegistry.sol\":519:7508  contract RouteRegistry {... */\n      mstore(0x40, 0x80)\n      callvalue\n      dup1\n      iszero\n      tag_1\n      jumpi\n      revert(0x00, 0x00)\n    tag_1:\n      pop\n      jumpi(tag_2, lt(calldatasize, 0x04))\n      shr(0xe0, calldataload(0x00))\n      dup1\n      0x7bce49d9\n      gt\n      tag_11\n      jumpi\n      dup1\n      0x7bce49d9\n      eq\n      tag_7\n      jumpi\n      dup1\n      0xbe1af925\n      eq\n      tag_8\n      jumpi\n      dup1\n      0xcffbffb5\n      eq\n      tag_9\n      jumpi\n      dup1\n      0xfcbb3c47\n      eq\n      tag_10\n      jumpi\n      jump(tag_2)\n    tag_11:\n      dup1\n      0x1b5f03a6\n      eq\n      tag_3\n      jumpi\n      dup1\n      0x32252057\n      eq\n      tag_4\n      jumpi\n      dup1\n      0x5f2a1cc4\n      eq\n      tag_5\n      jumpi\n      dup1\n      0x69d1d76a\n      eq\n      tag_6\n      jumpi\n    tag_2:\n      revert(0x00, 0x00)\n        /* \"blockchain/contracts/RouteRegistry.sol\":6190:6908  function getRoute(string memory _routeId) public view returns (... */\n    tag_3:\n      tag_12\n      0x04\n      dup1\n      calldatasize\n      sub\n      dup2\n      add\n      swap1\n      tag_13\n      swap2\n      swap1\n      tag_14\n      jump\t// in\n    tag_13:\n      tag_15\n      jump\t// in\n    tag_12:\n      mload(0x40)\n      tag_16\n      swap9\n      swap8\n      swap7\n      swap6\n      swap5\n      swap4\n      swap3\n      swap2\n      swap1\n      tag_17\n      jump\t// in\n    tag_16:\n      mload(0x40)\n      dup1\n      swap2\n      sub\n      swap1\n      return\n        /* \"blockchain/contracts/RouteRegistry.sol\":7032:7126  function getRouteCount() public view returns (uint256) {... */\n    tag_4:\n      tag_18\n      tag_19\n      jump\t// in\n    tag_18:\n      mload(0x40)\n      tag_20\n      swap2\n      swap1\n      tag_21\n      jump\t// in\n    tag_20:\n      mload(0x40)\n      dup1\n      swap2\n      sub\n      swap1\n      return\n        /* \"blockchain/contracts/RouteRegistry.sol\":7321:7506  function getRouteIdByIndex(uint256 _index) public view returns (string memory) {... */\n    tag_5:\n      tag_22\n      0x04\n      dup1\n      calldatasize\n      sub\n      dup2\n      add\n      swap1\n      tag_23\n      swap2\n      swap1\n      tag_24\n      jump\t// in\n    tag_23:\n      tag_25\n      jump\t// in\n    tag_22:\n      mload(0x40)\n      tag_26\n      swap2\n      swap1\n      tag_27\n      jump\t// in\n    tag_26:\n      mload(0x40)\n      dup1\n      swap2\n      sub\n      swap1\n      return\n        /* \"blockchain/contracts/RouteRegistry.sol\":2454:3540  function createRoute(... */\n    tag_6:\n      tag_28\n      0x04\n      dup1\n      calldatasize\n      sub\n      dup2\n      add\n      swap1\n      tag_29\n      swap2\n      swap1\n      tag_30\n      jump\t// in\n    tag_29:\n      tag_31\n      jump\t// in\n    tag_28:\n      stop\n        /* \"blockchain/contracts/RouteRegistry.sol\":5414:5655  function verifyRoute(... */\n    tag_7:\n      tag_32\n      0x04\n      dup1\n      calldatasize\n      sub\n      dup2\n      add\n      swap1\n      tag_33\n      swap2\n      swap1\n      tag_34\n      jump\t// in\n    tag_33:\n      tag_35\n      jump\t// in\n    tag_32:\n      mload(0x40)\n      tag_36\n      swap2\n      swap1\n      tag_37\n      jump\t// in\n    tag_36:\n      mload(0x40)\n      dup1\n      swap2\n      sub\n      swap1\n      return\n        /* \"blockchain/contracts/RouteRegistry.sol\":1423:1447  string[] public routeIds */\n    tag_8:\n      tag_38\n      0x04\n      dup1\n      calldatasize\n      sub\n      dup2\n      add\n      swap1\n      tag_39\n      swap2\n      swap1\n      tag_24\n      jump\t// in\n    tag_39:\n      tag_40\n      jump\t// in\n    tag_38:\n      mload(0x40)\n      tag_41\n      swap2\n      swap1\n      tag_27\n      jump\t// in\n    tag_41:\n      mload(0x40)\n      dup1\n      swap2\n      sub\n      swap1\n      return\n        /* \"blockchain/contracts/RouteRegistry.sol\":1322:1366  mapping(string => RouteRecord) public routes */\n    tag_9:\n      tag_42\n      0x04\n      dup1\n      calldatasize\n      sub\n      dup2\n      add\n      swap1\n      tag_43\n      swap2\n      swap1\n      tag_14\n      jump\t// in\n    tag_43:\n      tag_44\n      jump\t// in\n    tag_42:\n      mload(0x40)\n      tag_45\n      swap10\n      swap9\n      swap8\n      swap7\n      swap6\n      swap5\n      swap4\n      swap3\n      swap2\n      swap1\n      tag_46\n      jump\t// in\n    tag_45:\n      mload(0x40)\n      dup1\n      swap2\n      sub\n      swap1\n      return\n        /* \"blockchain/contracts/RouteRegistry.sol\":3969:5070  function updateRoute(... */\n    tag_10:\n      tag_47\n      0x04\n      dup1\n      calldatasize\n      sub\n      dup2\n      add\n      swap1\n      tag_48\n      swap2\n      swap1\n      tag_49\n      jump\t// in\n    tag_48:\n      tag_50\n      jump\t// in\n    tag_47:\n      stop\n        /* \"blockchain/contracts/RouteRegistry.sol\":6190:6908  function getRoute(string memory _routeId) public view returns (... */\n    tag_15:\n        /* \"blockchain/contracts/RouteRegistry.sol\":6262:6283  string memory routeId */\n      0x60\n        /* \"blockchain/contracts/RouteRegistry.sol\":6293:6309  bytes32 dataHash */\n      0x00\n        /* \"blockchain/contracts/RouteRegistry.sol\":6319:6336  uint256 timestamp */\n      0x00\n        /* \"blockchain/contracts/RouteRegistry.sol\":6346:6360  address driver */\n      0x00\n        /* \"blockchain/contracts/RouteRegistry.sol\":6370:6390  string memory status */\n      0x60\n        /* \"blockchain/contracts/RouteRegistry.sol\":6400:6421  uint256 totalDistance */\n      0x00\n        /* \"blockchain/contracts/RouteRegistry.sol\":6431:6452  uint256 deliveryCount */\n      0x00\n        /* \"blockchain/contracts/RouteRegistry.sol\":6462:6489  uint256 completedDeliveries */\n      0x00\n        /* \"blockchain/contracts/RouteRegistry.sol\":6514:6520  routes */\n      0x00\n        /* \"blockchain/contracts/RouteRegistry.sol\":6521:6529  _routeId */\n      dup10\n        /* \"blockchain/contracts/RouteRegistry.sol\":6514:6530  routes[_routeId] */\n      mload(0x40)\n      tag_52\n      swap2\n      swap1\n      tag_53\n      jump\t// in\n    tag_52:\n      swap1\n      dup2\n      mstore\n      0x20\n      add\n      mload(0x40)\n      dup1\n      swap2\n      sub\n      swap1\n      keccak256\n        /* \"blockchain/contracts/RouteRegistry.sol\":6514:6537  routes[_routeId].exists */\n      0x08\n      add\n      0x00\n      swap1\n      sload\n      swap1\n      0x0100\n      exp\n      swap1\n      div\n      0xff\n      and\n        /* \"blockchain/contracts/RouteRegistry.sol\":6506:6562  require(routes[_routeId].exists, \"Route does not exist\") */\n      tag_54\n      jumpi\n      mload(0x40)\n      0x08c379a000000000000000000000000000000000000000000000000000000000\n      dup2\n      mstore\n      0x04\n      add\n      tag_55\n      swap1\n      tag_56\n      jump\t// in\n    tag_55:\n      mload(0x40)\n      dup1\n      swap2\n      sub\n      swap1\n      revert\n    tag_54:\n        /* \"blockchain/contracts/RouteRegistry.sol\":6581:6605  RouteRecord memory route */\n      0x00\n        /* \"blockchain/contracts/RouteRegistry.sol\":6608:6614  routes */\n      0x00\n        /* \"blockchain/contracts/RouteRegistry.sol\":6615:6623  _routeId */\n      dup11\n        /* \"blockchain/contracts/RouteRegistry.sol\":6608:6624  routes[_routeId] */\n      mload(0x40)\n      tag_57\n      swap2\n      swap1\n      tag_53\n      jump\t// in\n    tag_57:\n      swap1\n      dup2\n      mstore\n      0x20\n      add\n      mload(0x40)\n      dup1\n      swap2\n      sub\n      swap1\n      keccak256\n        /* \"blockchain/contracts/RouteRegistry.sol\":6581:6624  RouteRecord memory route = routes[_routeId] */\n      mload(0x40)\n      dup1\n      0x0120\n      add\n      0x40\n      mstore\n      swap1\n      dup2\n      0x00\n      dup3\n      add\n      dup1\n      sload\n      tag_58\n      swap1\n      tag_59\n      jump\t// in\n    tag_58:\n      dup1\n      0x1f\n      add\n      0x20\n      dup1\n      swap2\n      div\n      mul\n      0x20\n      add\n      mload(0x40)\n      swap1\n      dup2\n      add\n      0x40\n      mstore\n      dup1\n      swap3\n      swap2\n      swap1\n      dup2\n      dup2\n      mstore\n      0x20\n      add\n      dup3\n      dup1\n      sload\n      tag_60\n      swap1\n      tag_59\n      jump\t// in\n    tag_60:\n      dup1\n      iszero\n      tag_61\n      jumpi\n      dup1\n      0x1f\n      lt\n      tag_62\n      jumpi\n      0x0100\n      dup1\n      dup4\n      sload\n      div\n      mul\n      dup4\n      mstore\n      swap2\n      0x20\n      add\n      swap2\n      jump(tag_61)\n    tag_62:\n      dup3\n      add\n      swap2\n      swap1\n      0x00\n      mstore\n      keccak256(0x00, 0x20)\n      swap1\n    tag_63:\n      dup2\n      sload\n      dup2\n      mstore\n      swap1\n      0x01\n      add\n      swap1\n      0x20\n      add\n      dup1\n      dup4\n      gt\n      tag_63\n      jumpi\n      dup3\n      swap1\n      sub\n      0x1f\n      and\n      dup3\n      add\n      swap2\n    tag_61:\n      pop\n      pop\n      pop\n      pop\n      pop\n      dup2\n      mstore\n      0x20\n      add\n      0x01\n      dup3\n      add\n      sload\n      dup2\n      mstore\n      0x20\n      add\n      0x02\n      dup3\n      add\n      sload\n      dup2\n      mstore\n      0x20\n      add\n      0x03\n      dup3\n      add\n      0x00\n      swap1\n      sload\n      swap1\n      0x0100\n      exp\n      swap1\n      div\n      0xffffffffffffffffffffffffffffffffffffffff\n      and\n      0xffffffffffffffffffffffffffffffffffffffff\n      and\n      0xffffffffffffffffffffffffffffffffffffffff\n      and\n      dup2\n      mstore\n      0x20\n      add\n      0x04\n      dup3\n      add\n      dup1\n      sload\n      tag_64\n      swap1\n      tag_59\n      jump\t// in\n    tag_64:\n      dup1\n      0x1f\n      add\n      0x20\n      dup1\n      swap2\n      div\n      mul\n      0x20\n      add\n      mload(0x40)\n      swap1\n      dup2\n      add\n      0x40\n      mstore\n      dup1\n      swap3\n      swap2\n      swap1\n      dup2\n      dup2\n      mstore\n      0x20\n      add\n      dup3\n      dup1\n      sload\n      tag_65\n      swap1\n      tag_59\n      jump\t// in\n    tag_65:\n      dup1\n      iszero\n      tag_66\n      jumpi\n      dup1\n      0x1f\n      lt\n      tag_67\n      jumpi\n      0x0100\n      dup1\n      dup4\n      sload\n      div\n      mul\n      dup4\n      mstore\n      swap2\n      0x20\n      add\n      swap2\n      jump(tag_66)\n    tag_67:\n      dup3\n      add\n      swap2\n      swap1\n      0x00\n      mstore\n      keccak256(0x00, 0x20)\n      swap1\n    tag_68:\n      dup2\n      sload\n      dup2\n      mstore\n      swap1\n      0x01\n      add\n      swap1\n      0x20\n      add\n      dup1\n      dup4\n      gt\n      tag_68\n      jumpi\n      dup3\n      swap1\n      sub\n      0x1f\n      and\n      dup3\n      add\n      swap2\n    tag_66:\n      pop\n      pop\n      pop\n      pop\n      pop\n      dup2\n      mstore\n      0x20\n      add\n      0x05\n      dup3\n      add\n      sload\n      dup2\n      mstore\n      0x20\n      add\n      0x06\n      dup3\n      add\n      sload\n      dup2\n      mstore\n      0x20\n      add\n      0x07\n      dup3\n      add\n      sload\n      dup2\n      mstore\n      0x20\n      add\n      0x08\n      dup3\n      add\n      0x00\n      swap1\n      sload\n      swap1\n      0x0100\n      exp\n      swap1\n      div\n      0xff\n      and\n      iszero\n      iszero\n      iszero\n      iszero\n      dup2\n      mstore\n      pop\n      pop\n      swap1\n      pop\n        /* \"blockchain/contracts/RouteRegistry.sol\":6664:6669  route */\n      dup1\n        /* \"blockchain/contracts/RouteRegistry.sol\":6664:6677  route.routeId */\n      0x00\n      add\n      mload\n        /* \"blockchain/contracts/RouteRegistry.sol\":6691:6696  route */\n      dup2\n        /* \"blockchain/contracts/RouteRegistry.sol\":6691:6705  route.dataHash */\n      0x20\n      add\n      mload\n        /* \"blockchain/contracts/RouteRegistry.sol\":6719:6724  route */\n      dup3\n        /* \"blockchain/contracts/RouteRegistry.sol\":6719:6734  route.timestamp */\n      0x40\n      add\n      mload\n        /* \"blockchain/contracts/RouteRegistry.sol\":6748:6753  route */\n      dup4\n        /* \"blockchain/contracts/RouteRegistry.sol\":6748:6760  route.driver */\n      0x60\n      add\n      mload\n        /* \"blockchain/contracts/RouteRegistry.sol\":6774:6779  route */\n      dup5\n        /* \"blockchain/contracts/RouteRegistry.sol\":6774:6786  route.status */\n      0x80\n      add\n      mload\n        /* \"blockchain/contracts/RouteRegistry.sol\":6800:6805  route */\n      dup6\n        /* \"blockchain/contracts/RouteRegistry.sol\":6800:6819  route.totalDistance */\n      0xa0\n      add\n      mload\n        /* \"blockchain/contracts/RouteRegistry.sol\":6833:6838  route */\n      dup7\n        /* \"blockchain/contracts/RouteRegistry.sol\":6833:6852  route.deliveryCount */\n      0xc0\n      add\n      mload\n        /* \"blockchain/contracts/RouteRegistry.sol\":6866:6871  route */\n      dup8\n        /* \"blockchain/contracts/RouteRegistry.sol\":6866:6891  route.completedDeliveries */\n      0xe0\n      add\n      mload\n        /* \"blockchain/contracts/RouteRegistry.sol\":6643:6901  return (... */\n      swap9\n      pop\n      swap9\n      pop\n      swap9\n      pop\n      swap9\n      pop\n      swap9\n      pop\n      swap9\n      pop\n      swap9\n      pop\n      swap9\n      pop\n      pop\n        /* \"blockchain/contracts/RouteRegistry.sol\":6190:6908  function getRoute(string memory _routeId) public view returns (... */\n      swap2\n      swap4\n      swap6\n      swap8\n      pop\n      swap2\n      swap4\n      swap6\n      swap8\n      jump\t// out\n        /* \"blockchain/contracts/RouteRegistry.sol\":7032:7126  function getRouteCount() public view returns (uint256) {... */\n    tag_19:\n        /* \"blockchain/contracts/RouteRegistry.sol\":7078:7085  uint256 */\n      0x00\n        /* \"blockchain/contracts/RouteRegistry.sol\":7104:7112  routeIds */\n      0x01\n        /* \"blockchain/contracts/RouteRegistry.sol\":7104:7119  routeIds.length */\n      dup1\n      sload\n      swap1\n      pop\n        /* \"blockchain/contracts/RouteRegistry.sol\":7097:7119  return routeIds.length */\n      swap1\n      pop\n        /* \"blockchain/contracts/RouteRegistry.sol\":7032:7126  function getRouteCount() public view returns (uint256) {... */\n      swap1\n      jump\t// out\n        /* \"blockchain/contracts/RouteRegistry.sol\":7321:7506  function getRouteIdByIndex(uint256 _index) public view returns (string memory) {... */\n    tag_25:\n        /* \"blockchain/contracts/RouteRegistry.sol\":7385:7398  string memory */\n      0x60\n        /* \"blockchain/contracts/RouteRegistry.sol\":7427:7435  routeIds */\n      0x01\n        /* \"blockchain/contracts/RouteRegistry.sol\":7427:7442  routeIds.length */\n      dup1\n      sload\n      swap1\n      pop\n        /* \"blockchain/contracts/RouteRegistry.sol\":7418:7424  _index */\n      dup3\n        /* \"blockchain/contracts/RouteRegistry.sol\":7418:7442  _index < routeIds.length */\n      lt\n        /* \"blockchain/contracts/RouteRegistry.sol\":7410:7466  require(_index < routeIds.length, \"Index out of bounds\") */\n      tag_71\n      jumpi\n      mload(0x40)\n      0x08c379a000000000000000000000000000000000000000000000000000000000\n      dup2\n      mstore\n      0x04\n      add\n      tag_72\n      swap1\n      tag_73\n      jump\t// in\n    tag_72:\n      mload(0x40)\n      dup1\n      swap2\n      sub\n      swap1\n      revert\n    tag_71:\n        /* \"blockchain/contracts/RouteRegistry.sol\":7483:7491  routeIds */\n      0x01\n        /* \"blockchain/contracts/RouteRegistry.sol\":7492:7498  _index */\n      dup3\n        /* \"blockchain/contracts/RouteRegistry.sol\":7483:7499  routeIds[_index] */\n      dup2\n      sload\n      dup2\n      lt\n      tag_74\n      jumpi\n      tag_75\n      tag_76\n      jump\t// in\n    tag_75:\n    tag_74:\n      swap1\n      0x00\n      mstore\n      keccak256(0x00, 0x20)\n      add\n        /* \"blockchain/contracts/RouteRegistry.sol\":7476:7499  return routeIds[_index] */\n      dup1\n      sload\n      tag_78\n      swap1\n      tag_59\n      jump\t// in\n    tag_78:\n      dup1\n      0x1f\n      add\n      0x20\n      dup1\n      swap2\n      div\n      mul\n      0x20\n      add\n      mload(0x40)\n      swap1\n      dup2\n      add\n      0x40\n      mstore\n      dup1\n      swap3\n      swap2\n      swap1\n      dup2\n      dup2\n      mstore\n      0x20\n      add\n      dup3\n      dup1\n      sload\n      tag_79\n      swap1\n      tag_59\n      jump\t// in\n    tag_79:\n      dup1\n      iszero\n      tag_80\n      jumpi\n      dup1\n      0x1f\n      lt\n      tag_81\n      jumpi\n      0x0100\n      dup1\n      dup4\n      sload\n      div\n      mul\n      dup4\n      mstore\n      swap2\n      0x20\n      add\n      swap2\n      jump(tag_80)\n    tag_81:\n      dup3\n      add\n      swap2\n      swap1\n      0x00\n      mstore\n      keccak256(0x00, 0x20)\n      swap1\n    tag_82:\n      dup2\n      sload\n      dup2\n      mstore\n      swap1\n      0x01\n      add\n      swap1\n      0x20\n      add\n      dup1\n      dup4\n      gt\n      tag_82\n      jumpi\n      dup3\n      swap1\n      sub\n      0x1f\n      and\n      dup3\n      add\n      swap2\n    tag_80:\n      pop\n      pop\n      pop\n      pop\n      pop\n      swap1\n      pop\n        /* \"blockchain/contracts/RouteRegistry.sol\":7321:7506  function getRouteIdByIndex(uint256 _index) public view returns (string memory) {... */\n      swap2\n      swap1\n      pop\n      jump\t// out\n        /* \"blockchain/contracts/RouteRegistry.sol\":2454:3540  function createRoute(... */\n    tag_31:\n        /* \"blockchain/contracts/RouteRegistry.sol\":2713:2719  routes */\n      0x00\n        /* \"blockchain/contracts/RouteRegistry.sol\":2720:2728  _routeId */\n      dup6\n        /* \"blockchain/contracts/RouteRegistry.sol\":2713:2729  routes[_routeId] */\n      mload(0x40)\n      tag_84\n      swap2\n      swap1\n      tag_53\n      jump\t// in\n    tag_84:\n      swap1\n      dup2\n      mstore\n      0x20\n      add\n      mload(0x40)\n      dup1\n      swap2\n      sub\n      swap1\n      keccak256\n        /* \"blockchain/contracts/RouteRegistry.sol\":2713:2736  routes[_routeId].exists */\n      0x08\n      add\n      0x00\n      swap1\n      sload\n      swap1\n      0x0100\n      exp\n      swap1\n      div\n      0xff\n      and\n        /* \"blockchain/contracts/RouteRegistry.sol\":2712:2736  !routes[_routeId].exists */\n      iszero\n        /* \"blockchain/contracts/RouteRegistry.sol\":2704:2761  require(!routes[_routeId].exists, \"Route already exists\") */\n      tag_85\n      jumpi\n      mload(0x40)\n      0x08c379a000000000000000000000000000000000000000000000000000000000\n      dup2\n      mstore\n      0x04\n      add\n      tag_86\n      swap1\n      tag_87\n      jump\t// in\n    tag_86:\n      mload(0x40)\n      dup1\n      swap2\n      sub\n      swap1\n      revert\n    tag_85:\n        /* \"blockchain/contracts/RouteRegistry.sol\":2843:2844  0 */\n      0x00\n        /* \"blockchain/contracts/RouteRegistry.sol\":2824:2832  _routeId */\n      dup6\n        /* \"blockchain/contracts/RouteRegistry.sol\":2818:2840  bytes(_routeId).length */\n      mload\n        /* \"blockchain/contracts/RouteRegistry.sol\":2818:2844  bytes(_routeId).length > 0 */\n      gt\n        /* \"blockchain/contracts/RouteRegistry.sol\":2810:2873  require(bytes(_routeId).length > 0, \"Route ID cannot be empty\") */\n      tag_88\n      jumpi\n      mload(0x40)\n      0x08c379a000000000000000000000000000000000000000000000000000000000\n      dup2\n      mstore\n      0x04\n      add\n      tag_89\n      swap1\n      tag_90\n      jump\t// in\n    tag_89:\n      mload(0x40)\n      dup1\n      swap2\n      sub\n      swap1\n      revert\n    tag_88:\n        /* \"blockchain/contracts/RouteRegistry.sol\":2912:2913  0 */\n      0x00\n        /* \"blockchain/contracts/RouteRegistry.sol\":2904:2914  bytes32(0) */\n      0x00\n      shl\n        /* \"blockchain/contracts/RouteRegistry.sol\":2891:2900  _dataHash */\n      dup5\n        /* \"blockchain/contracts/RouteRegistry.sol\":2891:2914  _dataHash != bytes32(0) */\n      sub\n        /* \"blockchain/contracts/RouteRegistry.sol\":2883:2944  require(_dataHash != bytes32(0), \"Data hash cannot be empty\") */\n      tag_91\n      jumpi\n      mload(0x40)\n      0x08c379a000000000000000000000000000000000000000000000000000000000\n      dup2\n      mstore\n      0x04\n      add\n      tag_92\n      swap1\n      tag_93\n      jump\t// in\n    tag_92:\n      mload(0x40)\n      dup1\n      swap2\n      sub\n      swap1\n      revert\n    tag_91:\n        /* \"blockchain/contracts/RouteRegistry.sol\":3013:3349  RouteRecord({... */\n      mload(0x40)\n      dup1\n      0x0120\n      add\n      0x40\n      mstore\n      dup1\n        /* \"blockchain/contracts/RouteRegistry.sol\":3048:3056  _routeId */\n      dup7\n        /* \"blockchain/contracts/RouteRegistry.sol\":3013:3349  RouteRecord({... */\n      dup2\n      mstore\n      0x20\n      add\n        /* \"blockchain/contracts/RouteRegistry.sol\":3080:3089  _dataHash */\n      dup6\n        /* \"blockchain/contracts/RouteRegistry.sol\":3013:3349  RouteRecord({... */\n      dup2\n      mstore\n      0x20\n      add\n        /* \"blockchain/contracts/RouteRegistry.sol\":3114:3129  block.timestamp */\n      timestamp\n        /* \"blockchain/contracts/RouteRegistry.sol\":3013:3349  RouteRecord({... */\n      dup2\n      mstore\n      0x20\n      add\n        /* \"blockchain/contracts/RouteRegistry.sol\":3151:3161  msg.sender */\n      caller\n        /* \"blockchain/contracts/RouteRegistry.sol\":3013:3349  RouteRecord({... */\n      0xffffffffffffffffffffffffffffffffffffffff\n      and\n      dup2\n      mstore\n      0x20\n      add\n        /* \"blockchain/contracts/RouteRegistry.sol\":3183:3190  _status */\n      dup5\n        /* \"blockchain/contracts/RouteRegistry.sol\":3013:3349  RouteRecord({... */\n      dup2\n      mstore\n      0x20\n      add\n        /* \"blockchain/contracts/RouteRegistry.sol\":3219:3233  _totalDistance */\n      dup4\n        /* \"blockchain/contracts/RouteRegistry.sol\":3013:3349  RouteRecord({... */\n      dup2\n      mstore\n      0x20\n      add\n        /* \"blockchain/contracts/RouteRegistry.sol\":3262:3276  _deliveryCount */\n      dup3\n        /* \"blockchain/contracts/RouteRegistry.sol\":3013:3349  RouteRecord({... */\n      dup2\n      mstore\n      0x20\n      add\n        /* \"blockchain/contracts/RouteRegistry.sol\":3311:3312  0 */\n      0x00\n        /* \"blockchain/contracts/RouteRegistry.sol\":3013:3349  RouteRecord({... */\n      dup2\n      mstore\n      0x20\n      add\n        /* \"blockchain/contracts/RouteRegistry.sol\":3334:3338  true */\n      0x01\n        /* \"blockchain/contracts/RouteRegistry.sol\":3013:3349  RouteRecord({... */\n      iszero\n      iszero\n      dup2\n      mstore\n      pop\n        /* \"blockchain/contracts/RouteRegistry.sol\":2994:3000  routes */\n      0x00\n        /* \"blockchain/contracts/RouteRegistry.sol\":3001:3009  _routeId */\n      dup7\n        /* \"blockchain/contracts/RouteRegistry.sol\":2994:3010  routes[_routeId] */\n      mload(0x40)\n      tag_94\n      swap2\n      swap1\n      tag_53\n      jump\t// in\n    tag_94:\n      swap1\n      dup2\n      mstore\n      0x20\n      add\n      mload(0x40)\n      dup1\n      swap2\n      sub\n      swap1\n      keccak256\n        /* \"blockchain/contracts/RouteRegistry.sol\":2994:3349  routes[_routeId] = RouteRecord({... */\n      0x00\n      dup3\n      add\n      mload\n      dup2\n      0x00\n      add\n      swap1\n      dup2\n      tag_95\n      swap2\n      swap1\n      tag_96\n      jump\t// in\n    tag_95:\n      pop\n      0x20\n      dup3\n      add\n      mload\n      dup2\n      0x01\n      add\n      sstore\n      0x40\n      dup3\n      add\n      mload\n      dup2\n      0x02\n      add\n      sstore\n      0x60\n      dup3\n      add\n      mload\n      dup2\n      0x03\n      add\n      exp(0x0100, 0x00)\n      dup2\n      sload\n      dup2\n      0xffffffffffffffffffffffffffffffffffffffff\n      mul\n      not\n      and\n      swap1\n      dup4\n      0xffffffffffffffffffffffffffffffffffffffff\n      and\n      mul\n      or\n      swap1\n      sstore\n      pop\n      0x80\n      dup3\n      add\n      mload\n      dup2\n      0x04\n      add\n      swap1\n      dup2\n      tag_97\n      swap2\n      swap1\n      tag_96\n      jump\t// in\n    tag_97:\n      pop\n      0xa0\n      dup3\n      add\n      mload\n      dup2\n      0x05\n      add\n      sstore\n      0xc0\n      dup3\n      add\n      mload\n      dup2\n      0x06\n      add\n      sstore\n      0xe0\n      dup3\n      add\n      mload\n      dup2\n      0x07\n      add\n      sstore\n      0x0100\n      dup3\n      add\n      mload\n      dup2\n      0x08\n      add\n      exp(0x0100, 0x00)\n      dup2\n      sload\n      dup2\n      0xff\n      mul\n      not\n      and\n      swap1\n      dup4\n      iszero\n      iszero\n      mul\n      or\n      swap1\n      sstore\n      pop\n      swap1\n      pop\n      pop\n        /* \"blockchain/contracts/RouteRegistry.sol\":3402:3410  routeIds */\n      0x01\n        /* \"blockchain/contracts/RouteRegistry.sol\":3416:3424  _routeId */\n      dup6\n        /* \"blockchain/contracts/RouteRegistry.sol\":3402:3425  routeIds.push(_routeId) */\n      swap1\n      dup1\n      0x01\n      dup2\n      sload\n      add\n      dup1\n      dup3\n      sstore\n      dup1\n      swap2\n      pop\n      pop\n      0x01\n      swap1\n      sub\n      swap1\n      0x00\n      mstore\n      keccak256(0x00, 0x20)\n      add\n      0x00\n      swap1\n      swap2\n      swap1\n      swap2\n      swap1\n      swap2\n      pop\n      swap1\n      dup2\n      tag_99\n      swap2\n      swap1\n      tag_96\n      jump\t// in\n    tag_99:\n      pop\n        /* \"blockchain/contracts/RouteRegistry.sol\":3484:3492  _routeId */\n      dup5\n        /* \"blockchain/contracts/RouteRegistry.sol\":3471:3533  RouteCreated(_routeId, _dataHash, block.timestamp, msg.sender) */\n      mload(0x40)\n      tag_100\n      swap2\n      swap1\n      tag_53\n      jump\t// in\n    tag_100:\n      mload(0x40)\n      dup1\n      swap2\n      sub\n      swap1\n      keccak256\n      0x57e59320c8b483f9aefd540dc61987f2c7a6b6a3f50bb3951e2ccb7842355259\n        /* \"blockchain/contracts/RouteRegistry.sol\":3494:3503  _dataHash */\n      dup6\n        /* \"blockchain/contracts/RouteRegistry.sol\":3505:3520  block.timestamp */\n      timestamp\n        /* \"blockchain/contracts/RouteRegistry.sol\":3522:3532  msg.sender */\n      caller\n        /* \"blockchain/contracts/RouteRegistry.sol\":3471:3533  RouteCreated(_routeId, _dataHash, block.timestamp, msg.sender) */\n      mload(0x40)\n      tag_101\n      swap4\n      swap3\n      swap2\n      swap1\n      tag_102\n      jump\t// in\n    tag_101:\n      mload(0x40)\n      dup1\n      swap2\n      sub\n      swap1\n      log2\n        /* \"blockchain/contracts/RouteRegistry.sol\":2454:3540  function createRoute(... */\n      pop\n      pop\n      pop\n      pop\n      pop\n      jump\t// out\n        /* \"blockchain/contracts/RouteRegistry.sol\":5414:5655  function verifyRoute(... */\n    tag_35:\n        /* \"blockchain/contracts/RouteRegistry.sol\":5521:5525  bool */\n      0x00\n        /* \"blockchain/contracts/RouteRegistry.sol\":5545:5551  routes */\n      0x00\n        /* \"blockchain/contracts/RouteRegistry.sol\":5552:5560  _routeId */\n      dup4\n        /* \"blockchain/contracts/RouteRegistry.sol\":5545:5561  routes[_routeId] */\n      mload(0x40)\n      tag_104\n      swap2\n      swap1\n      tag_53\n      jump\t// in\n    tag_104:\n      swap1\n      dup2\n      mstore\n      0x20\n      add\n      mload(0x40)\n      dup1\n      swap2\n      sub\n      swap1\n      keccak256\n        /* \"blockchain/contracts/RouteRegistry.sol\":5545:5568  routes[_routeId].exists */\n      0x08\n      add\n      0x00\n      swap1\n      sload\n      swap1\n      0x0100\n      exp\n      swap1\n      div\n      0xff\n      and\n        /* \"blockchain/contracts/RouteRegistry.sol\":5537:5593  require(routes[_routeId].exists, \"Route does not exist\") */\n      tag_105\n      jumpi\n      mload(0x40)\n      0x08c379a000000000000000000000000000000000000000000000000000000000\n      dup2\n      mstore\n      0x04\n      add\n      tag_106\n      swap1\n      tag_56\n      jump\t// in\n    tag_106:\n      mload(0x40)\n      dup1\n      swap2\n      sub\n      swap1\n      revert\n    tag_105:\n        /* \"blockchain/contracts/RouteRegistry.sol\":5639:5648  _dataHash */\n      dup2\n        /* \"blockchain/contracts/RouteRegistry.sol\":5610:5616  routes */\n      0x00\n        /* \"blockchain/contracts/RouteRegistry.sol\":5617:5625  _routeId */\n      dup5\n        /* \"blockchain/contracts/RouteRegistry.sol\":5610:5626  routes[_routeId] */\n      mload(0x40)\n      tag_107\n      swap2\n      swap1\n      tag_53\n      jump\t// in\n    tag_107:\n      swap1\n      dup2\n      mstore\n      0x20\n      add\n      mload(0x40)\n      dup1\n      swap2\n      sub\n      swap1\n      keccak256\n        /* \"blockchain/contracts/RouteRegistry.sol\":5610:5635  routes[_routeId].dataHash */\n      0x01\n      add\n      sload\n        /* \"blockchain/contracts/RouteRegistry.sol\":5610:5648  routes[_routeId].dataHash == _dataHash */\n      eq\n        /* \"blockchain/contracts/RouteRegistry.sol\":5603:5648  return routes[_routeId].dataHash == _dataHash */\n      swap1\n      pop\n        /* \"blockchain/contracts/RouteRegistry.sol\":5414:5655  function verifyRoute(... */\n      swap3\n      swap2\n      pop\n      pop\n      jump\t// out\n        /* \"blockchain/contracts/RouteRegistry.sol\":1423:1447  string[] public routeIds */\n    tag_40:\n      0x01\n      dup2\n      dup2\n      sload\n      dup2\n      lt\n      tag_108\n      jumpi\n      0x00\n      dup1\n      revert\n    tag_108:\n      swap1\n      0x00\n      mstore\n      keccak256(0x00, 0x20)\n      add\n      0x00\n      swap2\n      pop\n      swap1\n      pop\n      dup1\n      sload\n      tag_110\n      swap1\n      tag_59\n      jump\t// in\n    tag_110:\n      dup1\n      0x1f\n      add\n      0x20\n      dup1\n      swap2\n      div\n      mul\n      0x20\n      add\n      mload(0x40)\n      swap1\n      dup2\n      add\n      0x40\n      mstore\n      dup1\n      swap3\n      swap2\n      swap1\n      dup2\n      dup2\n      mstore\n      0x20\n      add\n      dup3\n      dup1\n      sload\n      tag_111\n      swap1\n      tag_59\n      jump\t// in\n    tag_111:\n      dup1\n      iszero\n      tag_112\n      jumpi\n      dup1\n      0x1f\n      lt\n      tag_113\n      jumpi\n      0x0100\n      dup1\n      dup4\n      sload\n      div\n      mul\n      dup4\n      mstore\n      swap2\n      0x20\n      add\n      swap2\n      jump(tag_112)\n    tag_113:\n      dup3\n      add\n      swap2\n      swap1\n      0x00\n      mstore\n      keccak256(0x00, 0x20)\n      swap1\n    tag_114:\n      dup2\n      sload\n      dup2\n      mstore\n      swap1\n      0x01\n      add\n      swap1\n      0x20\n      add\n      dup1\n      dup4\n      gt\n      tag_114\n      jumpi\n      dup3\n      swap1\n      sub\n      0x1f\n      and\n      dup3\n      add\n      swap2\n    tag_112:\n      pop\n      pop\n      pop\n      pop\n      pop\n      dup2\n      jump\t// out\n        /* \"blockchain/contracts/RouteRegistry.sol\":1322:1366  mapping(string => RouteRecord) public routes */\n    tag_44:\n      0x00\n      dup2\n      dup1\n      mload\n      0x20\n      dup2\n      add\n      dup3\n      add\n      dup1\n      mload\n      dup5\n      dup3\n      mstore\n      0x20\n      dup4\n      add\n      0x20\n      dup6\n      add\n      keccak256\n      dup2\n      dup4\n      mstore\n      dup1\n      swap6\n      pop\n      pop\n      pop\n      pop\n      pop\n      pop\n      0x00\n      swap2\n      pop\n      swap1\n      pop\n      dup1\n      0x00\n      add\n      dup1\n      sload\n      tag_115\n      swap1\n      tag_59\n      jump\t// in\n    tag_115:\n      dup1\n      0x1f\n      add\n      0x20\n      dup1\n      swap2\n      div\n      mul\n      0x20\n      add\n      mload(0x40)\n      swap1\n      dup2\n      add\n      0x40\n      mstore\n      dup1\n      swap3\n      swap2\n      swap1\n      dup2\n      dup2\n      mstore\n      0x20\n      add\n      dup3\n      dup1\n      sload\n      tag_116\n      swap1\n      tag_59\n      jump\t// in\n    tag_116:\n      dup1\n      iszero\n      tag_117\n      jumpi\n      dup1\n      0x1f\n      lt\n      tag_118\n      jumpi\n      0x0100\n      dup1\n      dup4\n      sload\n      div\n      mul\n      dup4\n      mstore\n      swap2\n      0x20\n      add\n      swap2\n      jump(tag_117)\n    tag_118:\n      dup3\n      add\n      swap2\n      swap1\n      0x00\n      mstore\n      keccak256(0x00, 0x20)\n      swap1\n    tag_119:\n      dup2\n      sload\n      dup2\n      mstore\n      swap1\n      0x01\n      add\n      swap1\n      0x20\n      add\n      dup1\n      dup4\n      gt\n      tag_119\n      jumpi\n      dup3\n      swap1\n      sub\n      0x1f\n      and\n      dup3\n      add\n      swap2\n    tag_117:\n      pop\n      pop\n      pop\n      pop\n      pop\n      swap1\n      dup1\n      0x01\n      add\n      sload\n      swap1\n      dup1\n      0x02\n      add\n      sload\n      swap1\n      dup1\n      0x03\n      add\n      0x00\n      swap1\n      sload\n      swap1\n      0x0100\n      exp\n      swap1\n      div\n      0xffffffffffffffffffffffffffffffffffffffff\n      and\n      swap1\n      dup1\n      0x04\n      add\n      dup1\n      sload\n      tag_120\n      swap1\n      tag_59\n      jump\t// in\n    tag_120:\n      dup1\n      0x1f\n      add\n      0x20\n      dup1\n      swap2\n      div\n      mul\n      0x20\n      add\n      mload(0x40)\n      swap1\n      dup2\n      add\n      0x40\n      mstore\n      dup1\n      swap3\n      swap2\n      swap1\n      dup2\n      dup2\n      mstore\n      0x20\n      add\n      dup3\n      dup1\n      sload\n      tag_121\n      swap1\n      tag_59\n      jump\t// in\n    tag_121:\n      dup1\n      iszero\n      tag_122\n      jumpi\n      dup1\n      0x1f\n      lt\n      tag_123\n      jumpi\n      0x0100\n      dup1\n      dup4\n      sload\n      div\n      mul\n      dup4\n      mstore\n      swap2\n      0x20\n      add\n      swap2\n      jump(tag_122)\n    tag_123:\n      dup3\n      add\n      swap2\n      swap1\n      0x00\n      mstore\n      keccak256(0x00, 0x20)\n      swap1\n    tag_124:\n      dup2\n      sload\n      dup2\n      mstore\n      swap1\n      0x01\n      add\n      swap1\n      0x20\n      add\n      dup1\n      dup4\n      gt\n      tag_124\n      jumpi\n      dup3\n      swap1\n      sub\n      0x1f\n      and\n      dup3\n      add\n      swap2\n    tag_122:\n      pop\n      pop\n      pop\n      pop\n      pop\n      swap1\n      dup1\n      0x05\n      add\n      sload\n      swap1\n      dup1\n      0x06\n      add\n      sload\n      swap1\n      dup1\n      0x07\n      add\n      sload\n      swap1\n      dup1\n      0x08\n      add\n      0x00\n      swap1\n      sload\n      swap1\n      0x0100\n      exp\n      swap1\n      div\n      0xff\n      and\n      swap1\n      pop\n      dup10\n      jump\t// out\n        /* \"blockchain/contracts/RouteRegistry.sol\":3969:5070  function updateRoute(... */\n    tag_50:\n        /* \"blockchain/contracts/RouteRegistry.sol\":4192:4198  routes */\n      0x00\n        /* \"blockchain/contracts/RouteRegistry.sol\":4199:4207  _routeId */\n      dup5\n        /* \"blockchain/contracts/RouteRegistry.sol\":4192:4208  routes[_routeId] */\n      mload(0x40)\n      tag_126\n      swap2\n      swap1\n      tag_53\n      jump\t// in\n    tag_126:\n      swap1\n      dup2\n      mstore\n      0x20\n      add\n      mload(0x40)\n      dup1\n      swap2\n      sub\n      swap1\n      keccak256\n        /* \"blockchain/contracts/RouteRegistry.sol\":4192:4215  routes[_routeId].exists */\n      0x08\n      add\n      0x00\n      swap1\n      sload\n      swap1\n      0x0100\n      exp\n      swap1\n      div\n      0xff\n      and\n        /* \"blockchain/contracts/RouteRegistry.sol\":4184:4240  require(routes[_routeId].exists, \"Route does not exist\") */\n      tag_127\n      jumpi\n      mload(0x40)\n      0x08c379a000000000000000000000000000000000000000000000000000000000\n      dup2\n      mstore\n      0x04\n      add\n      tag_128\n      swap1\n      tag_56\n      jump\t// in\n    tag_128:\n      mload(0x40)\n      dup1\n      swap2\n      sub\n      swap1\n      revert\n    tag_127:\n        /* \"blockchain/contracts/RouteRegistry.sol\":4391:4401  msg.sender */\n      caller\n        /* \"blockchain/contracts/RouteRegistry.sol\":4364:4401  routes[_routeId].driver == msg.sender */\n      0xffffffffffffffffffffffffffffffffffffffff\n      and\n        /* \"blockchain/contracts/RouteRegistry.sol\":4364:4370  routes */\n      0x00\n        /* \"blockchain/contracts/RouteRegistry.sol\":4371:4379  _routeId */\n      dup6\n        /* \"blockchain/contracts/RouteRegistry.sol\":4364:4380  routes[_routeId] */\n      mload(0x40)\n      tag_129\n      swap2\n      swap1\n      tag_53\n      jump\t// in\n    tag_129:\n      swap1\n      dup2\n      mstore\n      0x20\n      add\n      mload(0x40)\n      dup1\n      swap2\n      sub\n      swap1\n      keccak256\n        /* \"blockchain/contracts/RouteRegistry.sol\":4364:4387  routes[_routeId].driver */\n      0x03\n      add\n      0x00\n      swap1\n      sload\n      swap1\n      0x0100\n      exp\n      swap1\n      div\n      0xffffffffffffffffffffffffffffffffffffffff\n      and\n        /* \"blockchain/contracts/RouteRegistry.sol\":4364:4401  routes[_routeId].driver == msg.sender */\n      0xffffffffffffffffffffffffffffffffffffffff\n      and\n      eq\n        /* \"blockchain/contracts/RouteRegistry.sol\":4356:4437  require(routes[_routeId].driver == msg.sender, \"Only original driver can update\") */\n      tag_130\n      jumpi\n      mload(0x40)\n      0x08c379a000000000000000000000000000000000000000000000000000000000\n      dup2\n      mstore\n      0x04\n      add\n      tag_131\n      swap1\n      tag_132\n      jump\t// in\n    tag_131:\n      mload(0x40)\n      dup1\n      swap2\n      sub\n      swap1\n      revert\n    tag_130:\n        /* \"blockchain/contracts/RouteRegistry.sol\":4508:4520  _newDataHash */\n      dup3\n        /* \"blockchain/contracts/RouteRegistry.sol\":4480:4486  routes */\n      0x00\n        /* \"blockchain/contracts/RouteRegistry.sol\":4487:4495  _routeId */\n      dup6\n        /* \"blockchain/contracts/RouteRegistry.sol\":4480:4496  routes[_routeId] */\n      mload(0x40)\n      tag_133\n      swap2\n      swap1\n      tag_53\n      jump\t// in\n    tag_133:\n      swap1\n      dup2\n      mstore\n      0x20\n      add\n      mload(0x40)\n      dup1\n      swap2\n      sub\n      swap1\n      keccak256\n        /* \"blockchain/contracts/RouteRegistry.sol\":4480:4505  routes[_routeId].dataHash */\n      0x01\n      add\n        /* \"blockchain/contracts/RouteRegistry.sol\":4480:4520  routes[_routeId].dataHash = _newDataHash */\n      dup2\n      swap1\n      sstore\n      pop\n        /* \"blockchain/contracts/RouteRegistry.sol\":4556:4566  _newStatus */\n      dup2\n        /* \"blockchain/contracts/RouteRegistry.sol\":4530:4536  routes */\n      0x00\n        /* \"blockchain/contracts/RouteRegistry.sol\":4537:4545  _routeId */\n      dup6\n        /* \"blockchain/contracts/RouteRegistry.sol\":4530:4546  routes[_routeId] */\n      mload(0x40)\n      tag_134\n      swap2\n      swap1\n      tag_53\n      jump\t// in\n    tag_134:\n      swap1\n      dup2\n      mstore\n      0x20\n      add\n      mload(0x40)\n      dup1\n      swap2\n      sub\n      swap1\n      keccak256\n        /* \"blockchain/contracts/RouteRegistry.sol\":4530:4553  routes[_routeId].status */\n      0x04\n      add\n        /* \"blockchain/contracts/RouteRegistry.sol\":4530:4566  routes[_routeId].status = _newStatus */\n      swap1\n      dup2\n      tag_135\n      swap2\n      swap1\n      tag_96\n      jump\t// in\n    tag_135:\n      pop\n        /* \"blockchain/contracts/RouteRegistry.sol\":4615:4635  _completedDeliveries */\n      dup1\n        /* \"blockchain/contracts/RouteRegistry.sol\":4576:4582  routes */\n      0x00\n        /* \"blockchain/contracts/RouteRegistry.sol\":4583:4591  _routeId */\n      dup6\n        /* \"blockchain/contracts/RouteRegistry.sol\":4576:4592  routes[_routeId] */\n      mload(0x40)\n      tag_136\n      swap2\n      swap1\n      tag_53\n      jump\t// in\n    tag_136:\n      swap1\n      dup2\n      mstore\n      0x20\n      add\n      mload(0x40)\n      dup1\n      swap2\n      sub\n      swap1\n      keccak256\n        /* \"blockchain/contracts/RouteRegistry.sol\":4576:4612  routes[_routeId].completedDeliveries */\n      0x07\n      add\n        /* \"blockchain/contracts/RouteRegistry.sol\":4576:4635  routes[_routeId].completedDeliveries = _completedDeliveries */\n      dup2\n      swap1\n      sstore\n      pop\n        /* \"blockchain/contracts/RouteRegistry.sol\":4694:4702  _routeId */\n      dup4\n        /* \"blockchain/contracts/RouteRegistry.sol\":4681:4746  RouteUpdated(_routeId, _newDataHash, _newStatus, block.timestamp) */\n      mload(0x40)\n      tag_137\n      swap2\n      swap1\n      tag_53\n      jump\t// in\n    tag_137:\n      mload(0x40)\n      dup1\n      swap2\n      sub\n      swap1\n      keccak256\n      0x271724f27b6d5816a761eaf896bb494fe7b522d450082a5c23c4f932552c6c62\n        /* \"blockchain/contracts/RouteRegistry.sol\":4704:4716  _newDataHash */\n      dup5\n        /* \"blockchain/contracts/RouteRegistry.sol\":4718:4728  _newStatus */\n      dup5\n        /* \"blockchain/contracts/RouteRegistry.sol\":4730:4745  block.timestamp */\n      timestamp\n        /* \"blockchain/contracts/RouteRegistry.sol\":4681:4746  RouteUpdated(_routeId, _newDataHash, _newStatus, block.timestamp) */\n      mload(0x40)\n      tag_138\n      swap4\n      swap3\n      swap2\n      swap1\n      tag_139\n      jump\t// in\n    tag_138:\n      mload(0x40)\n      dup1\n      swap2\n      sub\n      swap1\n      log2\n        /* \"blockchain/contracts/RouteRegistry.sol\":4858:4876  bytes(\"completed\") */\n      mload(0x40)\n      dup1\n      0x40\n      add\n      0x40\n      mstore\n      dup1\n      0x09\n      dup2\n      mstore\n      0x20\n      add\n      0x636f6d706c657465640000000000000000000000000000000000000000000000\n      dup2\n      mstore\n      pop\n        /* \"blockchain/contracts/RouteRegistry.sol\":4848:4877  keccak256(bytes(\"completed\")) */\n      dup1\n      mload\n      swap1\n      0x20\n      add\n      keccak256\n        /* \"blockchain/contracts/RouteRegistry.sol\":4832:4842  _newStatus */\n      dup3\n        /* \"blockchain/contracts/RouteRegistry.sol\":4816:4844  keccak256(bytes(_newStatus)) */\n      dup1\n      mload\n      swap1\n      0x20\n      add\n      keccak256\n        /* \"blockchain/contracts/RouteRegistry.sol\":4816:4877  keccak256(bytes(_newStatus)) == keccak256(bytes(\"completed\")) */\n      sub\n        /* \"blockchain/contracts/RouteRegistry.sol\":4812:5064  if (keccak256(bytes(_newStatus)) == keccak256(bytes(\"completed\"))) {... */\n      tag_140\n      jumpi\n        /* \"blockchain/contracts/RouteRegistry.sol\":4930:4938  _routeId */\n      dup4\n        /* \"blockchain/contracts/RouteRegistry.sol\":4898:5053  RouteCompleted(... */\n      mload(0x40)\n      tag_141\n      swap2\n      swap1\n      tag_53\n      jump\t// in\n    tag_141:\n      mload(0x40)\n      dup1\n      swap2\n      sub\n      swap1\n      keccak256\n      0xd290cdb2c9d5693b27ddc7d98e4d18cb82a75b991ef8022bcf438c214be7bce5\n        /* \"blockchain/contracts/RouteRegistry.sol\":4956:4968  _newDataHash */\n      dup5\n        /* \"blockchain/contracts/RouteRegistry.sol\":4986:5006  _completedDeliveries */\n      dup4\n        /* \"blockchain/contracts/RouteRegistry.sol\":5024:5039  block.timestamp */\n      timestamp\n        /* \"blockchain/contracts/RouteRegistry.sol\":4898:5053  RouteCompleted(... */\n      mload(0x40)\n      tag_142\n      swap4\n      swap3\n      swap2\n      swap1\n      tag_143\n      jump\t// in\n    tag_142:\n      mload(0x40)\n      dup1\n      swap2\n      sub\n      swap1\n      log2\n        /* \"blockchain/contracts/RouteRegistry.sol\":4812:5064  if (keccak256(bytes(_newStatus)) == keccak256(bytes(\"completed\"))) {... */\n    tag_140:\n        /* \"blockchain/contracts/RouteRegistry.sol\":3969:5070  function updateRoute(... */\n      pop\n      pop\n      pop\n      pop\n      jump\t// out\n        /* \"#utility.yul\":7:82   */\n    tag_144:\n        /* \"#utility.yul\":40:46   */\n      0x00\n        /* \"#utility.yul\":73:75   */\n      0x40\n        /* \"#utility.yul\":67:76   */\n      mload\n        /* \"#utility.yul\":57:76   */\n      swap1\n      pop\n        /* \"#utility.yul\":7:82   */\n      swap1\n      jump\t// out\n        /* \"#utility.yul\":88:205   */\n    tag_145:\n        /* \"#utility.yul\":197:198   */\n      0x00\n        /* \"#utility.yul\":194:195   */\n      0x00\n        /* \"#utility.yul\":187:199   */\n      revert\n        /* \"#utility.yul\":211:328   */\n    tag_146:\n        /* \"#utility.yul\":320:321   */\n      0x00\n        /* \"#utility.yul\":317:318   */\n      0x00\n        /* \"#utility.yul\":310:322   */\n      revert\n        /* \"#utility.yul\":334:451   */\n    tag_147:\n        /* \"#utility.yul\":443:444   */\n      0x00\n        /* \"#utility.yul\":440:441   */\n      0x00\n        /* \"#utility.yul\":433:445   */\n      revert\n        /* \"#utility.yul\":457:574   */\n    tag_148:\n        /* \"#utility.yul\":566:567   */\n      0x00\n        /* \"#utility.yul\":563:564   */\n      0x00\n        /* \"#utility.yul\":556:568   */\n      revert\n        /* \"#utility.yul\":580:682   */\n    tag_149:\n        /* \"#utility.yul\":621:627   */\n      0x00\n        /* \"#utility.yul\":672:674   */\n      0x1f\n        /* \"#utility.yul\":668:675   */\n      not\n        /* \"#utility.yul\":663:665   */\n      0x1f\n        /* \"#utility.yul\":656:661   */\n      dup4\n        /* \"#utility.yul\":652:666   */\n      add\n        /* \"#utility.yul\":648:676   */\n      and\n        /* \"#utility.yul\":638:676   */\n      swap1\n      pop\n        /* \"#utility.yul\":580:682   */\n      swap2\n      swap1\n      pop\n      jump\t// out\n        /* \"#utility.yul\":688:868   */\n    tag_150:\n        /* \"#utility.yul\":736:813   */\n      0x4e487b7100000000000000000000000000000000000000000000000000000000\n        /* \"#utility.yul\":733:734   */\n      0x00\n        /* \"#utility.yul\":726:814   */\n      mstore\n        /* \"#utility.yul\":833:837   */\n      0x41\n        /* \"#utility.yul\":830:831   */\n      0x04\n        /* \"#utility.yul\":823:838   */\n      mstore\n        /* \"#utility.yul\":857:861   */\n      0x24\n        /* \"#utility.yul\":854:855   */\n      0x00\n        /* \"#utility.yul\":847:862   */\n      revert\n        /* \"#utility.yul\":874:1155   */\n    tag_151:\n        /* \"#utility.yul\":957:984   */\n      tag_213\n        /* \"#utility.yul\":979:983   */\n      dup3\n        /* \"#utility.yul\":957:984   */\n      tag_149\n      jump\t// in\n    tag_213:\n        /* \"#utility.yul\":949:955   */\n      dup2\n        /* \"#utility.yul\":945:985   */\n      add\n        /* \"#utility.yul\":1087:1093   */\n      dup2\n        /* \"#utility.yul\":1075:1085   */\n      dup2\n        /* \"#utility.yul\":1072:1094   */\n      lt\n        /* \"#utility.yul\":1051:1069   */\n      0xffffffffffffffff\n        /* \"#utility.yul\":1039:1049   */\n      dup3\n        /* \"#utility.yul\":1036:1070   */\n      gt\n        /* \"#utility.yul\":1033:1095   */\n      or\n        /* \"#utility.yul\":1030:1118   */\n      iszero\n      tag_214\n      jumpi\n        /* \"#utility.yul\":1098:1116   */\n      tag_215\n      tag_150\n      jump\t// in\n    tag_215:\n        /* \"#utility.yul\":1030:1118   */\n    tag_214:\n        /* \"#utility.yul\":1138:1148   */\n      dup1\n        /* \"#utility.yul\":1134:1136   */\n      0x40\n        /* \"#utility.yul\":1127:1149   */\n      mstore\n        /* \"#utility.yul\":917:1155   */\n      pop\n        /* \"#utility.yul\":874:1155   */\n      pop\n      pop\n      jump\t// out\n        /* \"#utility.yul\":1161:1290   */\n    tag_152:\n        /* \"#utility.yul\":1195:1201   */\n      0x00\n        /* \"#utility.yul\":1222:1242   */\n      tag_217\n      tag_144\n      jump\t// in\n    tag_217:\n        /* \"#utility.yul\":1212:1242   */\n      swap1\n      pop\n        /* \"#utility.yul\":1251:1284   */\n      tag_218\n        /* \"#utility.yul\":1279:1283   */\n      dup3\n        /* \"#utility.yul\":1271:1277   */\n      dup3\n        /* \"#utility.yul\":1251:1284   */\n      tag_151\n      jump\t// in\n    tag_218:\n        /* \"#utility.yul\":1161:1290   */\n      swap2\n      swap1\n      pop\n      jump\t// out\n        /* \"#utility.yul\":1296:1604   */\n    tag_153:\n        /* \"#utility.yul\":1358:1362   */\n      0x00\n        /* \"#utility.yul\":1448:1466   */\n      0xffffffffffffffff\n        /* \"#utility.yul\":1440:1446   */\n      dup3\n        /* \"#utility.yul\":1437:1467   */\n      gt\n        /* \"#utility.yul\":1434:1490   */\n      iszero\n      tag_220\n      jumpi\n        /* \"#utility.yul\":1470:1488   */\n      tag_221\n      tag_150\n      jump\t// in\n    tag_221:\n        /* \"#utility.yul\":1434:1490   */\n    tag_220:\n        /* \"#utility.yul\":1508:1537   */\n      tag_222\n        /* \"#utility.yul\":1530:1536   */\n      dup3\n        /* \"#utility.yul\":1508:1537   */\n      tag_149\n      jump\t// in\n    tag_222:\n        /* \"#utility.yul\":1500:1537   */\n      swap1\n      pop\n        /* \"#utility.yul\":1592:1596   */\n      0x20\n        /* \"#utility.yul\":1586:1590   */\n      dup2\n        /* \"#utility.yul\":1582:1597   */\n      add\n        /* \"#utility.yul\":1574:1597   */\n      swap1\n      pop\n        /* \"#utility.yul\":1296:1604   */\n      swap2\n      swap1\n      pop\n      jump\t// out\n        /* \"#utility.yul\":1610:1758   */\n    tag_154:\n        /* \"#utility.yul\":1708:1714   */\n      dup3\n        /* \"#utility.yul\":1703:1706   */\n      dup2\n        /* \"#utility.yul\":1698:1701   */\n      dup4\n        /* \"#utility.yul\":1685:1715   */\n      calldatacopy\n        /* \"#utility.yul\":1749:1750   */\n      0x00\n        /* \"#utility.yul\":1740:1746   */\n      dup4\n        /* \"#utility.yul\":1735:1738   */\n      dup4\n        /* \"#utility.yul\":1731:1747   */\n      add\n        /* \"#utility.yul\":1724:1751   */\n      mstore\n        /* \"#utility.yul\":1610:1758   */\n      pop\n      pop\n      pop\n      jump\t// out\n        /* \"#utility.yul\":1764:2189   */\n    tag_155:\n        /* \"#utility.yul\":1842:1847   */\n      0x00\n        /* \"#utility.yul\":1867:1933   */\n      tag_225\n        /* \"#utility.yul\":1883:1932   */\n      tag_226\n        /* \"#utility.yul\":1925:1931   */\n      dup5\n        /* \"#utility.yul\":1883:1932   */\n      tag_153\n      jump\t// in\n    tag_226:\n        /* \"#utility.yul\":1867:1933   */\n      tag_152\n      jump\t// in\n    tag_225:\n        /* \"#utility.yul\":1858:1933   */\n      swap1\n      pop\n        /* \"#utility.yul\":1956:1962   */\n      dup3\n        /* \"#utility.yul\":1949:1954   */\n      dup2\n        /* \"#utility.yul\":1942:1963   */\n      mstore\n        /* \"#utility.yul\":1994:1998   */\n      0x20\n        /* \"#utility.yul\":1987:1992   */\n      dup2\n        /* \"#utility.yul\":1983:1999   */\n      add\n        /* \"#utility.yul\":2032:2035   */\n      dup5\n        /* \"#utility.yul\":2023:2029   */\n      dup5\n        /* \"#utility.yul\":2018:2021   */\n      dup5\n        /* \"#utility.yul\":2014:2030   */\n      add\n        /* \"#utility.yul\":2011:2036   */\n      gt\n        /* \"#utility.yul\":2008:2120   */\n      iszero\n      tag_227\n      jumpi\n        /* \"#utility.yul\":2039:2118   */\n      tag_228\n      tag_148\n      jump\t// in\n    tag_228:\n        /* \"#utility.yul\":2008:2120   */\n    tag_227:\n        /* \"#utility.yul\":2129:2183   */\n      tag_229\n        /* \"#utility.yul\":2176:2182   */\n      dup5\n        /* \"#utility.yul\":2171:2174   */\n      dup3\n        /* \"#utility.yul\":2166:2169   */\n      dup6\n        /* \"#utility.yul\":2129:2183   */\n      tag_154\n      jump\t// in\n    tag_229:\n        /* \"#utility.yul\":1848:2189   */\n      pop\n        /* \"#utility.yul\":1764:2189   */\n      swap4\n      swap3\n      pop\n      pop\n      pop\n      jump\t// out\n        /* \"#utility.yul\":2209:2549   */\n    tag_156:\n        /* \"#utility.yul\":2265:2270   */\n      0x00\n        /* \"#utility.yul\":2314:2317   */\n      dup3\n        /* \"#utility.yul\":2307:2311   */\n      0x1f\n        /* \"#utility.yul\":2299:2305   */\n      dup4\n        /* \"#utility.yul\":2295:2312   */\n      add\n        /* \"#utility.yul\":2291:2318   */\n      slt\n        /* \"#utility.yul\":2281:2403   */\n      tag_231\n      jumpi\n        /* \"#utility.yul\":2322:2401   */\n      tag_232\n      tag_147\n      jump\t// in\n    tag_232:\n        /* \"#utility.yul\":2281:2403   */\n    tag_231:\n        /* \"#utility.yul\":2439:2445   */\n      dup2\n        /* \"#utility.yul\":2426:2446   */\n      calldataload\n        /* \"#utility.yul\":2464:2543   */\n      tag_233\n        /* \"#utility.yul\":2539:2542   */\n      dup5\n        /* \"#utility.yul\":2531:2537   */\n      dup3\n        /* \"#utility.yul\":2524:2528   */\n      0x20\n        /* \"#utility.yul\":2516:2522   */\n      dup7\n        /* \"#utility.yul\":2512:2529   */\n      add\n        /* \"#utility.yul\":2464:2543   */\n      tag_155\n      jump\t// in\n    tag_233:\n        /* \"#utility.yul\":2455:2543   */\n      swap2\n      pop\n        /* \"#utility.yul\":2271:2549   */\n      pop\n        /* \"#utility.yul\":2209:2549   */\n      swap3\n      swap2\n      pop\n      pop\n      jump\t// out\n        /* \"#utility.yul\":2555:3064   */\n    tag_14:\n        /* \"#utility.yul\":2624:2630   */\n      0x00\n        /* \"#utility.yul\":2673:2675   */\n      0x20\n        /* \"#utility.yul\":2661:2670   */\n      dup3\n        /* \"#utility.yul\":2652:2659   */\n      dup5\n        /* \"#utility.yul\":2648:2671   */\n      sub\n        /* \"#utility.yul\":2644:2676   */\n      slt\n        /* \"#utility.yul\":2641:2760   */\n      iszero\n      tag_235\n      jumpi\n        /* \"#utility.yul\":2679:2758   */\n      tag_236\n      tag_145\n      jump\t// in\n    tag_236:\n        /* \"#utility.yul\":2641:2760   */\n    tag_235:\n        /* \"#utility.yul\":2827:2828   */\n      0x00\n        /* \"#utility.yul\":2816:2825   */\n      dup3\n        /* \"#utility.yul\":2812:2829   */\n      add\n        /* \"#utility.yul\":2799:2830   */\n      calldataload\n        /* \"#utility.yul\":2857:2875   */\n      0xffffffffffffffff\n        /* \"#utility.yul\":2849:2855   */\n      dup2\n        /* \"#utility.yul\":2846:2876   */\n      gt\n        /* \"#utility.yul\":2843:2960   */\n      iszero\n      tag_237\n      jumpi\n        /* \"#utility.yul\":2879:2958   */\n      tag_238\n      tag_146\n      jump\t// in\n    tag_238:\n        /* \"#utility.yul\":2843:2960   */\n    tag_237:\n        /* \"#utility.yul\":2984:3047   */\n      tag_239\n        /* \"#utility.yul\":3039:3046   */\n      dup5\n        /* \"#utility.yul\":3030:3036   */\n      dup3\n        /* \"#utility.yul\":3019:3028   */\n      dup6\n        /* \"#utility.yul\":3015:3037   */\n      add\n        /* \"#utility.yul\":2984:3047   */\n      tag_156\n      jump\t// in\n    tag_239:\n        /* \"#utility.yul\":2974:3047   */\n      swap2\n      pop\n        /* \"#utility.yul\":2770:3057   */\n      pop\n        /* \"#utility.yul\":2555:3064   */\n      swap3\n      swap2\n      pop\n      pop\n      jump\t// out\n        /* \"#utility.yul\":3070:3169   */\n    tag_157:\n        /* \"#utility.yul\":3122:3128   */\n      0x00\n        /* \"#utility.yul\":3156:3161   */\n      dup2\n        /* \"#utility.yul\":3150:3162   */\n      mload\n        /* \"#utility.yul\":3140:3162   */\n      swap1\n      pop\n        /* \"#utility.yul\":3070:3169   */\n      swap2\n      swap1\n      pop\n      jump\t// out\n        /* \"#utility.yul\":3175:3344   */\n    tag_158:\n        /* \"#utility.yul\":3259:3270   */\n      0x00\n        /* \"#utility.yul\":3293:3299   */\n      dup3\n        /* \"#utility.yul\":3288:3291   */\n      dup3\n        /* \"#utility.yul\":3281:3300   */\n      mstore\n        /* \"#utility.yul\":3333:3337   */\n      0x20\n        /* \"#utility.yul\":3328:3331   */\n      dup3\n        /* \"#utility.yul\":3324:3338   */\n      add\n        /* \"#utility.yul\":3309:3338   */\n      swap1\n      pop\n        /* \"#utility.yul\":3175:3344   */\n      swap3\n      swap2\n      pop\n      pop\n      jump\t// out\n        /* \"#utility.yul\":3350:3489   */\n    tag_159:\n        /* \"#utility.yul\":3439:3445   */\n      dup3\n        /* \"#utility.yul\":3434:3437   */\n      dup2\n        /* \"#utility.yul\":3429:3432   */\n      dup4\n        /* \"#utility.yul\":3423:3446   */\n      mcopy\n        /* \"#utility.yul\":3480:3481   */\n      0x00\n        /* \"#utility.yul\":3471:3477   */\n      dup4\n        /* \"#utility.yul\":3466:3469   */\n      dup4\n        /* \"#utility.yul\":3462:3478   */\n      add\n        /* \"#utility.yul\":3455:3482   */\n      mstore\n        /* \"#utility.yul\":3350:3489   */\n      pop\n      pop\n      pop\n      jump\t// out\n        /* \"#utility.yul\":3495:3872   */\n    tag_160:\n        /* \"#utility.yul\":3583:3586   */\n      0x00\n        /* \"#utility.yul\":3611:3650   */\n      tag_244\n        /* \"#utility.yul\":3644:3649   */\n      dup3\n        /* \"#utility.yul\":3611:3650   */\n      tag_157\n      jump\t// in\n    tag_244:\n        /* \"#utility.yul\":3666:3737   */\n      tag_245\n        /* \"#utility.yul\":3730:3736   */\n      dup2\n        /* \"#utility.yul\":3725:3728   */\n      dup6\n        /* \"#utility.yul\":3666:3737   */\n      tag_158\n      jump\t// in\n    tag_245:\n        /* \"#utility.yul\":3659:3737   */\n      swap4\n      pop\n        /* \"#utility.yul\":3746:3811   */\n      tag_246\n        /* \"#utility.yul\":3804:3810   */\n      dup2\n        /* \"#utility.yul\":3799:3802   */\n      dup6\n        /* \"#utility.yul\":3792:3796   */\n      0x20\n        /* \"#utility.yul\":3785:3790   */\n      dup7\n        /* \"#utility.yul\":3781:3797   */\n      add\n        /* \"#utility.yul\":3746:3811   */\n      tag_159\n      jump\t// in\n    tag_246:\n        /* \"#utility.yul\":3836:3865   */\n      tag_247\n        /* \"#utility.yul\":3858:3864   */\n      dup2\n        /* \"#utility.yul\":3836:3865   */\n      tag_149\n      jump\t// in\n    tag_247:\n        /* \"#utility.yul\":3831:3834   */\n      dup5\n        /* \"#utility.yul\":3827:3866   */\n      add\n        /* \"#utility.yul\":3820:3866   */\n      swap2\n      pop\n        /* \"#utility.yul\":3587:3872   */\n      pop\n        /* \"#utility.yul\":3495:3872   */\n      swap3\n      swap2\n      pop\n      pop\n      jump\t// out\n        /* \"#utility.yul\":3878:3955   */\n    tag_161:\n        /* \"#utility.yul\":3915:3922   */\n      0x00\n        /* \"#utility.yul\":3944:3949   */\n      dup2\n        /* \"#utility.yul\":3933:3949   */\n      swap1\n      pop\n        /* \"#utility.yul\":3878:3955   */\n      swap2\n      swap1\n      pop\n      jump\t// out\n        /* \"#utility.yul\":3961:4079   */\n    tag_162:\n        /* \"#utility.yul\":4048:4072   */\n      tag_250\n        /* \"#utility.yul\":4066:4071   */\n      dup2\n        /* \"#utility.yul\":4048:4072   */\n      tag_161\n      jump\t// in\n    tag_250:\n        /* \"#utility.yul\":4043:4046   */\n      dup3\n        /* \"#utility.yul\":4036:4073   */\n      mstore\n        /* \"#utility.yul\":3961:4079   */\n      pop\n      pop\n      jump\t// out\n        /* \"#utility.yul\":4085:4162   */\n    tag_163:\n        /* \"#utility.yul\":4122:4129   */\n      0x00\n        /* \"#utility.yul\":4151:4156   */\n      dup2\n        /* \"#utility.yul\":4140:4156   */\n      swap1\n      pop\n        /* \"#utility.yul\":4085:4162   */\n      swap2\n      swap1\n      pop\n      jump\t// out\n        /* \"#utility.yul\":4168:4286   */\n    tag_164:\n        /* \"#utility.yul\":4255:4279   */\n      tag_253\n        /* \"#utility.yul\":4273:4278   */\n      dup2\n        /* \"#utility.yul\":4255:4279   */\n      tag_163\n      jump\t// in\n    tag_253:\n        /* \"#utility.yul\":4250:4253   */\n      dup3\n        /* \"#utility.yul\":4243:4280   */\n      mstore\n        /* \"#utility.yul\":4168:4286   */\n      pop\n      pop\n      jump\t// out\n        /* \"#utility.yul\":4292:4418   */\n    tag_165:\n        /* \"#utility.yul\":4329:4336   */\n      0x00\n        /* \"#utility.yul\":4369:4411   */\n      0xffffffffffffffffffffffffffffffffffffffff\n        /* \"#utility.yul\":4362:4367   */\n      dup3\n        /* \"#utility.yul\":4358:4412   */\n      and\n        /* \"#utility.yul\":4347:4412   */\n      swap1\n      pop\n        /* \"#utility.yul\":4292:4418   */\n      swap2\n      swap1\n      pop\n      jump\t// out\n        /* \"#utility.yul\":4424:4520   */\n    tag_166:\n        /* \"#utility.yul\":4461:4468   */\n      0x00\n        /* \"#utility.yul\":4490:4514   */\n      tag_256\n        /* \"#utility.yul\":4508:4513   */\n      dup3\n        /* \"#utility.yul\":4490:4514   */\n      tag_165\n      jump\t// in\n    tag_256:\n        /* \"#utility.yul\":4479:4514   */\n      swap1\n      pop\n        /* \"#utility.yul\":4424:4520   */\n      swap2\n      swap1\n      pop\n      jump\t// out\n        /* \"#utility.yul\":4526:4644   */\n    tag_167:\n        /* \"#utility.yul\":4613:4637   */\n      tag_258\n        /* \"#utility.yul\":4631:4636   */\n      dup2\n        /* \"#utility.yul\":4613:4637   */\n      tag_166\n      jump\t// in\n    tag_258:\n        /* \"#utility.yul\":4608:4611   */\n      dup3\n        /* \"#utility.yul\":4601:4638   */\n      mstore\n        /* \"#utility.yul\":4526:4644   */\n      pop\n      pop\n      jump\t// out\n        /* \"#utility.yul\":4650:5829   */\n    tag_17:\n        /* \"#utility.yul\":4979:4983   */\n      0x00\n        /* \"#utility.yul\":5017:5020   */\n      0x0100\n        /* \"#utility.yul\":5006:5015   */\n      dup3\n        /* \"#utility.yul\":5002:5021   */\n      add\n        /* \"#utility.yul\":4994:5021   */\n      swap1\n      pop\n        /* \"#utility.yul\":5067:5076   */\n      dup2\n        /* \"#utility.yul\":5061:5065   */\n      dup2\n        /* \"#utility.yul\":5057:5077   */\n      sub\n        /* \"#utility.yul\":5053:5054   */\n      0x00\n        /* \"#utility.yul\":5042:5051   */\n      dup4\n        /* \"#utility.yul\":5038:5055   */\n      add\n        /* \"#utility.yul\":5031:5078   */\n      mstore\n        /* \"#utility.yul\":5095:5173   */\n      tag_260\n        /* \"#utility.yul\":5168:5172   */\n      dup2\n        /* \"#utility.yul\":5159:5165   */\n      dup12\n        /* \"#utility.yul\":5095:5173   */\n      tag_160\n      jump\t// in\n    tag_260:\n        /* \"#utility.yul\":5087:5173   */\n      swap1\n      pop\n        /* \"#utility.yul\":5183:5255   */\n      tag_261\n        /* \"#utility.yul\":5251:5253   */\n      0x20\n        /* \"#utility.yul\":5240:5249   */\n      dup4\n        /* \"#utility.yul\":5236:5254   */\n      add\n        /* \"#utility.yul\":5227:5233   */\n      dup11\n        /* \"#utility.yul\":5183:5255   */\n      tag_162\n      jump\t// in\n    tag_261:\n        /* \"#utility.yul\":5265:5337   */\n      tag_262\n        /* \"#utility.yul\":5333:5335   */\n      0x40\n        /* \"#utility.yul\":5322:5331   */\n      dup4\n        /* \"#utility.yul\":5318:5336   */\n      add\n        /* \"#utility.yul\":5309:5315   */\n      dup10\n        /* \"#utility.yul\":5265:5337   */\n      tag_164\n      jump\t// in\n    tag_262:\n        /* \"#utility.yul\":5347:5419   */\n      tag_263\n        /* \"#utility.yul\":5415:5417   */\n      0x60\n        /* \"#utility.yul\":5404:5413   */\n      dup4\n        /* \"#utility.yul\":5400:5418   */\n      add\n        /* \"#utility.yul\":5391:5397   */\n      dup9\n        /* \"#utility.yul\":5347:5419   */\n      tag_167\n      jump\t// in\n    tag_263:\n        /* \"#utility.yul\":5467:5476   */\n      dup2\n        /* \"#utility.yul\":5461:5465   */\n      dup2\n        /* \"#utility.yul\":5457:5477   */\n      sub\n        /* \"#utility.yul\":5451:5454   */\n      0x80\n        /* \"#utility.yul\":5440:5449   */\n      dup4\n        /* \"#utility.yul\":5436:5455   */\n      add\n        /* \"#utility.yul\":5429:5478   */\n      mstore\n        /* \"#utility.yul\":5495:5573   */\n      tag_264\n        /* \"#utility.yul\":5568:5572   */\n      dup2\n        /* \"#utility.yul\":5559:5565   */\n      dup8\n        /* \"#utility.yul\":5495:5573   */\n      tag_160\n      jump\t// in\n    tag_264:\n        /* \"#utility.yul\":5487:5573   */\n      swap1\n      pop\n        /* \"#utility.yul\":5583:5656   */\n      tag_265\n        /* \"#utility.yul\":5651:5654   */\n      0xa0\n        /* \"#utility.yul\":5640:5649   */\n      dup4\n        /* \"#utility.yul\":5636:5655   */\n      add\n        /* \"#utility.yul\":5627:5633   */\n      dup7\n        /* \"#utility.yul\":5583:5656   */\n      tag_164\n      jump\t// in\n    tag_265:\n        /* \"#utility.yul\":5666:5739   */\n      tag_266\n        /* \"#utility.yul\":5734:5737   */\n      0xc0\n        /* \"#utility.yul\":5723:5732   */\n      dup4\n        /* \"#utility.yul\":5719:5738   */\n      add\n        /* \"#utility.yul\":5710:5716   */\n      dup6\n        /* \"#utility.yul\":5666:5739   */\n      tag_164\n      jump\t// in\n    tag_266:\n        /* \"#utility.yul\":5749:5822   */\n      tag_267\n        /* \"#utility.yul\":5817:5820   */\n      0xe0\n        /* \"#utility.yul\":5806:5815   */\n      dup4\n        /* \"#utility.yul\":5802:5821   */\n      add\n        /* \"#utility.yul\":5793:5799   */\n      dup5\n        /* \"#utility.yul\":5749:5822   */\n      tag_164\n      jump\t// in\n    tag_267:\n        /* \"#utility.yul\":4650:5829   */\n      swap10\n      swap9\n      pop\n      pop\n      pop\n      pop\n      pop\n      pop\n      pop\n      pop\n      pop\n      jump\t// out\n        /* \"#utility.yul\":5835:6057   */\n    tag_21:\n        /* \"#utility.yul\":5928:5932   */\n      0x00\n        /* \"#utility.yul\":5966:5968   */\n      0x20\n        /* \"#utility.yul\":5955:5964   */\n      dup3\n        /* \"#utility.yul\":5951:5969   */\n      add\n        /* \"#utility.yul\":5943:5969   */\n      swap1\n      pop\n        /* \"#utility.yul\":5979:6050   */\n      tag_269\n        /* \"#utility.yul\":6047:6048   */\n      0x00\n        /* \"#utility.yul\":6036:6045   */\n      dup4\n        /* \"#utility.yul\":6032:6049   */\n      add\n        /* \"#utility.yul\":6023:6029   */\n      dup5\n        /* \"#utility.yul\":5979:6050   */\n      tag_164\n      jump\t// in\n    tag_269:\n        /* \"#utility.yul\":5835:6057   */\n      swap3\n      swap2\n      pop\n      pop\n      jump\t// out\n        /* \"#utility.yul\":6063:6185   */\n    tag_168:\n        /* \"#utility.yul\":6136:6160   */\n      tag_271\n        /* \"#utility.yul\":6154:6159   */\n      dup2\n        /* \"#utility.yul\":6136:6160   */\n      tag_163\n      jump\t// in\n    tag_271:\n        /* \"#utility.yul\":6129:6134   */\n      dup2\n        /* \"#utility.yul\":6126:6161   */\n      eq\n        /* \"#utility.yul\":6116:6179   */\n      tag_272\n      jumpi\n        /* \"#utility.yul\":6175:6176   */\n      0x00\n        /* \"#utility.yul\":6172:6173   */\n      0x00\n        /* \"#utility.yul\":6165:6177   */\n      revert\n        /* \"#utility.yul\":6116:6179   */\n    tag_272:\n        /* \"#utility.yul\":6063:6185   */\n      pop\n      jump\t// out\n        /* \"#utility.yul\":6191:6330   */\n    tag_169:\n        /* \"#utility.yul\":6237:6242   */\n      0x00\n        /* \"#utility.yul\":6275:6281   */\n      dup2\n        /* \"#utility.yul\":6262:6282   */\n      calldataload\n        /* \"#utility.yul\":6253:6282   */\n      swap1\n      pop\n        /* \"#utility.yul\":6291:6324   */\n      tag_274\n        /* \"#utility.yul\":6318:6323   */\n      dup2\n        /* \"#utility.yul\":6291:6324   */\n      tag_168\n      jump\t// in\n    tag_274:\n        /* \"#utility.yul\":6191:6330   */\n      swap3\n      swap2\n      pop\n      pop\n      jump\t// out\n        /* \"#utility.yul\":6336:6665   */\n    tag_24:\n        /* \"#utility.yul\":6395:6401   */\n      0x00\n        /* \"#utility.yul\":6444:6446   */\n      0x20\n        /* \"#utility.yul\":6432:6441   */\n      dup3\n        /* \"#utility.yul\":6423:6430   */\n      dup5\n        /* \"#utility.yul\":6419:6442   */\n      sub\n        /* \"#utility.yul\":6415:6447   */\n      slt\n        /* \"#utility.yul\":6412:6531   */\n      iszero\n      tag_276\n      jumpi\n        /* \"#utility.yul\":6450:6529   */\n      tag_277\n      tag_145\n      jump\t// in\n    tag_277:\n        /* \"#utility.yul\":6412:6531   */\n    tag_276:\n        /* \"#utility.yul\":6570:6571   */\n      0x00\n        /* \"#utility.yul\":6595:6648   */\n      tag_278\n        /* \"#utility.yul\":6640:6647   */\n      dup5\n        /* \"#utility.yul\":6631:6637   */\n      dup3\n        /* \"#utility.yul\":6620:6629   */\n      dup6\n        /* \"#utility.yul\":6616:6638   */\n      add\n        /* \"#utility.yul\":6595:6648   */\n      tag_169\n      jump\t// in\n    tag_278:\n        /* \"#utility.yul\":6585:6648   */\n      swap2\n      pop\n        /* \"#utility.yul\":6541:6658   */\n      pop\n        /* \"#utility.yul\":6336:6665   */\n      swap3\n      swap2\n      pop\n      pop\n      jump\t// out\n        /* \"#utility.yul\":6671:6984   */\n    tag_27:\n        /* \"#utility.yul\":6784:6788   */\n      0x00\n        /* \"#utility.yul\":6822:6824   */\n      0x20\n        /* \"#utility.yul\":6811:6820   */\n      dup3\n        /* \"#utility.yul\":6807:6825   */\n      add\n        /* \"#utility.yul\":6799:6825   */\n      swap1\n      pop\n        /* \"#utility.yul\":6871:6880   */\n      dup2\n        /* \"#utility.yul\":6865:6869   */\n      dup2\n        /* \"#utility.yul\":6861:6881   */\n      sub\n        /* \"#utility.yul\":6857:6858   */\n      0x00\n        /* \"#utility.yul\":6846:6855   */\n      dup4\n        /* \"#utility.yul\":6842:6859   */\n      add\n        /* \"#utility.yul\":6835:6882   */\n      mstore\n        /* \"#utility.yul\":6899:6977   */\n      tag_280\n        /* \"#utility.yul\":6972:6976   */\n      dup2\n        /* \"#utility.yul\":6963:6969   */\n      dup5\n        /* \"#utility.yul\":6899:6977   */\n      tag_160\n      jump\t// in\n    tag_280:\n        /* \"#utility.yul\":6891:6977   */\n      swap1\n      pop\n        /* \"#utility.yul\":6671:6984   */\n      swap3\n      swap2\n      pop\n      pop\n      jump\t// out\n        /* \"#utility.yul\":6990:7112   */\n    tag_170:\n        /* \"#utility.yul\":7063:7087   */\n      tag_282\n        /* \"#utility.yul\":7081:7086   */\n      dup2\n        /* \"#utility.yul\":7063:7087   */\n      tag_161\n      jump\t// in\n    tag_282:\n        /* \"#utility.yul\":7056:7061   */\n      dup2\n        /* \"#utility.yul\":7053:7088   */\n      eq\n        /* \"#utility.yul\":7043:7106   */\n      tag_283\n      jumpi\n        /* \"#utility.yul\":7102:7103   */\n      0x00\n        /* \"#utility.yul\":7099:7100   */\n      0x00\n        /* \"#utility.yul\":7092:7104   */\n      revert\n        /* \"#utility.yul\":7043:7106   */\n    tag_283:\n        /* \"#utility.yul\":6990:7112   */\n      pop\n      jump\t// out\n        /* \"#utility.yul\":7118:7257   */\n    tag_171:\n        /* \"#utility.yul\":7164:7169   */\n      0x00\n        /* \"#utility.yul\":7202:7208   */\n      dup2\n        /* \"#utility.yul\":7189:7209   */\n      calldataload\n        /* \"#utility.yul\":7180:7209   */\n      swap1\n      pop\n        /* \"#utility.yul\":7218:7251   */\n      tag_285\n        /* \"#utility.yul\":7245:7250   */\n      dup2\n        /* \"#utility.yul\":7218:7251   */\n      tag_170\n      jump\t// in\n    tag_285:\n        /* \"#utility.yul\":7118:7257   */\n      swap3\n      swap2\n      pop\n      pop\n      jump\t// out\n        /* \"#utility.yul\":7263:8534   */\n    tag_30:\n        /* \"#utility.yul\":7378:7384   */\n      0x00\n        /* \"#utility.yul\":7386:7392   */\n      0x00\n        /* \"#utility.yul\":7394:7400   */\n      0x00\n        /* \"#utility.yul\":7402:7408   */\n      0x00\n        /* \"#utility.yul\":7410:7416   */\n      0x00\n        /* \"#utility.yul\":7459:7462   */\n      0xa0\n        /* \"#utility.yul\":7447:7456   */\n      dup7\n        /* \"#utility.yul\":7438:7445   */\n      dup9\n        /* \"#utility.yul\":7434:7457   */\n      sub\n        /* \"#utility.yul\":7430:7463   */\n      slt\n        /* \"#utility.yul\":7427:7547   */\n      iszero\n      tag_287\n      jumpi\n        /* \"#utility.yul\":7466:7545   */\n      tag_288\n      tag_145\n      jump\t// in\n    tag_288:\n        /* \"#utility.yul\":7427:7547   */\n    tag_287:\n        /* \"#utility.yul\":7614:7615   */\n      0x00\n        /* \"#utility.yul\":7603:7612   */\n      dup7\n        /* \"#utility.yul\":7599:7616   */\n      add\n        /* \"#utility.yul\":7586:7617   */\n      calldataload\n        /* \"#utility.yul\":7644:7662   */\n      0xffffffffffffffff\n        /* \"#utility.yul\":7636:7642   */\n      dup2\n        /* \"#utility.yul\":7633:7663   */\n      gt\n        /* \"#utility.yul\":7630:7747   */\n      iszero\n      tag_289\n      jumpi\n        /* \"#utility.yul\":7666:7745   */\n      tag_290\n      tag_146\n      jump\t// in\n    tag_290:\n        /* \"#utility.yul\":7630:7747   */\n    tag_289:\n        /* \"#utility.yul\":7771:7834   */\n      tag_291\n        /* \"#utility.yul\":7826:7833   */\n      dup9\n        /* \"#utility.yul\":7817:7823   */\n      dup3\n        /* \"#utility.yul\":7806:7815   */\n      dup10\n        /* \"#utility.yul\":7802:7824   */\n      add\n        /* \"#utility.yul\":7771:7834   */\n      tag_156\n      jump\t// in\n    tag_291:\n        /* \"#utility.yul\":7761:7834   */\n      swap6\n      pop\n        /* \"#utility.yul\":7557:7844   */\n      pop\n        /* \"#utility.yul\":7883:7885   */\n      0x20\n        /* \"#utility.yul\":7909:7962   */\n      tag_292\n        /* \"#utility.yul\":7954:7961   */\n      dup9\n        /* \"#utility.yul\":7945:7951   */\n      dup3\n        /* \"#utility.yul\":7934:7943   */\n      dup10\n        /* \"#utility.yul\":7930:7952   */\n      add\n        /* \"#utility.yul\":7909:7962   */\n      tag_171\n      jump\t// in\n    tag_292:\n        /* \"#utility.yul\":7899:7962   */\n      swap5\n      pop\n        /* \"#utility.yul\":7854:7972   */\n      pop\n        /* \"#utility.yul\":8039:8041   */\n      0x40\n        /* \"#utility.yul\":8028:8037   */\n      dup7\n        /* \"#utility.yul\":8024:8042   */\n      add\n        /* \"#utility.yul\":8011:8043   */\n      calldataload\n        /* \"#utility.yul\":8070:8088   */\n      0xffffffffffffffff\n        /* \"#utility.yul\":8062:8068   */\n      dup2\n        /* \"#utility.yul\":8059:8089   */\n      gt\n        /* \"#utility.yul\":8056:8173   */\n      iszero\n      tag_293\n      jumpi\n        /* \"#utility.yul\":8092:8171   */\n      tag_294\n      tag_146\n      jump\t// in\n    tag_294:\n        /* \"#utility.yul\":8056:8173   */\n    tag_293:\n        /* \"#utility.yul\":8197:8260   */\n      tag_295\n        /* \"#utility.yul\":8252:8259   */\n      dup9\n        /* \"#utility.yul\":8243:8249   */\n      dup3\n        /* \"#utility.yul\":8232:8241   */\n      dup10\n        /* \"#utility.yul\":8228:8250   */\n      add\n        /* \"#utility.yul\":8197:8260   */\n      tag_156\n      jump\t// in\n    tag_295:\n        /* \"#utility.yul\":8187:8260   */\n      swap4\n      pop\n        /* \"#utility.yul\":7982:8270   */\n      pop\n        /* \"#utility.yul\":8309:8311   */\n      0x60\n        /* \"#utility.yul\":8335:8388   */\n      tag_296\n        /* \"#utility.yul\":8380:8387   */\n      dup9\n        /* \"#utility.yul\":8371:8377   */\n      dup3\n        /* \"#utility.yul\":8360:8369   */\n      dup10\n        /* \"#utility.yul\":8356:8378   */\n      add\n        /* \"#utility.yul\":8335:8388   */\n      tag_169\n      jump\t// in\n    tag_296:\n        /* \"#utility.yul\":8325:8388   */\n      swap3\n      pop\n        /* \"#utility.yul\":8280:8398   */\n      pop\n        /* \"#utility.yul\":8437:8440   */\n      0x80\n        /* \"#utility.yul\":8464:8517   */\n      tag_297\n        /* \"#utility.yul\":8509:8516   */\n      dup9\n        /* \"#utility.yul\":8500:8506   */\n      dup3\n        /* \"#utility.yul\":8489:8498   */\n      dup10\n        /* \"#utility.yul\":8485:8507   */\n      add\n        /* \"#utility.yul\":8464:8517   */\n      tag_169\n      jump\t// in\n    tag_297:\n        /* \"#utility.yul\":8454:8517   */\n      swap2\n      pop\n        /* \"#utility.yul\":8408:8527   */\n      pop\n        /* \"#utility.yul\":7263:8534   */\n      swap3\n      swap6\n      pop\n      swap3\n      swap6\n      swap1\n      swap4\n      pop\n      jump\t// out\n        /* \"#utility.yul\":8540:9194   */\n    tag_34:\n        /* \"#utility.yul\":8618:8624   */\n      0x00\n        /* \"#utility.yul\":8626:8632   */\n      0x00\n        /* \"#utility.yul\":8675:8677   */\n      0x40\n        /* \"#utility.yul\":8663:8672   */\n      dup4\n        /* \"#utility.yul\":8654:8661   */\n      dup6\n        /* \"#utility.yul\":8650:8673   */\n      sub\n        /* \"#utility.yul\":8646:8678   */\n      slt\n        /* \"#utility.yul\":8643:8762   */\n      iszero\n      tag_299\n      jumpi\n        /* \"#utility.yul\":8681:8760   */\n      tag_300\n      tag_145\n      jump\t// in\n    tag_300:\n        /* \"#utility.yul\":8643:8762   */\n    tag_299:\n        /* \"#utility.yul\":8829:8830   */\n      0x00\n        /* \"#utility.yul\":8818:8827   */\n      dup4\n        /* \"#utility.yul\":8814:8831   */\n      add\n        /* \"#utility.yul\":8801:8832   */\n      calldataload\n        /* \"#utility.yul\":8859:8877   */\n      0xffffffffffffffff\n        /* \"#utility.yul\":8851:8857   */\n      dup2\n        /* \"#utility.yul\":8848:8878   */\n      gt\n        /* \"#utility.yul\":8845:8962   */\n      iszero\n      tag_301\n      jumpi\n        /* \"#utility.yul\":8881:8960   */\n      tag_302\n      tag_146\n      jump\t// in\n    tag_302:\n        /* \"#utility.yul\":8845:8962   */\n    tag_301:\n        /* \"#utility.yul\":8986:9049   */\n      tag_303\n        /* \"#utility.yul\":9041:9048   */\n      dup6\n        /* \"#utility.yul\":9032:9038   */\n      dup3\n        /* \"#utility.yul\":9021:9030   */\n      dup7\n        /* \"#utility.yul\":9017:9039   */\n      add\n        /* \"#utility.yul\":8986:9049   */\n      tag_156\n      jump\t// in\n    tag_303:\n        /* \"#utility.yul\":8976:9049   */\n      swap3\n      pop\n        /* \"#utility.yul\":8772:9059   */\n      pop\n        /* \"#utility.yul\":9098:9100   */\n      0x20\n        /* \"#utility.yul\":9124:9177   */\n      tag_304\n        /* \"#utility.yul\":9169:9176   */\n      dup6\n        /* \"#utility.yul\":9160:9166   */\n      dup3\n        /* \"#utility.yul\":9149:9158   */\n      dup7\n        /* \"#utility.yul\":9145:9167   */\n      add\n        /* \"#utility.yul\":9124:9177   */\n      tag_171\n      jump\t// in\n    tag_304:\n        /* \"#utility.yul\":9114:9177   */\n      swap2\n      pop\n        /* \"#utility.yul\":9069:9187   */\n      pop\n        /* \"#utility.yul\":8540:9194   */\n      swap3\n      pop\n      swap3\n      swap1\n      pop\n      jump\t// out\n        /* \"#utility.yul\":9200:9290   */\n    tag_172:\n        /* \"#utility.yul\":9234:9241   */\n      0x00\n        /* \"#utility.yul\":9277:9282   */\n      dup2\n        /* \"#utility.yul\":9270:9283   */\n      iszero\n        /* \"#utility.yul\":9263:9284   */\n      iszero\n        /* \"#utility.yul\":9252:9284   */\n      swap1\n      pop\n        /* \"#utility.yul\":9200:9290   */\n      swap2\n      swap1\n      pop\n      jump\t// out\n        /* \"#utility.yul\":9296:9405   */\n    tag_173:\n        /* \"#utility.yul\":9377:9398   */\n      tag_307\n        /* \"#utility.yul\":9392:9397   */\n      dup2\n        /* \"#utility.yul\":9377:9398   */\n      tag_172\n      jump\t// in\n    tag_307:\n        /* \"#utility.yul\":9372:9375   */\n      dup3\n        /* \"#utility.yul\":9365:9399   */\n      mstore\n        /* \"#utility.yul\":9296:9405   */\n      pop\n      pop\n      jump\t// out\n        /* \"#utility.yul\":9411:9621   */\n    tag_37:\n        /* \"#utility.yul\":9498:9502   */\n      0x00\n        /* \"#utility.yul\":9536:9538   */\n      0x20\n        /* \"#utility.yul\":9525:9534   */\n      dup3\n        /* \"#utility.yul\":9521:9539   */\n      add\n        /* \"#utility.yul\":9513:9539   */\n      swap1\n      pop\n        /* \"#utility.yul\":9549:9614   */\n      tag_309\n        /* \"#utility.yul\":9611:9612   */\n      0x00\n        /* \"#utility.yul\":9600:9609   */\n      dup4\n        /* \"#utility.yul\":9596:9613   */\n      add\n        /* \"#utility.yul\":9587:9593   */\n      dup5\n        /* \"#utility.yul\":9549:9614   */\n      tag_173\n      jump\t// in\n    tag_309:\n        /* \"#utility.yul\":9411:9621   */\n      swap3\n      swap2\n      pop\n      pop\n      jump\t// out\n        /* \"#utility.yul\":9627:10905   */\n    tag_46:\n        /* \"#utility.yul\":9978:9982   */\n      0x00\n        /* \"#utility.yul\":10016:10019   */\n      0x0120\n        /* \"#utility.yul\":10005:10014   */\n      dup3\n        /* \"#utility.yul\":10001:10020   */\n      add\n        /* \"#utility.yul\":9993:10020   */\n      swap1\n      pop\n        /* \"#utility.yul\":10066:10075   */\n      dup2\n        /* \"#utility.yul\":10060:10064   */\n      dup2\n        /* \"#utility.yul\":10056:10076   */\n      sub\n        /* \"#utility.yul\":10052:10053   */\n      0x00\n        /* \"#utility.yul\":10041:10050   */\n      dup4\n        /* \"#utility.yul\":10037:10054   */\n      add\n        /* \"#utility.yul\":10030:10077   */\n      mstore\n        /* \"#utility.yul\":10094:10172   */\n      tag_311\n        /* \"#utility.yul\":10167:10171   */\n      dup2\n        /* \"#utility.yul\":10158:10164   */\n      dup13\n        /* \"#utility.yul\":10094:10172   */\n      tag_160\n      jump\t// in\n    tag_311:\n        /* \"#utility.yul\":10086:10172   */\n      swap1\n      pop\n        /* \"#utility.yul\":10182:10254   */\n      tag_312\n        /* \"#utility.yul\":10250:10252   */\n      0x20\n        /* \"#utility.yul\":10239:10248   */\n      dup4\n        /* \"#utility.yul\":10235:10253   */\n      add\n        /* \"#utility.yul\":10226:10232   */\n      dup12\n        /* \"#utility.yul\":10182:10254   */\n      tag_162\n      jump\t// in\n    tag_312:\n        /* \"#utility.yul\":10264:10336   */\n      tag_313\n        /* \"#utility.yul\":10332:10334   */\n      0x40\n        /* \"#utility.yul\":10321:10330   */\n      dup4\n        /* \"#utility.yul\":10317:10335   */\n      add\n        /* \"#utility.yul\":10308:10314   */\n      dup11\n        /* \"#utility.yul\":10264:10336   */\n      tag_164\n      jump\t// in\n    tag_313:\n        /* \"#utility.yul\":10346:10418   */\n      tag_314\n        /* \"#utility.yul\":10414:10416   */\n      0x60\n        /* \"#utility.yul\":10403:10412   */\n      dup4\n        /* \"#utility.yul\":10399:10417   */\n      add\n        /* \"#utility.yul\":10390:10396   */\n      dup10\n        /* \"#utility.yul\":10346:10418   */\n      tag_167\n      jump\t// in\n    tag_314:\n        /* \"#utility.yul\":10466:10475   */\n      dup2\n        /* \"#utility.yul\":10460:10464   */\n      dup2\n        /* \"#utility.yul\":10456:10476   */\n      sub\n        /* \"#utility.yul\":10450:10453   */\n      0x80\n        /* \"#utility.yul\":10439:10448   */\n      dup4\n        /* \"#utility.yul\":10435:10454   */\n      add\n        /* \"#utility.yul\":10428:10477   */\n      mstore\n        /* \"#utility.yul\":10494:10572   */\n      tag_315\n        /* \"#utility.yul\":10567:10571   */\n      dup2\n        /* \"#utility.yul\":10558:10564   */\n      dup9\n        /* \"#utility.yul\":10494:10572   */\n      tag_160\n      jump\t// in\n    tag_315:\n        /* \"#utility.yul\":10486:10572   */\n      swap1\n      pop\n        /* \"#utility.yul\":10582:10655   */\n      tag_316\n        /* \"#utility.yul\":10650:10653   */\n      0xa0\n        /* \"#utility.yul\":10639:10648   */\n      dup4\n        /* \"#utility.yul\":10635:10654   */\n      add\n        /* \"#utility.yul\":10626:10632   */\n      dup8\n        /* \"#utility.yul\":10582:10655   */\n      tag_164\n      jump\t// in\n    tag_316:\n        /* \"#utility.yul\":10665:10738   */\n      tag_317\n        /* \"#utility.yul\":10733:10736   */\n      0xc0\n        /* \"#utility.yul\":10722:10731   */\n      dup4\n        /* \"#utility.yul\":10718:10737   */\n      add\n        /* \"#utility.yul\":10709:10715   */\n      dup7\n        /* \"#utility.yul\":10665:10738   */\n      tag_164\n      jump\t// in\n    tag_317:\n        /* \"#utility.yul\":10748:10821   */\n      tag_318\n        /* \"#utility.yul\":10816:10819   */\n      0xe0\n        /* \"#utility.yul\":10805:10814   */\n      dup4\n        /* \"#utility.yul\":10801:10820   */\n      add\n        /* \"#utility.yul\":10792:10798   */\n      dup6\n        /* \"#utility.yul\":10748:10821   */\n      tag_164\n      jump\t// in\n    tag_318:\n        /* \"#utility.yul\":10831:10898   */\n      tag_319\n        /* \"#utility.yul\":10893:10896   */\n      0x0100\n        /* \"#utility.yul\":10882:10891   */\n      dup4\n        /* \"#utility.yul\":10878:10897   */\n      add\n        /* \"#utility.yul\":10869:10875   */\n      dup5\n        /* \"#utility.yul\":10831:10898   */\n      tag_173\n      jump\t// in\n    tag_319:\n        /* \"#utility.yul\":9627:10905   */\n      swap11\n      swap10\n      pop\n      pop\n      pop\n      pop\n      pop\n      pop\n      pop\n      pop\n      pop\n      pop\n      jump\t// out\n        /* \"#utility.yul\":10911:12036   */\n    tag_49:\n        /* \"#utility.yul\":11017:11023   */\n      0x00\n        /* \"#utility.yul\":11025:11031   */\n      0x00\n        /* \"#utility.yul\":11033:11039   */\n      0x00\n        /* \"#utility.yul\":11041:11047   */\n      0x00\n        /* \"#utility.yul\":11090:11093   */\n      0x80\n        /* \"#utility.yul\":11078:11087   */\n      dup6\n        /* \"#utility.yul\":11069:11076   */\n      dup8\n        /* \"#utility.yul\":11065:11088   */\n      sub\n        /* \"#utility.yul\":11061:11094   */\n      slt\n        /* \"#utility.yul\":11058:11178   */\n      iszero\n      tag_321\n      jumpi\n        /* \"#utility.yul\":11097:11176   */\n      tag_322\n      tag_145\n      jump\t// in\n    tag_322:\n        /* \"#utility.yul\":11058:11178   */\n    tag_321:\n        /* \"#utility.yul\":11245:11246   */\n      0x00\n        /* \"#utility.yul\":11234:11243   */\n      dup6\n        /* \"#utility.yul\":11230:11247   */\n      add\n        /* \"#utility.yul\":11217:11248   */\n      calldataload\n        /* \"#utility.yul\":11275:11293   */\n      0xffffffffffffffff\n        /* \"#utility.yul\":11267:11273   */\n      dup2\n        /* \"#utility.yul\":11264:11294   */\n      gt\n        /* \"#utility.yul\":11261:11378   */\n      iszero\n      tag_323\n      jumpi\n        /* \"#utility.yul\":11297:11376   */\n      tag_324\n      tag_146\n      jump\t// in\n    tag_324:\n        /* \"#utility.yul\":11261:11378   */\n    tag_323:\n        /* \"#utility.yul\":11402:11465   */\n      tag_325\n        /* \"#utility.yul\":11457:11464   */\n      dup8\n        /* \"#utility.yul\":11448:11454   */\n      dup3\n        /* \"#utility.yul\":11437:11446   */\n      dup9\n        /* \"#utility.yul\":11433:11455   */\n      add\n        /* \"#utility.yul\":11402:11465   */\n      tag_156\n      jump\t// in\n    tag_325:\n        /* \"#utility.yul\":11392:11465   */\n      swap5\n      pop\n        /* \"#utility.yul\":11188:11475   */\n      pop\n        /* \"#utility.yul\":11514:11516   */\n      0x20\n        /* \"#utility.yul\":11540:11593   */\n      tag_326\n        /* \"#utility.yul\":11585:11592   */\n      dup8\n        /* \"#utility.yul\":11576:11582   */\n      dup3\n        /* \"#utility.yul\":11565:11574   */\n      dup9\n        /* \"#utility.yul\":11561:11583   */\n      add\n        /* \"#utility.yul\":11540:11593   */\n      tag_171\n      jump\t// in\n    tag_326:\n        /* \"#utility.yul\":11530:11593   */\n      swap4\n      pop\n        /* \"#utility.yul\":11485:11603   */\n      pop\n        /* \"#utility.yul\":11670:11672   */\n      0x40\n        /* \"#utility.yul\":11659:11668   */\n      dup6\n        /* \"#utility.yul\":11655:11673   */\n      add\n        /* \"#utility.yul\":11642:11674   */\n      calldataload\n        /* \"#utility.yul\":11701:11719   */\n      0xffffffffffffffff\n        /* \"#utility.yul\":11693:11699   */\n      dup2\n        /* \"#utility.yul\":11690:11720   */\n      gt\n        /* \"#utility.yul\":11687:11804   */\n      iszero\n      tag_327\n      jumpi\n        /* \"#utility.yul\":11723:11802   */\n      tag_328\n      tag_146\n      jump\t// in\n    tag_328:\n        /* \"#utility.yul\":11687:11804   */\n    tag_327:\n        /* \"#utility.yul\":11828:11891   */\n      tag_329\n        /* \"#utility.yul\":11883:11890   */\n      dup8\n        /* \"#utility.yul\":11874:11880   */\n      dup3\n        /* \"#utility.yul\":11863:11872   */\n      dup9\n        /* \"#utility.yul\":11859:11881   */\n      add\n        /* \"#utility.yul\":11828:11891   */\n      tag_156\n      jump\t// in\n    tag_329:\n        /* \"#utility.yul\":11818:11891   */\n      swap3\n      pop\n        /* \"#utility.yul\":11613:11901   */\n      pop\n        /* \"#utility.yul\":11940:11942   */\n      0x60\n        /* \"#utility.yul\":11966:12019   */\n      tag_330\n        /* \"#utility.yul\":12011:12018   */\n      dup8\n        /* \"#utility.yul\":12002:12008   */\n      dup3\n        /* \"#utility.yul\":11991:12000   */\n      dup9\n        /* \"#utility.yul\":11987:12009   */\n      add\n        /* \"#utility.yul\":11966:12019   */\n      tag_169\n      jump\t// in\n    tag_330:\n        /* \"#utility.yul\":11956:12019   */\n      swap2\n      pop\n        /* \"#utility.yul\":11911:12029   */\n      pop\n        /* \"#utility.yul\":10911:12036   */\n      swap3\n      swap6\n      swap2\n      swap5\n      pop\n      swap3\n      pop\n      jump\t// out\n        /* \"#utility.yul\":12042:12190   */\n    tag_174:\n        /* \"#utility.yul\":12144:12155   */\n      0x00\n        /* \"#utility.yul\":12181:12184   */\n      dup2\n        /* \"#utility.yul\":12166:12184   */\n      swap1\n      pop\n        /* \"#utility.yul\":12042:12190   */\n      swap3\n      swap2\n      pop\n      pop\n      jump\t// out\n        /* \"#utility.yul\":12196:12586   */\n    tag_175:\n        /* \"#utility.yul\":12302:12305   */\n      0x00\n        /* \"#utility.yul\":12330:12369   */\n      tag_333\n        /* \"#utility.yul\":12363:12368   */\n      dup3\n        /* \"#utility.yul\":12330:12369   */\n      tag_157\n      jump\t// in\n    tag_333:\n        /* \"#utility.yul\":12385:12474   */\n      tag_334\n        /* \"#utility.yul\":12467:12473   */\n      dup2\n        /* \"#utility.yul\":12462:12465   */\n      dup6\n        /* \"#utility.yul\":12385:12474   */\n      tag_174\n      jump\t// in\n    tag_334:\n        /* \"#utility.yul\":12378:12474   */\n      swap4\n      pop\n        /* \"#utility.yul\":12483:12548   */\n      tag_335\n        /* \"#utility.yul\":12541:12547   */\n      dup2\n        /* \"#utility.yul\":12536:12539   */\n      dup6\n        /* \"#utility.yul\":12529:12533   */\n      0x20\n        /* \"#utility.yul\":12522:12527   */\n      dup7\n        /* \"#utility.yul\":12518:12534   */\n      add\n        /* \"#utility.yul\":12483:12548   */\n      tag_159\n      jump\t// in\n    tag_335:\n        /* \"#utility.yul\":12573:12579   */\n      dup1\n        /* \"#utility.yul\":12568:12571   */\n      dup5\n        /* \"#utility.yul\":12564:12580   */\n      add\n        /* \"#utility.yul\":12557:12580   */\n      swap2\n      pop\n        /* \"#utility.yul\":12306:12586   */\n      pop\n        /* \"#utility.yul\":12196:12586   */\n      swap3\n      swap2\n      pop\n      pop\n      jump\t// out\n        /* \"#utility.yul\":12592:12867   */\n    tag_53:\n        /* \"#utility.yul\":12724:12727   */\n      0x00\n        /* \"#utility.yul\":12746:12841   */\n      tag_337\n        /* \"#utility.yul\":12837:12840   */\n      dup3\n        /* \"#utility.yul\":12828:12834   */\n      dup5\n        /* \"#utility.yul\":12746:12841   */\n      tag_175\n      jump\t// in\n    tag_337:\n        /* \"#utility.yul\":12739:12841   */\n      swap2\n      pop\n        /* \"#utility.yul\":12858:12861   */\n      dup2\n        /* \"#utility.yul\":12851:12861   */\n      swap1\n      pop\n        /* \"#utility.yul\":12592:12867   */\n      swap3\n      swap2\n      pop\n      pop\n      jump\t// out\n        /* \"#utility.yul\":12873:13043   */\n    tag_176:\n        /* \"#utility.yul\":13013:13035   */\n      0x526f75746520646f6573206e6f74206578697374000000000000000000000000\n        /* \"#utility.yul\":13009:13010   */\n      0x00\n        /* \"#utility.yul\":13001:13007   */\n      dup3\n        /* \"#utility.yul\":12997:13011   */\n      add\n        /* \"#utility.yul\":12990:13036   */\n      mstore\n        /* \"#utility.yul\":12873:13043   */\n      pop\n      jump\t// out\n        /* \"#utility.yul\":13049:13415   */\n    tag_177:\n        /* \"#utility.yul\":13191:13194   */\n      0x00\n        /* \"#utility.yul\":13212:13279   */\n      tag_340\n        /* \"#utility.yul\":13276:13278   */\n      0x14\n        /* \"#utility.yul\":13271:13274   */\n      dup4\n        /* \"#utility.yul\":13212:13279   */\n      tag_158\n      jump\t// in\n    tag_340:\n        /* \"#utility.yul\":13205:13279   */\n      swap2\n      pop\n        /* \"#utility.yul\":13288:13381   */\n      tag_341\n        /* \"#utility.yul\":13377:13380   */\n      dup3\n        /* \"#utility.yul\":13288:13381   */\n      tag_176\n      jump\t// in\n    tag_341:\n        /* \"#utility.yul\":13406:13408   */\n      0x20\n        /* \"#utility.yul\":13401:13404   */\n      dup3\n        /* \"#utility.yul\":13397:13409   */\n      add\n        /* \"#utility.yul\":13390:13409   */\n      swap1\n      pop\n        /* \"#utility.yul\":13049:13415   */\n      swap2\n      swap1\n      pop\n      jump\t// out\n        /* \"#utility.yul\":13421:13840   */\n    tag_56:\n        /* \"#utility.yul\":13587:13591   */\n      0x00\n        /* \"#utility.yul\":13625:13627   */\n      0x20\n        /* \"#utility.yul\":13614:13623   */\n      dup3\n        /* \"#utility.yul\":13610:13628   */\n      add\n        /* \"#utility.yul\":13602:13628   */\n      swap1\n      pop\n        /* \"#utility.yul\":13674:13683   */\n      dup2\n        /* \"#utility.yul\":13668:13672   */\n      dup2\n        /* \"#utility.yul\":13664:13684   */\n      sub\n        /* \"#utility.yul\":13660:13661   */\n      0x00\n        /* \"#utility.yul\":13649:13658   */\n      dup4\n        /* \"#utility.yul\":13645:13662   */\n      add\n        /* \"#utility.yul\":13638:13685   */\n      mstore\n        /* \"#utility.yul\":13702:13833   */\n      tag_343\n        /* \"#utility.yul\":13828:13832   */\n      dup2\n        /* \"#utility.yul\":13702:13833   */\n      tag_177\n      jump\t// in\n    tag_343:\n        /* \"#utility.yul\":13694:13833   */\n      swap1\n      pop\n        /* \"#utility.yul\":13421:13840   */\n      swap2\n      swap1\n      pop\n      jump\t// out\n        /* \"#utility.yul\":13846:14026   */\n    tag_178:\n        /* \"#utility.yul\":13894:13971   */\n      0x4e487b7100000000000000000000000000000000000000000000000000000000\n        /* \"#utility.yul\":13891:13892   */\n      0x00\n        /* \"#utility.yul\":13884:13972   */\n      mstore\n        /* \"#utility.yul\":13991:13995   */\n      0x22\n        /* \"#utility.yul\":13988:13989   */\n      0x04\n        /* \"#utility.yul\":13981:13996   */\n      mstore\n        /* \"#utility.yul\":14015:14019   */\n      0x24\n        /* \"#utility.yul\":14012:14013   */\n      0x00\n        /* \"#utility.yul\":14005:14020   */\n      revert\n        /* \"#utility.yul\":14032:14352   */\n    tag_59:\n        /* \"#utility.yul\":14076:14082   */\n      0x00\n        /* \"#utility.yul\":14113:14114   */\n      0x02\n        /* \"#utility.yul\":14107:14111   */\n      dup3\n        /* \"#utility.yul\":14103:14115   */\n      div\n        /* \"#utility.yul\":14093:14115   */\n      swap1\n      pop\n        /* \"#utility.yul\":14160:14161   */\n      0x01\n        /* \"#utility.yul\":14154:14158   */\n      dup3\n        /* \"#utility.yul\":14150:14162   */\n      and\n        /* \"#utility.yul\":14181:14199   */\n      dup1\n        /* \"#utility.yul\":14171:14252   */\n      tag_346\n      jumpi\n        /* \"#utility.yul\":14237:14241   */\n      0x7f\n        /* \"#utility.yul\":14229:14235   */\n      dup3\n        /* \"#utility.yul\":14225:14242   */\n      and\n        /* \"#utility.yul\":14215:14242   */\n      swap2\n      pop\n        /* \"#utility.yul\":14171:14252   */\n    tag_346:\n        /* \"#utility.yul\":14299:14301   */\n      0x20\n        /* \"#utility.yul\":14291:14297   */\n      dup3\n        /* \"#utility.yul\":14288:14302   */\n      lt\n        /* \"#utility.yul\":14268:14286   */\n      dup2\n        /* \"#utility.yul\":14265:14303   */\n      sub\n        /* \"#utility.yul\":14262:14346   */\n      tag_347\n      jumpi\n        /* \"#utility.yul\":14318:14336   */\n      tag_348\n      tag_178\n      jump\t// in\n    tag_348:\n        /* \"#utility.yul\":14262:14346   */\n    tag_347:\n        /* \"#utility.yul\":14083:14352   */\n      pop\n        /* \"#utility.yul\":14032:14352   */\n      swap2\n      swap1\n      pop\n      jump\t// out\n        /* \"#utility.yul\":14358:14527   */\n    tag_179:\n        /* \"#utility.yul\":14498:14519   */\n      0x496e646578206f7574206f6620626f756e647300000000000000000000000000\n        /* \"#utility.yul\":14494:14495   */\n      0x00\n        /* \"#utility.yul\":14486:14492   */\n      dup3\n        /* \"#utility.yul\":14482:14496   */\n      add\n        /* \"#utility.yul\":14475:14520   */\n      mstore\n        /* \"#utility.yul\":14358:14527   */\n      pop\n      jump\t// out\n        /* \"#utility.yul\":14533:14899   */\n    tag_180:\n        /* \"#utility.yul\":14675:14678   */\n      0x00\n        /* \"#utility.yul\":14696:14763   */\n      tag_351\n        /* \"#utility.yul\":14760:14762   */\n      0x13\n        /* \"#utility.yul\":14755:14758   */\n      dup4\n        /* \"#utility.yul\":14696:14763   */\n      tag_158\n      jump\t// in\n    tag_351:\n        /* \"#utility.yul\":14689:14763   */\n      swap2\n      pop\n        /* \"#utility.yul\":14772:14865   */\n      tag_352\n        /* \"#utility.yul\":14861:14864   */\n      dup3\n        /* \"#utility.yul\":14772:14865   */\n      tag_179\n      jump\t// in\n    tag_352:\n        /* \"#utility.yul\":14890:14892   */\n      0x20\n        /* \"#utility.yul\":14885:14888   */\n      dup3\n        /* \"#utility.yul\":14881:14893   */\n      add\n        /* \"#utility.yul\":14874:14893   */\n      swap1\n      pop\n        /* \"#utility.yul\":14533:14899   */\n      swap2\n      swap1\n      pop\n      jump\t// out\n        /* \"#utility.yul\":14905:15324   */\n    tag_73:\n        /* \"#utility.yul\":15071:15075   */\n      0x00\n        /* \"#utility.yul\":15109:15111   */\n      0x20\n        /* \"#utility.yul\":15098:15107   */\n      dup3\n        /* \"#utility.yul\":15094:15112   */\n      add\n        /* \"#utility.yul\":15086:15112   */\n      swap1\n      pop\n        /* \"#utility.yul\":15158:15167   */\n      dup2\n        /* \"#utility.yul\":15152:15156   */\n      dup2\n        /* \"#utility.yul\":15148:15168   */\n      sub\n        /* \"#utility.yul\":15144:15145   */\n      0x00\n        /* \"#utility.yul\":15133:15142   */\n      dup4\n        /* \"#utility.yul\":15129:15146   */\n      add\n        /* \"#utility.yul\":15122:15169   */\n      mstore\n        /* \"#utility.yul\":15186:15317   */\n      tag_354\n        /* \"#utility.yul\":15312:15316   */\n      dup2\n        /* \"#utility.yul\":15186:15317   */\n      tag_180\n      jump\t// in\n    tag_354:\n        /* \"#utility.yul\":15178:15317   */\n      swap1\n      pop\n        /* \"#utility.yul\":14905:15324   */\n      swap2\n      swap1\n      pop\n      jump\t// out\n        /* \"#utility.yul\":15330:15510   */\n    tag_76:\n        /* \"#utility.yul\":15378:15455   */\n      0x4e487b7100000000000000000000000000000000000000000000000000000000\n        /* \"#utility.yul\":15375:15376   */\n      0x00\n        /* \"#utility.yul\":15368:15456   */\n      mstore\n        /* \"#utility.yul\":15475:15479   */\n      0x32\n        /* \"#utility.yul\":15472:15473   */\n      0x04\n        /* \"#utility.yul\":15465:15480   */\n      mstore\n        /* \"#utility.yul\":15499:15503   */\n      0x24\n        /* \"#utility.yul\":15496:15497   */\n      0x00\n        /* \"#utility.yul\":15489:15504   */\n      revert\n        /* \"#utility.yul\":15516:15686   */\n    tag_181:\n        /* \"#utility.yul\":15656:15678   */\n      0x526f75746520616c726561647920657869737473000000000000000000000000\n        /* \"#utility.yul\":15652:15653   */\n      0x00\n        /* \"#utility.yul\":15644:15650   */\n      dup3\n        /* \"#utility.yul\":15640:15654   */\n      add\n        /* \"#utility.yul\":15633:15679   */\n      mstore\n        /* \"#utility.yul\":15516:15686   */\n      pop\n      jump\t// out\n        /* \"#utility.yul\":15692:16058   */\n    tag_182:\n        /* \"#utility.yul\":15834:15837   */\n      0x00\n        /* \"#utility.yul\":15855:15922   */\n      tag_358\n        /* \"#utility.yul\":15919:15921   */\n      0x14\n        /* \"#utility.yul\":15914:15917   */\n      dup4\n        /* \"#utility.yul\":15855:15922   */\n      tag_158\n      jump\t// in\n    tag_358:\n        /* \"#utility.yul\":15848:15922   */\n      swap2\n      pop\n        /* \"#utility.yul\":15931:16024   */\n      tag_359\n        /* \"#utility.yul\":16020:16023   */\n      dup3\n        /* \"#utility.yul\":15931:16024   */\n      tag_181\n      jump\t// in\n    tag_359:\n        /* \"#utility.yul\":16049:16051   */\n      0x20\n        /* \"#utility.yul\":16044:16047   */\n      dup3\n        /* \"#utility.yul\":16040:16052   */\n      add\n        /* \"#utility.yul\":16033:16052   */\n      swap1\n      pop\n        /* \"#utility.yul\":15692:16058   */\n      swap2\n      swap1\n      pop\n      jump\t// out\n        /* \"#utility.yul\":16064:16483   */\n    tag_87:\n        /* \"#utility.yul\":16230:16234   */\n      0x00\n        /* \"#utility.yul\":16268:16270   */\n      0x20\n        /* \"#utility.yul\":16257:16266   */\n      dup3\n        /* \"#utility.yul\":16253:16271   */\n      add\n        /* \"#utility.yul\":16245:16271   */\n      swap1\n      pop\n        /* \"#utility.yul\":16317:16326   */\n      dup2\n        /* \"#utility.yul\":16311:16315   */\n      dup2\n        /* \"#utility.yul\":16307:16327   */\n      sub\n        /* \"#utility.yul\":16303:16304   */\n      0x00\n        /* \"#utility.yul\":16292:16301   */\n      dup4\n        /* \"#utility.yul\":16288:16305   */\n      add\n        /* \"#utility.yul\":16281:16328   */\n      mstore\n        /* \"#utility.yul\":16345:16476   */\n      tag_361\n        /* \"#utility.yul\":16471:16475   */\n      dup2\n        /* \"#utility.yul\":16345:16476   */\n      tag_182\n      jump\t// in\n    tag_361:\n        /* \"#utility.yul\":16337:16476   */\n      swap1\n      pop\n        /* \"#utility.yul\":16064:16483   */\n      swap2\n      swap1\n      pop\n      jump\t// out\n        /* \"#utility.yul\":16489:16663   */\n    tag_183:\n        /* \"#utility.yul\":16629:16655   */\n      0x526f7574652049442063616e6e6f7420626520656d7074790000000000000000\n        /* \"#utility.yul\":16625:16626   */\n      0x00\n        /* \"#utility.yul\":16617:16623   */\n      dup3\n        /* \"#utility.yul\":16613:16627   */\n      add\n        /* \"#utility.yul\":16606:16656   */\n      mstore\n        /* \"#utility.yul\":16489:16663   */\n      pop\n      jump\t// out\n        /* \"#utility.yul\":16669:17035   */\n    tag_184:\n        /* \"#utility.yul\":16811:16814   */\n      0x00\n        /* \"#utility.yul\":16832:16899   */\n      tag_364\n        /* \"#utility.yul\":16896:16898   */\n      0x18\n        /* \"#utility.yul\":16891:16894   */\n      dup4\n        /* \"#utility.yul\":16832:16899   */\n      tag_158\n      jump\t// in\n    tag_364:\n        /* \"#utility.yul\":16825:16899   */\n      swap2\n      pop\n        /* \"#utility.yul\":16908:17001   */\n      tag_365\n        /* \"#utility.yul\":16997:17000   */\n      dup3\n        /* \"#utility.yul\":16908:17001   */\n      tag_183\n      jump\t// in\n    tag_365:\n        /* \"#utility.yul\":17026:17028   */\n      0x20\n        /* \"#utility.yul\":17021:17024   */\n      dup3\n        /* \"#utility.yul\":17017:17029   */\n      add\n        /* \"#utility.yul\":17010:17029   */\n      swap1\n      pop\n        /* \"#utility.yul\":16669:17035   */\n      swap2\n      swap1\n      pop\n      jump\t// out\n        /* \"#utility.yul\":17041:17460   */\n    tag_90:\n        /* \"#utility.yul\":17207:17211   */\n      0x00\n        /* \"#utility.yul\":17245:17247   */\n      0x20\n        /* \"#utility.yul\":17234:17243   */\n      dup3\n        /* \"#utility.yul\":17230:17248   */\n      add\n        /* \"#utility.yul\":17222:17248   */\n      swap1\n      pop\n        /* \"#utility.yul\":17294:17303   */\n      dup2\n        /* \"#utility.yul\":17288:17292   */\n      dup2\n        /* \"#utility.yul\":17284:17304   */\n      sub\n        /* \"#utility.yul\":17280:17281   */\n      0x00\n        /* \"#utility.yul\":17269:17278   */\n      dup4\n        /* \"#utility.yul\":17265:17282   */\n      add\n        /* \"#utility.yul\":17258:17305   */\n      mstore\n        /* \"#utility.yul\":17322:17453   */\n      tag_367\n        /* \"#utility.yul\":17448:17452   */\n      dup2\n        /* \"#utility.yul\":17322:17453   */\n      tag_184\n      jump\t// in\n    tag_367:\n        /* \"#utility.yul\":17314:17453   */\n      swap1\n      pop\n        /* \"#utility.yul\":17041:17460   */\n      swap2\n      swap1\n      pop\n      jump\t// out\n        /* \"#utility.yul\":17466:17641   */\n    tag_185:\n        /* \"#utility.yul\":17606:17633   */\n      0x4461746120686173682063616e6e6f7420626520656d70747900000000000000\n        /* \"#utility.yul\":17602:17603   */\n      0x00\n        /* \"#utility.yul\":17594:17600   */\n      dup3\n        /* \"#utility.yul\":17590:17604   */\n      add\n        /* \"#utility.yul\":17583:17634   */\n      mstore\n        /* \"#utility.yul\":17466:17641   */\n      pop\n      jump\t// out\n        /* \"#utility.yul\":17647:18013   */\n    tag_186:\n        /* \"#utility.yul\":17789:17792   */\n      0x00\n        /* \"#utility.yul\":17810:17877   */\n      tag_370\n        /* \"#utility.yul\":17874:17876   */\n      0x19\n        /* \"#utility.yul\":17869:17872   */\n      dup4\n        /* \"#utility.yul\":17810:17877   */\n      tag_158\n      jump\t// in\n    tag_370:\n        /* \"#utility.yul\":17803:17877   */\n      swap2\n      pop\n        /* \"#utility.yul\":17886:17979   */\n      tag_371\n        /* \"#utility.yul\":17975:17978   */\n      dup3\n        /* \"#utility.yul\":17886:17979   */\n      tag_185\n      jump\t// in\n    tag_371:\n        /* \"#utility.yul\":18004:18006   */\n      0x20\n        /* \"#utility.yul\":17999:18002   */\n      dup3\n        /* \"#utility.yul\":17995:18007   */\n      add\n        /* \"#utility.yul\":17988:18007   */\n      swap1\n      pop\n        /* \"#utility.yul\":17647:18013   */\n      swap2\n      swap1\n      pop\n      jump\t// out\n        /* \"#utility.yul\":18019:18438   */\n    tag_93:\n        /* \"#utility.yul\":18185:18189   */\n      0x00\n        /* \"#utility.yul\":18223:18225   */\n      0x20\n        /* \"#utility.yul\":18212:18221   */\n      dup3\n        /* \"#utility.yul\":18208:18226   */\n      add\n        /* \"#utility.yul\":18200:18226   */\n      swap1\n      pop\n        /* \"#utility.yul\":18272:18281   */\n      dup2\n        /* \"#utility.yul\":18266:18270   */\n      dup2\n        /* \"#utility.yul\":18262:18282   */\n      sub\n        /* \"#utility.yul\":18258:18259   */\n      0x00\n        /* \"#utility.yul\":18247:18256   */\n      dup4\n        /* \"#utility.yul\":18243:18260   */\n      add\n        /* \"#utility.yul\":18236:18283   */\n      mstore\n        /* \"#utility.yul\":18300:18431   */\n      tag_373\n        /* \"#utility.yul\":18426:18430   */\n      dup2\n        /* \"#utility.yul\":18300:18431   */\n      tag_186\n      jump\t// in\n    tag_373:\n        /* \"#utility.yul\":18292:18431   */\n      swap1\n      pop\n        /* \"#utility.yul\":18019:18438   */\n      swap2\n      swap1\n      pop\n      jump\t// out\n        /* \"#utility.yul\":18444:18585   */\n    tag_187:\n        /* \"#utility.yul\":18493:18497   */\n      0x00\n        /* \"#utility.yul\":18516:18519   */\n      dup2\n        /* \"#utility.yul\":18508:18519   */\n      swap1\n      pop\n        /* \"#utility.yul\":18539:18542   */\n      dup2\n        /* \"#utility.yul\":18536:18537   */\n      0x00\n        /* \"#utility.yul\":18529:18543   */\n      mstore\n        /* \"#utility.yul\":18573:18577   */\n      0x20\n        /* \"#utility.yul\":18570:18571   */\n      0x00\n        /* \"#utility.yul\":18560:18578   */\n      keccak256\n        /* \"#utility.yul\":18552:18578   */\n      swap1\n      pop\n        /* \"#utility.yul\":18444:18585   */\n      swap2\n      swap1\n      pop\n      jump\t// out\n        /* \"#utility.yul\":18591:18684   */\n    tag_188:\n        /* \"#utility.yul\":18628:18634   */\n      0x00\n        /* \"#utility.yul\":18675:18677   */\n      0x20\n        /* \"#utility.yul\":18670:18672   */\n      0x1f\n        /* \"#utility.yul\":18663:18668   */\n      dup4\n        /* \"#utility.yul\":18659:18673   */\n      add\n        /* \"#utility.yul\":18655:18678   */\n      div\n        /* \"#utility.yul\":18645:18678   */\n      swap1\n      pop\n        /* \"#utility.yul\":18591:18684   */\n      swap2\n      swap1\n      pop\n      jump\t// out\n        /* \"#utility.yul\":18690:18797   */\n    tag_189:\n        /* \"#utility.yul\":18734:18742   */\n      0x00\n        /* \"#utility.yul\":18784:18789   */\n      dup3\n        /* \"#utility.yul\":18778:18782   */\n      dup3\n        /* \"#utility.yul\":18774:18790   */\n      shl\n        /* \"#utility.yul\":18753:18790   */\n      swap1\n      pop\n        /* \"#utility.yul\":18690:18797   */\n      swap3\n      swap2\n      pop\n      pop\n      jump\t// out\n        /* \"#utility.yul\":18803:19196   */\n    tag_190:\n        /* \"#utility.yul\":18872:18878   */\n      0x00\n        /* \"#utility.yul\":18922:18923   */\n      0x08\n        /* \"#utility.yul\":18910:18920   */\n      dup4\n        /* \"#utility.yul\":18906:18924   */\n      mul\n        /* \"#utility.yul\":18945:19042   */\n      tag_378\n        /* \"#utility.yul\":18975:19041   */\n      0xffffffffffffffffffffffffffffffffffffffffffffffffffffffffffffffff\n        /* \"#utility.yul\":18964:18973   */\n      dup3\n        /* \"#utility.yul\":18945:19042   */\n      tag_189\n      jump\t// in\n    tag_378:\n        /* \"#utility.yul\":19063:19102   */\n      tag_379\n        /* \"#utility.yul\":19093:19101   */\n      dup7\n        /* \"#utility.yul\":19082:19091   */\n      dup4\n        /* \"#utility.yul\":19063:19102   */\n      tag_189\n      jump\t// in\n    tag_379:\n        /* \"#utility.yul\":19051:19102   */\n      swap6\n      pop\n        /* \"#utility.yul\":19135:19139   */\n      dup1\n        /* \"#utility.yul\":19131:19140   */\n      not\n        /* \"#utility.yul\":19124:19129   */\n      dup5\n        /* \"#utility.yul\":19120:19141   */\n      and\n        /* \"#utility.yul\":19111:19141   */\n      swap4\n      pop\n        /* \"#utility.yul\":19184:19188   */\n      dup1\n        /* \"#utility.yul\":19174:19182   */\n      dup7\n        /* \"#utility.yul\":19170:19189   */\n      and\n        /* \"#utility.yul\":19163:19168   */\n      dup5\n        /* \"#utility.yul\":19160:19190   */\n      or\n        /* \"#utility.yul\":19150:19190   */\n      swap3\n      pop\n        /* \"#utility.yul\":18879:19196   */\n      pop\n      pop\n        /* \"#utility.yul\":18803:19196   */\n      swap4\n      swap3\n      pop\n      pop\n      pop\n      jump\t// out\n        /* \"#utility.yul\":19202:19262   */\n    tag_191:\n        /* \"#utility.yul\":19230:19233   */\n      0x00\n        /* \"#utility.yul\":19251:19256   */\n      dup2\n        /* \"#utility.yul\":19244:19256   */\n      swap1\n      pop\n        /* \"#utility.yul\":19202:19262   */\n      swap2\n      swap1\n      pop\n      jump\t// out\n        /* \"#utility.yul\":19268:19410   */\n    tag_192:\n        /* \"#utility.yul\":19318:19327   */\n      0x00\n        /* \"#utility.yul\":19351:19404   */\n      tag_382\n        /* \"#utility.yul\":19369:19403   */\n      tag_383\n        /* \"#utility.yul\":19378:19402   */\n      tag_384\n        /* \"#utility.yul\":19396:19401   */\n      dup5\n        /* \"#utility.yul\":19378:19402   */\n      tag_163\n      jump\t// in\n    tag_384:\n        /* \"#utility.yul\":19369:19403   */\n      tag_191\n      jump\t// in\n    tag_383:\n        /* \"#utility.yul\":19351:19404   */\n      tag_163\n      jump\t// in\n    tag_382:\n        /* \"#utility.yul\":19338:19404   */\n      swap1\n      pop\n        /* \"#utility.yul\":19268:19410   */\n      swap2\n      swap1\n      pop\n      jump\t// out\n        /* \"#utility.yul\":19416:19491   */\n    tag_193:\n        /* \"#utility.yul\":19459:19462   */\n      0x00\n        /* \"#utility.yul\":19480:19485   */\n      dup2\n        /* \"#utility.yul\":19473:19485   */\n      swap1\n      pop\n        /* \"#utility.yul\":19416:19491   */\n      swap2\n      swap1\n      pop\n      jump\t// out\n        /* \"#utility.yul\":19497:19766   */\n    tag_194:\n        /* \"#utility.yul\":19607:19646   */\n      tag_387\n        /* \"#utility.yul\":19638:19645   */\n      dup4\n        /* \"#utility.yul\":19607:19646   */\n      tag_192\n      jump\t// in\n    tag_387:\n        /* \"#utility.yul\":19668:19759   */\n      tag_388\n        /* \"#utility.yul\":19717:19758   */\n      tag_389\n        /* \"#utility.yul\":19741:19757   */\n      dup3\n        /* \"#utility.yul\":19717:19758   */\n      tag_193\n      jump\t// in\n    tag_389:\n        /* \"#utility.yul\":19709:19715   */\n      dup5\n        /* \"#utility.yul\":19702:19706   */\n      dup5\n        /* \"#utility.yul\":19696:19707   */\n      sload\n        /* \"#utility.yul\":19668:19759   */\n      tag_190\n      jump\t// in\n    tag_388:\n        /* \"#utility.yul\":19662:19666   */\n      dup3\n        /* \"#utility.yul\":19655:19760   */\n      sstore\n        /* \"#utility.yul\":19573:19766   */\n      pop\n        /* \"#utility.yul\":19497:19766   */\n      pop\n      pop\n      pop\n      jump\t// out\n        /* \"#utility.yul\":19772:19845   */\n    tag_195:\n        /* \"#utility.yul\":19817:19820   */\n      0x00\n        /* \"#utility.yul\":19838:19839   */\n      0x00\n        /* \"#utility.yul\":19831:19839   */\n      swap1\n      pop\n        /* \"#utility.yul\":19772:19845   */\n      swap1\n      jump\t// out\n        /* \"#utility.yul\":19851:20040   */\n    tag_196:\n        /* \"#utility.yul\":19928:19960   */\n      tag_392\n      tag_195\n      jump\t// in\n    tag_392:\n        /* \"#utility.yul\":19969:20034   */\n      tag_393\n        /* \"#utility.yul\":20027:20033   */\n      dup2\n        /* \"#utility.yul\":20019:20025   */\n      dup5\n        /* \"#utility.yul\":20013:20017   */\n      dup5\n        /* \"#utility.yul\":19969:20034   */\n      tag_194\n      jump\t// in\n    tag_393:\n        /* \"#utility.yul\":19904:20040   */\n      pop\n        /* \"#utility.yul\":19851:20040   */\n      pop\n      pop\n      jump\t// out\n        /* \"#utility.yul\":20046:20232   */\n    tag_197:\n        /* \"#utility.yul\":20106:20226   */\n    tag_395:\n        /* \"#utility.yul\":20123:20126   */\n      dup2\n        /* \"#utility.yul\":20116:20121   */\n      dup2\n        /* \"#utility.yul\":20113:20127   */\n      lt\n        /* \"#utility.yul\":20106:20226   */\n      iszero\n      tag_397\n      jumpi\n        /* \"#utility.yul\":20177:20216   */\n      tag_398\n        /* \"#utility.yul\":20214:20215   */\n      0x00\n        /* \"#utility.yul\":20207:20212   */\n      dup3\n        /* \"#utility.yul\":20177:20216   */\n      tag_196\n      jump\t// in\n    tag_398:\n        /* \"#utility.yul\":20150:20151   */\n      0x01\n        /* \"#utility.yul\":20143:20148   */\n      dup2\n        /* \"#utility.yul\":20139:20152   */\n      add\n        /* \"#utility.yul\":20130:20152   */\n      swap1\n      pop\n        /* \"#utility.yul\":20106:20226   */\n      jump(tag_395)\n    tag_397:\n        /* \"#utility.yul\":20046:20232   */\n      pop\n      pop\n      jump\t// out\n        /* \"#utility.yul\":20238:20781   */\n    tag_198:\n        /* \"#utility.yul\":20339:20341   */\n      0x1f\n        /* \"#utility.yul\":20334:20337   */\n      dup3\n        /* \"#utility.yul\":20331:20342   */\n      gt\n        /* \"#utility.yul\":20328:20774   */\n      iszero\n      tag_400\n      jumpi\n        /* \"#utility.yul\":20373:20411   */\n      tag_401\n        /* \"#utility.yul\":20405:20410   */\n      dup2\n        /* \"#utility.yul\":20373:20411   */\n      tag_187\n      jump\t// in\n    tag_401:\n        /* \"#utility.yul\":20457:20486   */\n      tag_402\n        /* \"#utility.yul\":20475:20485   */\n      dup5\n        /* \"#utility.yul\":20457:20486   */\n      tag_188\n      jump\t// in\n    tag_402:\n        /* \"#utility.yul\":20447:20455   */\n      dup2\n        /* \"#utility.yul\":20443:20487   */\n      add\n        /* \"#utility.yul\":20640:20642   */\n      0x20\n        /* \"#utility.yul\":20628:20638   */\n      dup6\n        /* \"#utility.yul\":20625:20643   */\n      lt\n        /* \"#utility.yul\":20622:20671   */\n      iszero\n      tag_403\n      jumpi\n        /* \"#utility.yul\":20661:20669   */\n      dup2\n        /* \"#utility.yul\":20646:20669   */\n      swap1\n      pop\n        /* \"#utility.yul\":20622:20671   */\n    tag_403:\n        /* \"#utility.yul\":20684:20764   */\n      tag_404\n        /* \"#utility.yul\":20740:20762   */\n      tag_405\n        /* \"#utility.yul\":20758:20761   */\n      dup6\n        /* \"#utility.yul\":20740:20762   */\n      tag_188\n      jump\t// in\n    tag_405:\n        /* \"#utility.yul\":20730:20738   */\n      dup4\n        /* \"#utility.yul\":20726:20763   */\n      add\n        /* \"#utility.yul\":20713:20724   */\n      dup3\n        /* \"#utility.yul\":20684:20764   */\n      tag_197\n      jump\t// in\n    tag_404:\n        /* \"#utility.yul\":20343:20774   */\n      pop\n      pop\n        /* \"#utility.yul\":20328:20774   */\n    tag_400:\n        /* \"#utility.yul\":20238:20781   */\n      pop\n      pop\n      pop\n      jump\t// out\n        /* \"#utility.yul\":20787:20904   */\n    tag_199:\n        /* \"#utility.yul\":20841:20849   */\n      0x00\n        /* \"#utility.yul\":20891:20896   */\n      dup3\n        /* \"#utility.yul\":20885:20889   */\n      dup3\n        /* \"#utility.yul\":20881:20897   */\n      shr\n        /* \"#utility.yul\":20860:20897   */\n      swap1\n      pop\n        /* \"#utility.yul\":20787:20904   */\n      swap3\n      swap2\n      pop\n      pop\n      jump\t// out\n        /* \"#utility.yul\":20910:21079   */\n    tag_200:\n        /* \"#utility.yul\":20954:20960   */\n      0x00\n        /* \"#utility.yul\":20987:21038   */\n      tag_408\n        /* \"#utility.yul\":21035:21036   */\n      0x00\n        /* \"#utility.yul\":21031:21037   */\n      not\n        /* \"#utility.yul\":21023:21028   */\n      dup5\n        /* \"#utility.yul\":21020:21021   */\n      0x08\n        /* \"#utility.yul\":21016:21029   */\n      mul\n        /* \"#utility.yul\":20987:21038   */\n      tag_199\n      jump\t// in\n    tag_408:\n        /* \"#utility.yul\":20983:21039   */\n      not\n        /* \"#utility.yul\":21068:21072   */\n      dup1\n        /* \"#utility.yul\":21062:21066   */\n      dup4\n        /* \"#utility.yul\":21058:21073   */\n      and\n        /* \"#utility.yul\":21048:21073   */\n      swap2\n      pop\n        /* \"#utility.yul\":20961:21079   */\n      pop\n        /* \"#utility.yul\":20910:21079   */\n      swap3\n      swap2\n      pop\n      pop\n      jump\t// out\n        /* \"#utility.yul\":21084:21379   */\n    tag_201:\n        /* \"#utility.yul\":21160:21164   */\n      0x00\n        /* \"#utility.yul\":21306:21335   */\n      tag_410\n        /* \"#utility.yul\":21331:21334   */\n      dup4\n        /* \"#utility.yul\":21325:21329   */\n      dup4\n        /* \"#utility.yul\":21306:21335   */\n      tag_200\n      jump\t// in\n    tag_410:\n        /* \"#utility.yul\":21298:21335   */\n      swap2\n      pop\n        /* \"#utility.yul\":21368:21371   */\n      dup3\n        /* \"#utility.yul\":21365:21366   */\n      0x02\n        /* \"#utility.yul\":21361:21372   */\n      mul\n        /* \"#utility.yul\":21355:21359   */\n      dup3\n        /* \"#utility.yul\":21352:21373   */\n      or\n        /* \"#utility.yul\":21344:21373   */\n      swap1\n      pop\n        /* \"#utility.yul\":21084:21379   */\n      swap3\n      swap2\n      pop\n      pop\n      jump\t// out\n        /* \"#utility.yul\":21384:22779   */\n    tag_96:\n        /* \"#utility.yul\":21501:21538   */\n      tag_412\n        /* \"#utility.yul\":21534:21537   */\n      dup3\n        /* \"#utility.yul\":21501:21538   */\n      tag_157\n      jump\t// in\n    tag_412:\n        /* \"#utility.yul\":21603:21621   */\n      0xffffffffffffffff\n        /* \"#utility.yul\":21595:21601   */\n      dup2\n        /* \"#utility.yul\":21592:21622   */\n      gt\n        /* \"#utility.yul\":21589:21645   */\n      iszero\n      tag_413\n      jumpi\n        /* \"#utility.yul\":21625:21643   */\n      tag_414\n      tag_150\n      jump\t// in\n    tag_414:\n        /* \"#utility.yul\":21589:21645   */\n    tag_413:\n        /* \"#utility.yul\":21669:21707   */\n      tag_415\n        /* \"#utility.yul\":21701:21705   */\n      dup3\n        /* \"#utility.yul\":21695:21706   */\n      sload\n        /* \"#utility.yul\":21669:21707   */\n      tag_59\n      jump\t// in\n    tag_415:\n        /* \"#utility.yul\":21754:21821   */\n      tag_416\n        /* \"#utility.yul\":21814:21820   */\n      dup3\n        /* \"#utility.yul\":21806:21812   */\n      dup3\n        /* \"#utility.yul\":21800:21804   */\n      dup6\n        /* \"#utility.yul\":21754:21821   */\n      tag_198\n      jump\t// in\n    tag_416:\n        /* \"#utility.yul\":21848:21849   */\n      0x00\n        /* \"#utility.yul\":21872:21876   */\n      0x20\n        /* \"#utility.yul\":21859:21876   */\n      swap1\n      pop\n        /* \"#utility.yul\":21904:21906   */\n      0x1f\n        /* \"#utility.yul\":21896:21902   */\n      dup4\n        /* \"#utility.yul\":21893:21907   */\n      gt\n        /* \"#utility.yul\":21921:21922   */\n      0x01\n        /* \"#utility.yul\":21916:22534   */\n      dup2\n      eq\n      tag_418\n      jumpi\n        /* \"#utility.yul\":22578:22579   */\n      0x00\n        /* \"#utility.yul\":22595:22601   */\n      dup5\n        /* \"#utility.yul\":22592:22669   */\n      iszero\n      tag_419\n      jumpi\n        /* \"#utility.yul\":22644:22653   */\n      dup3\n        /* \"#utility.yul\":22639:22642   */\n      dup8\n        /* \"#utility.yul\":22635:22654   */\n      add\n        /* \"#utility.yul\":22629:22655   */\n      mload\n        /* \"#utility.yul\":22620:22655   */\n      swap1\n      pop\n        /* \"#utility.yul\":22592:22669   */\n    tag_419:\n        /* \"#utility.yul\":22695:22762   */\n      tag_420\n        /* \"#utility.yul\":22755:22761   */\n      dup6\n        /* \"#utility.yul\":22748:22753   */\n      dup3\n        /* \"#utility.yul\":22695:22762   */\n      tag_201\n      jump\t// in\n    tag_420:\n        /* \"#utility.yul\":22689:22693   */\n      dup7\n        /* \"#utility.yul\":22682:22763   */\n      sstore\n        /* \"#utility.yul\":22551:22773   */\n      pop\n        /* \"#utility.yul\":21886:22773   */\n      jump(tag_417)\n        /* \"#utility.yul\":21916:22534   */\n    tag_418:\n        /* \"#utility.yul\":21968:21972   */\n      0x1f\n        /* \"#utility.yul\":21964:21973   */\n      not\n        /* \"#utility.yul\":21956:21962   */\n      dup5\n        /* \"#utility.yul\":21952:21974   */\n      and\n        /* \"#utility.yul\":22002:22039   */\n      tag_421\n        /* \"#utility.yul\":22034:22038   */\n      dup7\n        /* \"#utility.yul\":22002:22039   */\n      tag_187\n      jump\t// in\n    tag_421:\n        /* \"#utility.yul\":22061:22062   */\n      0x00\n        /* \"#utility.yul\":22075:22283   */\n    tag_422:\n        /* \"#utility.yul\":22089:22096   */\n      dup3\n        /* \"#utility.yul\":22086:22087   */\n      dup2\n        /* \"#utility.yul\":22083:22097   */\n      lt\n        /* \"#utility.yul\":22075:22283   */\n      iszero\n      tag_424\n      jumpi\n        /* \"#utility.yul\":22168:22177   */\n      dup5\n        /* \"#utility.yul\":22163:22166   */\n      dup10\n        /* \"#utility.yul\":22159:22178   */\n      add\n        /* \"#utility.yul\":22153:22179   */\n      mload\n        /* \"#utility.yul\":22145:22151   */\n      dup3\n        /* \"#utility.yul\":22138:22180   */\n      sstore\n        /* \"#utility.yul\":22219:22220   */\n      0x01\n        /* \"#utility.yul\":22211:22217   */\n      dup3\n        /* \"#utility.yul\":22207:22221   */\n      add\n        /* \"#utility.yul\":22197:22221   */\n      swap2\n      pop\n        /* \"#utility.yul\":22266:22268   */\n      0x20\n        /* \"#utility.yul\":22255:22264   */\n      dup6\n        /* \"#utility.yul\":22251:22269   */\n      add\n        /* \"#utility.yul\":22238:22269   */\n      swap5\n      pop\n        /* \"#utility.yul\":22112:22116   */\n      0x20\n        /* \"#utility.yul\":22109:22110   */\n      dup2\n        /* \"#utility.yul\":22105:22117   */\n      add\n        /* \"#utility.yul\":22100:22117   */\n      swap1\n      pop\n        /* \"#utility.yul\":22075:22283   */\n      jump(tag_422)\n    tag_424:\n        /* \"#utility.yul\":22311:22317   */\n      dup7\n        /* \"#utility.yul\":22302:22309   */\n      dup4\n        /* \"#utility.yul\":22299:22318   */\n      lt\n        /* \"#utility.yul\":22296:22475   */\n      iszero\n      tag_425\n      jumpi\n        /* \"#utility.yul\":22369:22378   */\n      dup5\n        /* \"#utility.yul\":22364:22367   */\n      dup10\n        /* \"#utility.yul\":22360:22379   */\n      add\n        /* \"#utility.yul\":22354:22380   */\n      mload\n        /* \"#utility.yul\":22412:22460   */\n      tag_426\n        /* \"#utility.yul\":22454:22458   */\n      0x1f\n        /* \"#utility.yul\":22446:22452   */\n      dup10\n        /* \"#utility.yul\":22442:22459   */\n      and\n        /* \"#utility.yul\":22431:22440   */\n      dup3\n        /* \"#utility.yul\":22412:22460   */\n      tag_200\n      jump\t// in\n    tag_426:\n        /* \"#utility.yul\":22404:22410   */\n      dup4\n        /* \"#utility.yul\":22397:22461   */\n      sstore\n        /* \"#utility.yul\":22319:22475   */\n      pop\n        /* \"#utility.yul\":22296:22475   */\n    tag_425:\n        /* \"#utility.yul\":22521:22522   */\n      0x01\n        /* \"#utility.yul\":22517:22518   */\n      0x02\n        /* \"#utility.yul\":22509:22515   */\n      dup9\n        /* \"#utility.yul\":22505:22519   */\n      mul\n        /* \"#utility.yul\":22501:22523   */\n      add\n        /* \"#utility.yul\":22495:22499   */\n      dup9\n        /* \"#utility.yul\":22488:22524   */\n      sstore\n        /* \"#utility.yul\":21923:22534   */\n      pop\n      pop\n      pop\n        /* \"#utility.yul\":21886:22773   */\n    tag_417:\n      pop\n        /* \"#utility.yul\":21476:22779   */\n      pop\n      pop\n      pop\n        /* \"#utility.yul\":21384:22779   */\n      pop\n      pop\n      jump\t// out\n        /* \"#utility.yul\":22785:23227   */\n    tag_102:\n        /* \"#utility.yul\":22934:22938   */\n      0x00\n        /* \"#utility.yul\":22972:22974   */\n      0x60\n        /* \"#utility.yul\":22961:22970   */\n      dup3\n        /* \"#utility.yul\":22957:22975   */\n      add\n        /* \"#utility.yul\":22949:22975   */\n      swap1\n      pop\n        /* \"#utility.yul\":22985:23056   */\n      tag_428\n        /* \"#utility.yul\":23053:23054   */\n      0x00\n        /* \"#utility.yul\":23042:23051   */\n      dup4\n        /* \"#utility.yul\":23038:23055   */\n      add\n        /* \"#utility.yul\":23029:23035   */\n      dup7\n        /* \"#utility.yul\":22985:23056   */\n      tag_162\n      jump\t// in\n    tag_428:\n        /* \"#utility.yul\":23066:23138   */\n      tag_429\n        /* \"#utility.yul\":23134:23136   */\n      0x20\n        /* \"#utility.yul\":23123:23132   */\n      dup4\n        /* \"#utility.yul\":23119:23137   */\n      add\n        /* \"#utility.yul\":23110:23116   */\n      dup6\n        /* \"#utility.yul\":23066:23138   */\n      tag_164\n      jump\t// in\n    tag_429:\n        /* \"#utility.yul\":23148:23220   */\n      tag_430\n        /* \"#utility.yul\":23216:23218   */\n      0x40\n        /* \"#utility.yul\":23205:23214   */\n      dup4\n        /* \"#utility.yul\":23201:23219   */\n      add\n        /* \"#utility.yul\":23192:23198   */\n      dup5\n        /* \"#utility.yul\":23148:23220   */\n      tag_167\n      jump\t// in\n    tag_430:\n        /* \"#utility.yul\":22785:23227   */\n      swap5\n      swap4\n      pop\n      pop\n      pop\n      pop\n      jump\t// out\n        /* \"#utility.yul\":23233:23414   */\n    tag_202:\n        /* \"#utility.yul\":23373:23406   */\n      0x4f6e6c79206f726967696e616c206472697665722063616e2075706461746500\n        /* \"#utility.yul\":23369:23370   */\n      0x00\n        /* \"#utility.yul\":23361:23367   */\n      dup3\n        /* \"#utility.yul\":23357:23371   */\n      add\n        /* \"#utility.yul\":23350:23407   */\n      mstore\n        /* \"#utility.yul\":23233:23414   */\n      pop\n      jump\t// out\n        /* \"#utility.yul\":23420:23786   */\n    tag_203:\n        /* \"#utility.yul\":23562:23565   */\n      0x00\n        /* \"#utility.yul\":23583:23650   */\n      tag_433\n        /* \"#utility.yul\":23647:23649   */\n      0x1f\n        /* \"#utility.yul\":23642:23645   */\n      dup4\n        /* \"#utility.yul\":23583:23650   */\n      tag_158\n      jump\t// in\n    tag_433:\n        /* \"#utility.yul\":23576:23650   */\n      swap2\n      pop\n        /* \"#utility.yul\":23659:23752   */\n      tag_434\n        /* \"#utility.yul\":23748:23751   */\n      dup3\n        /* \"#utility.yul\":23659:23752   */\n      tag_202\n      jump\t// in\n    tag_434:\n        /* \"#utility.yul\":23777:23779   */\n      0x20\n        /* \"#utility.yul\":23772:23775   */\n      dup3\n        /* \"#utility.yul\":23768:23780   */\n      add\n        /* \"#utility.yul\":23761:23780   */\n      swap1\n      pop\n        /* \"#utility.yul\":23420:23786   */\n      swap2\n      swap1\n      pop\n      jump\t// out\n        /* \"#utility.yul\":23792:24211   */\n    tag_132:\n        /* \"#utility.yul\":23958:23962   */\n      0x00\n        /* \"#utility.yul\":23996:23998   */\n      0x20\n        /* \"#utility.yul\":23985:23994   */\n      dup3\n        /* \"#utility.yul\":23981:23999   */\n      add\n        /* \"#utility.yul\":23973:23999   */\n      swap1\n      pop\n        /* \"#utility.yul\":24045:24054   */\n      dup2\n        /* \"#utility.yul\":24039:24043   */\n      dup2\n        /* \"#utility.yul\":24035:24055   */\n      sub\n        /* \"#utility.yul\":24031:24032   */\n      0x00\n        /* \"#utility.yul\":24020:24029   */\n      dup4\n        /* \"#utility.yul\":24016:24033   */\n      add\n        /* \"#utility.yul\":24009:24056   */\n      mstore\n        /* \"#utility.yul\":24073:24204   */\n      tag_436\n        /* \"#utility.yul\":24199:24203   */\n      dup2\n        /* \"#utility.yul\":24073:24204   */\n      tag_203\n      jump\t// in\n    tag_436:\n        /* \"#utility.yul\":24065:24204   */\n      swap1\n      pop\n        /* \"#utility.yul\":23792:24211   */\n      swap2\n      swap1\n      pop\n      jump\t// out\n        /* \"#utility.yul\":24217:24750   */\n    tag_139:\n        /* \"#utility.yul\":24386:24390   */\n      0x00\n        /* \"#utility.yul\":24424:24426   */\n      0x60\n        /* \"#utility.yul\":24413:24422   */\n      dup3\n        /* \"#utility.yul\":24409:24427   */\n      add\n        /* \"#utility.yul\":24401:24427   */\n      swap1\n      pop\n        /* \"#utility.yul\":24437:24508   */\n      tag_438\n        /* \"#utility.yul\":24505:24506   */\n      0x00\n        /* \"#utility.yul\":24494:24503   */\n      dup4\n        /* \"#utility.yul\":24490:24507   */\n      add\n        /* \"#utility.yul\":24481:24487   */\n      dup7\n        /* \"#utility.yul\":24437:24508   */\n      tag_162\n      jump\t// in\n    tag_438:\n        /* \"#utility.yul\":24555:24564   */\n      dup2\n        /* \"#utility.yul\":24549:24553   */\n      dup2\n        /* \"#utility.yul\":24545:24565   */\n      sub\n        /* \"#utility.yul\":24540:24542   */\n      0x20\n        /* \"#utility.yul\":24529:24538   */\n      dup4\n        /* \"#utility.yul\":24525:24543   */\n      add\n        /* \"#utility.yul\":24518:24566   */\n      mstore\n        /* \"#utility.yul\":24583:24661   */\n      tag_439\n        /* \"#utility.yul\":24656:24660   */\n      dup2\n        /* \"#utility.yul\":24647:24653   */\n      dup6\n        /* \"#utility.yul\":24583:24661   */\n      tag_160\n      jump\t// in\n    tag_439:\n        /* \"#utility.yul\":24575:24661   */\n      swap1\n      pop\n        /* \"#utility.yul\":24671:24743   */\n      tag_440\n        /* \"#utility.yul\":24739:24741   */\n      0x40\n        /* \"#utility.yul\":24728:24737   */\n      dup4\n        /* \"#utility.yul\":24724:24742   */\n      add\n        /* \"#utility.yul\":24715:24721   */\n      dup5\n        /* \"#utility.yul\":24671:24743   */\n      tag_164\n      jump\t// in\n    tag_440:\n        /* \"#utility.yul\":24217:24750   */\n      swap5\n      swap4\n      pop\n      pop\n      pop\n      pop\n      jump\t// out\n        /* \"#utility.yul\":24756:25198   */\n    tag_143:\n        /* \"#utility.yul\":24905:24909   */\n      0x00\n        /* \"#utility.yul\":24943:24945   */\n      0x60\n        /* \"#utility.yul\":24932:24941   */\n      dup3\n        /* \"#utility.yul\":24928:24946   */\n      add\n        /* \"#utility.yul\":24920:24946   */\n      swap1\n      pop\n        /* \"#utility.yul\":24956:25027   */\n      tag_442\n        /* \"#utility.yul\":25024:25025   */\n      0x00\n        /* \"#utility.yul\":25013:25022   */\n      dup4\n        /* \"#utility.yul\":25009:25026   */\n      add\n        /* \"#utility.yul\":25000:25006   */\n      dup7\n        /* \"#utility.yul\":24956:25027   */\n      tag_162\n      jump\t// in\n    tag_442:\n        /* \"#utility.yul\":25037:25109   */\n      tag_443\n        /* \"#utility.yul\":25105:25107   */\n      0x20\n        /* \"#utility.yul\":25094:25103   */\n      dup4\n        /* \"#utility.yul\":25090:25108   */\n      add\n        /* \"#utility.yul\":25081:25087   */\n      dup6\n        /* \"#utility.yul\":25037:25109   */\n      tag_164\n      jump\t// in\n    tag_443:\n        /* \"#utility.yul\":25119:25191   */\n      tag_444\n        /* \"#utility.yul\":25187:25189   */\n      0x40\n        /* \"#utility.yul\":25176:25185   */\n      dup4\n        /* \"#utility.yul\":25172:25190   */\n      add\n        /* \"#utility.yul\":25163:25169   */\n      dup5\n        /* \"#utility.yul\":25119:25191   */\n      tag_164\n      jump\t// in\n    tag_444:\n        /* \"#utility.yul\":24756:25198   */\n      swap5\n      swap4\n      pop\n      pop\n      pop\n      pop\n      jump\t// out\n\n    auxdata: 0xa2646970667358221220bb44a1391039862dd2040c5c70dcc9b358cf7fe0a312e492c0bead4011c4db2064736f6c634300081e0033\n}\n",
				"bytecode": {
					"linkReferences": {},
					"object": "6080604052348015600e575f5ffd5b50611a418061001c5f395ff3fe608060405234801561000f575f5ffd5b5060043610610086575f3560e01c80637bce49d9116100595780637bce49d91461012b578063be1af9251461015b578063cffbffb51461018b578063fcbb3c47146101c357610086565b80631b5f03a61461008a57806332252057146100c15780635f2a1cc4146100df57806369d1d76a1461010f575b5f5ffd5b6100a4600480360381019061009f9190610ee3565b6101df565b6040516100b8989796959493929190610ff9565b60405180910390f35b6100c9610484565b6040516100d69190611083565b60405180910390f35b6100f960048036038101906100f491906110c6565b610490565b60405161010691906110f1565b60405180910390f35b6101296004803603810190610124919061113b565b610583565b005b610145600480360381019061014091906111ea565b61083c565b604051610152919061125e565b60405180910390f35b610175600480360381019061017091906110c6565b6108d4565b60405161018291906110f1565b60405180910390f35b6101a560048036038101906101a09190610ee3565b61097a565b6040516101ba99989796959493929190611277565b60405180910390f35b6101dd60048036038101906101d89190611310565b610b12565b005b60605f5f5f60605f5f5f5f896040516101f891906113e6565b90815260200160405180910390206008015f9054906101000a900460ff16610255576040517f08c379a000000000000000000000000000000000000000000000000000000000815260040161024c90611446565b60405180910390fd5b5f5f8a60405161026591906113e6565b9081526020016040518091039020604051806101200160405290815f8201805461028e90611491565b80601f01602080910402602001604051908101604052809291908181526020018280546102ba90611491565b80156103055780601f106102dc57610100808354040283529160200191610305565b820191905f5260205f20905b8154815290600101906020018083116102e857829003601f168201915b505050505081526020016001820154815260200160028201548152602001600382015f9054906101000a900473ffffffffffffffffffffffffffffffffffffffff1673ffffffffffffffffffffffffffffffffffffffff1673ffffffffffffffffffffffffffffffffffffffff16815260200160048201805461038790611491565b80601f01602080910402602001604051908101604052809291908181526020018280546103b390611491565b80156103fe5780601f106103d5576101008083540402835291602001916103fe565b820191905f5260205f20905b8154815290600101906020018083116103e157829003601f168201915b50505050508152602001600582015481526020016006820154815260200160078201548152602001600882015f9054906101000a900460ff1615151515815250509050805f015181602001518260400151836060015184608001518560a001518660c001518760e001519850985098509850985098509850985050919395975091939597565b5f600180549050905090565b606060018054905082106104d9576040517f08c379a00000000000000000000000000000000000000000000000000000000081526004016104d09061150b565b60405180910390fd5b600182815481106104ed576104ec611529565b5b905f5260205f2001805461050090611491565b80601f016020809104026020016040519081016040528092919081815260200182805461052c90611491565b80156105775780601f1061054e57610100808354040283529160200191610577565b820191905f5260205f20905b81548152906001019060200180831161055a57829003601f168201915b50505050509050919050565b5f8560405161059291906113e6565b90815260200160405180910390206008015f9054906101000a900460ff16156105f0576040517f08c379a00000000000000000000000000000000000000000000000000000000081526004016105e7906115a0565b60405180910390fd5b5f855111610633576040517f08c379a000000000000000000000000000000000000000000000000000000000815260040161062a90611608565b60405180910390fd5b5f5f1b8403610677576040517f08c379a000000000000000000000000000000000000000000000000000000000815260040161066e90611670565b60405180910390fd5b6040518061012001604052808681526020018581526020014281526020013373ffffffffffffffffffffffffffffffffffffffff1681526020018481526020018381526020018281526020015f8152602001600115158152505f866040516106df91906113e6565b90815260200160405180910390205f820151815f019081610700919061182e565b5060208201518160010155604082015181600201556060820151816003015f6101000a81548173ffffffffffffffffffffffffffffffffffffffff021916908373ffffffffffffffffffffffffffffffffffffffff1602179055506080820151816004019081610770919061182e565b5060a0820151816005015560c0820151816006015560e08201518160070155610100820151816008015f6101000a81548160ff021916908315150217905550905050600185908060018154018082558091505060019003905f5260205f20015f9091909190915090816107e3919061182e565b50846040516107f291906113e6565b60405180910390207f57e59320c8b483f9aefd540dc61987f2c7a6b6a3f50bb3951e2ccb784235525985423360405161082d939291906118fd565b60405180910390a25050505050565b5f5f8360405161084c91906113e6565b90815260200160405180910390206008015f9054906101000a900460ff166108a9576040517f08c379a00000000000000000000000000000000000000000000000000000000081526004016108a090611446565b60405180910390fd5b815f846040516108b991906113e6565b90815260200160405180910390206001015414905092915050565b600181815481106108e3575f80fd5b905f5260205f20015f9150905080546108fb90611491565b80601f016020809104026020016040519081016040528092919081815260200182805461092790611491565b80156109725780601f1061094957610100808354040283529160200191610972565b820191905f5260205f20905b81548152906001019060200180831161095557829003601f168201915b505050505081565b5f818051602081018201805184825260208301602085012081835280955050505050505f91509050805f0180546109b090611491565b80601f01602080910402602001604051908101604052809291908181526020018280546109dc90611491565b8015610a275780601f106109fe57610100808354040283529160200191610a27565b820191905f5260205f20905b815481529060010190602001808311610a0a57829003601f168201915b505050505090806001015490806002015490806003015f9054906101000a900473ffffffffffffffffffffffffffffffffffffffff1690806004018054610a6d90611491565b80601f0160208091040260200160405190810160405280929190818152602001828054610a9990611491565b8015610ae45780601f10610abb57610100808354040283529160200191610ae4565b820191905f5260205f20905b815481529060010190602001808311610ac757829003601f168201915b505050505090806005015490806006015490806007015490806008015f9054906101000a900460ff16905089565b5f84604051610b2191906113e6565b90815260200160405180910390206008015f9054906101000a900460ff16610b7e576040517f08c379a0000000000000000000000000000000000000000000000000000000008152600401610b7590611446565b60405180910390fd5b3373ffffffffffffffffffffffffffffffffffffffff165f85604051610ba491906113e6565b90815260200160405180910390206003015f9054906101000a900473ffffffffffffffffffffffffffffffffffffffff1673ffffffffffffffffffffffffffffffffffffffff1614610c2b576040517f08c379a0000000000000000000000000000000000000000000000000000000008152600401610c229061197c565b60405180910390fd5b825f85604051610c3b91906113e6565b908152602001604051809103902060010181905550815f85604051610c6091906113e6565b90815260200160405180910390206004019081610c7d919061182e565b50805f85604051610c8e91906113e6565b90815260200160405180910390206007018190555083604051610cb191906113e6565b60405180910390207f271724f27b6d5816a761eaf896bb494fe7b522d450082a5c23c4f932552c6c62848442604051610cec9392919061199a565b60405180910390a26040518060400160405280600981526020017f636f6d706c65746564000000000000000000000000000000000000000000000081525080519060200120828051906020012003610d905783604051610d4c91906113e6565b60405180910390207fd290cdb2c9d5693b27ddc7d98e4d18cb82a75b991ef8022bcf438c214be7bce5848342604051610d87939291906119d6565b60405180910390a25b50505050565b5f604051905090565b5f5ffd5b5f5ffd5b5f5ffd5b5f5ffd5b5f601f19601f8301169050919050565b7f4e487b71000000000000000000000000000000000000000000000000000000005f52604160045260245ffd5b610df582610daf565b810181811067ffffffffffffffff82111715610e1457610e13610dbf565b5b80604052505050565b5f610e26610d96565b9050610e328282610dec565b919050565b5f67ffffffffffffffff821115610e5157610e50610dbf565b5b610e5a82610daf565b9050602081019050919050565b828183375f83830152505050565b5f610e87610e8284610e37565b610e1d565b905082815260208101848484011115610ea357610ea2610dab565b5b610eae848285610e67565b509392505050565b5f82601f830112610eca57610ec9610da7565b5b8135610eda848260208601610e75565b91505092915050565b5f60208284031215610ef857610ef7610d9f565b5b5f82013567ffffffffffffffff811115610f1557610f14610da3565b5b610f2184828501610eb6565b91505092915050565b5f81519050919050565b5f82825260208201905092915050565b8281835e5f83830152505050565b5f610f5c82610f2a565b610f668185610f34565b9350610f76818560208601610f44565b610f7f81610daf565b840191505092915050565b5f819050919050565b610f9c81610f8a565b82525050565b5f819050919050565b610fb481610fa2565b82525050565b5f73ffffffffffffffffffffffffffffffffffffffff82169050919050565b5f610fe382610fba565b9050919050565b610ff381610fd9565b82525050565b5f610100820190508181035f830152611012818b610f52565b9050611021602083018a610f93565b61102e6040830189610fab565b61103b6060830188610fea565b818103608083015261104d8187610f52565b905061105c60a0830186610fab565b61106960c0830185610fab565b61107660e0830184610fab565b9998505050505050505050565b5f6020820190506110965f830184610fab565b92915050565b6110a581610fa2565b81146110af575f5ffd5b50565b5f813590506110c08161109c565b92915050565b5f602082840312156110db576110da610d9f565b5b5f6110e8848285016110b2565b91505092915050565b5f6020820190508181035f8301526111098184610f52565b905092915050565b61111a81610f8a565b8114611124575f5ffd5b50565b5f8135905061113581611111565b92915050565b5f5f5f5f5f60a0868803121561115457611153610d9f565b5b5f86013567ffffffffffffffff81111561117157611170610da3565b5b61117d88828901610eb6565b955050602061118e88828901611127565b945050604086013567ffffffffffffffff8111156111af576111ae610da3565b5b6111bb88828901610eb6565b93505060606111cc888289016110b2565b92505060806111dd888289016110b2565b9150509295509295909350565b5f5f60408385031215611200576111ff610d9f565b5b5f83013567ffffffffffffffff81111561121d5761121c610da3565b5b61122985828601610eb6565b925050602061123a85828601611127565b9150509250929050565b5f8115159050919050565b61125881611244565b82525050565b5f6020820190506112715f83018461124f565b92915050565b5f610120820190508181035f830152611290818c610f52565b905061129f602083018b610f93565b6112ac604083018a610fab565b6112b96060830189610fea565b81810360808301526112cb8188610f52565b90506112da60a0830187610fab565b6112e760c0830186610fab565b6112f460e0830185610fab565b61130261010083018461124f565b9a9950505050505050505050565b5f5f5f5f6080858703121561132857611327610d9f565b5b5f85013567ffffffffffffffff81111561134557611344610da3565b5b61135187828801610eb6565b945050602061136287828801611127565b935050604085013567ffffffffffffffff81111561138357611382610da3565b5b61138f87828801610eb6565b92505060606113a0878288016110b2565b91505092959194509250565b5f81905092915050565b5f6113c082610f2a565b6113ca81856113ac565b93506113da818560208601610f44565b80840191505092915050565b5f6113f182846113b6565b915081905092915050565b7f526f75746520646f6573206e6f742065786973740000000000000000000000005f82015250565b5f611430601483610f34565b915061143b826113fc565b602082019050919050565b5f6020820190508181035f83015261145d81611424565b9050919050565b7f4e487b71000000000000000000000000000000000000000000000000000000005f52602260045260245ffd5b5f60028204905060018216806114a857607f821691505b6020821081036114bb576114ba611464565b5b50919050565b7f496e646578206f7574206f6620626f756e6473000000000000000000000000005f82015250565b5f6114f5601383610f34565b9150611500826114c1565b602082019050919050565b5f6020820190508181035f830152611522816114e9565b9050919050565b7f4e487b71000000000000000000000000000000000000000000000000000000005f52603260045260245ffd5b7f526f75746520616c7265616479206578697374730000000000000000000000005f82015250565b5f61158a601483610f34565b915061159582611556565b602082019050919050565b5f6020820190508181035f8301526115b78161157e565b9050919050565b7f526f7574652049442063616e6e6f7420626520656d70747900000000000000005f82015250565b5f6115f2601883610f34565b91506115fd826115be565b602082019050919050565b5f6020820190508181035f83015261161f816115e6565b9050919050565b7f4461746120686173682063616e6e6f7420626520656d707479000000000000005f82015250565b5f61165a601983610f34565b915061166582611626565b602082019050919050565b5f6020820190508181035f8301526116878161164e565b9050919050565b5f819050815f5260205f209050919050565b5f6020601f8301049050919050565b5f82821b905092915050565b5f600883026116ea7fffffffffffffffffffffffffffffffffffffffffffffffffffffffffffffffff826116af565b6116f486836116af565b95508019841693508086168417925050509392505050565b5f819050919050565b5f61172f61172a61172584610fa2565b61170c565b610fa2565b9050919050565b5f819050919050565b61174883611715565b61175c61175482611736565b8484546116bb565b825550505050565b5f5f905090565b611773611764565b61177e81848461173f565b505050565b5b818110156117a1576117965f8261176b565b600181019050611784565b5050565b601f8211156117e6576117b78161168e565b6117c0846116a0565b810160208510156117cf578190505b6117e36117db856116a0565b830182611783565b50505b505050565b5f82821c905092915050565b5f6118065f19846008026117eb565b1980831691505092915050565b5f61181e83836117f7565b9150826002028217905092915050565b61183782610f2a565b67ffffffffffffffff8111156118505761184f610dbf565b5b61185a8254611491565b6118658282856117a5565b5f60209050601f831160018114611896575f8415611884578287015190505b61188e8582611813565b8655506118f5565b601f1984166118a48661168e565b5f5b828110156118cb578489015182556001820191506020850194506020810190506118a6565b868310156118e857848901516118e4601f8916826117f7565b8355505b6001600288020188555050505b505050505050565b5f6060820190506119105f830186610f93565b61191d6020830185610fab565b61192a6040830184610fea565b949350505050565b7f4f6e6c79206f726967696e616c206472697665722063616e20757064617465005f82015250565b5f611966601f83610f34565b915061197182611932565b602082019050919050565b5f6020820190508181035f8301526119938161195a565b9050919050565b5f6060820190506119ad5f830186610f93565b81810360208301526119bf8185610f52565b90506119ce6040830184610fab565b949350505050565b5f6060820190506119e95f830186610f93565b6119f66020830185610fab565b611a036040830184610fab565b94935050505056fea2646970667358221220bb44a1391039862dd2040c5c70dcc9b358cf7fe0a312e492c0bead4011c4db2064736f6c634300081e0033",
					"opcodes": "PUSH1 0x80 PUSH1 0x40 MSTORE CALLVALUE DUP1 ISZERO PUSH1 0xE JUMPI PUSH0 PUSH0 REVERT JUMPDEST POP PUSH2 0x1A41 DUP1 PUSH2 0x1C PUSH0 CODECOPY PUSH0 RETURN INVALID PUSH1 0x80 PUSH1 0x40 MSTORE CALLVALUE DUP1 ISZERO PUSH2 0xF JUMPI PUSH0 PUSH0 REVERT JUMPDEST POP PUSH1 0x4 CALLDATASIZE LT PUSH2 0x86 JUMPI PUSH0 CALLDATALOAD PUSH1 0xE0 SHR DUP1 PUSH4 0x7BCE49D9 GT PUSH2 0x59 JUMPI DUP1 PUSH4 0x7BCE49D9 EQ PUSH2 0x12B JUMPI DUP1 PUSH4 0xBE1AF925 EQ PUSH2 0x15B JUMPI DUP1 PUSH4 0xCFFBFFB5 EQ PUSH2 0x18B JUMPI DUP1 PUSH4 0xFCBB3C47 EQ PUSH2 0x1C3 JUMPI PUSH2 0x86 JUMP JUMPDEST DUP1 PUSH4 0x1B5F03A6 EQ PUSH2 0x8A JUMPI DUP1 PUSH4 0x32252057 EQ PUSH2 0xC1 JUMPI DUP1 PUSH4 0x5F2A1CC4 EQ PUSH2 0xDF JUMPI DUP1 PUSH4 0x69D1D76A EQ PUSH2 0x10F JUMPI JUMPDEST PUSH0 PUSH0 REVERT JUMPDEST PUSH2 0xA4 PUSH1 0x4 DUP1 CALLDATASIZE SUB DUP2 ADD SWAP1 PUSH2 0x9F SWAP2 SWAP1 PUSH2 0xEE3 JUMP JUMPDEST PUSH2 0x1DF JUMP JUMPDEST PUSH1 0x40 MLOAD PUSH2 0xB8 SWAP9 SWAP8 SWAP7 SWAP6 SWAP5 SWAP4 SWAP3 SWAP2 SWAP1 PUSH2 0xFF9 JUMP JUMPDEST PUSH1 0x40 MLOAD DUP1 SWAP2 SUB SWAP1 RETURN JUMPDEST PUSH2 0xC9 PUSH2 0x484 JUMP JUMPDEST PUSH1 0x40 MLOAD PUSH2 0xD6 SWAP2 SWAP1 PUSH2 0x1083 JUMP JUMPDEST PUSH1 0x40 MLOAD DUP1 SWAP2 SUB SWAP1 RETURN JUMPDEST PUSH2 0xF9 PUSH1 0x4 DUP1 CALLDATASIZE SUB DUP2 ADD SWAP1 PUSH2 0xF4 SWAP2 SWAP1 PUSH2 0x10C6 JUMP JUMPDEST PUSH2 0x490 JUMP JUMPDEST PUSH1 0x40 MLOAD PUSH2 0x106 SWAP2 SWAP1 PUSH2 0x10F1 JUMP JUMPDEST PUSH1 0x40 MLOAD DUP1 SWAP2 SUB SWAP1 RETURN JUMPDEST PUSH2 0x129 PUSH1 0x4 DUP1 CALLDATASIZE SUB DUP2 ADD SWAP1 PUSH2 0x124 SWAP2 SWAP1 PUSH2 0x113B JUMP JUMPDEST PUSH2 0x583 JUMP JUMPDEST STOP JUMPDEST PUSH2 0x145 PUSH1 0x4 DUP1 CALLDATASIZE SUB DUP2 ADD SWAP1 PUSH2 0x140 SWAP2 SWAP1 PUSH2 0x11EA JUMP JUMPDEST PUSH2 0x83C JUMP JUMPDEST PUSH1 0x40 MLOAD PUSH2 0x152 SWAP2 SWAP1 PUSH2 0x125E JUMP JUMPDEST PUSH1 0x40 MLOAD DUP1 SWAP2 SUB SWAP1 RETURN JUMPDEST PUSH2 0x175 PUSH1 0x4 DUP1 CALLDATASIZE SUB DUP2 ADD SWAP1 PUSH2 0x170 SWAP2 SWAP1 PUSH2 0x10C6 JUMP JUMPDEST PUSH2 0x8D4 JUMP JUMPDEST PUSH1 0x40 MLOAD PUSH2 0x182 SWAP2 SWAP1 PUSH2 0x10F1 JUMP JUMPDEST PUSH1 0x40 MLOAD DUP1 SWAP2 SUB SWAP1 RETURN JUMPDEST PUSH2 0x1A5 PUSH1 0x4 DUP1 CALLDATASIZE SUB DUP2 ADD SWAP1 PUSH2 0x1A0 SWAP2 SWAP1 PUSH2 0xEE3 JUMP JUMPDEST PUSH2 0x97A JUMP JUMPDEST PUSH1 0x40 MLOAD PUSH2 0x1BA SWAP10 SWAP9 SWAP8 SWAP7 SWAP6 SWAP5 SWAP4 SWAP3 SWAP2 SWAP1 PUSH2 0x1277 JUMP JUMPDEST PUSH1 0x40 MLOAD DUP1 SWAP2 SUB SWAP1 RETURN JUMPDEST PUSH2 0x1DD PUSH1 0x4 DUP1 CALLDATASIZE SUB DUP2 ADD SWAP1 PUSH2 0x1D8 SWAP2 SWAP1 PUSH2 0x1310 JUMP JUMPDEST PUSH2 0xB12 JUMP JUMPDEST STOP JUMPDEST PUSH1 0x60 PUSH0 PUSH0 PUSH0 PUSH1 0x60 PUSH0 PUSH0 PUSH0 PUSH0 DUP10 PUSH1 0x40 MLOAD PUSH2 0x1F8 SWAP2 SWAP1 PUSH2 0x13E6 JUMP JUMPDEST SWAP1 DUP2 MSTORE PUSH1 0x20 ADD PUSH1 0x40 MLOAD DUP1 SWAP2 SUB SWAP1 KECCAK256 PUSH1 0x8 ADD PUSH0 SWAP1 SLOAD SWAP1 PUSH2 0x100 EXP SWAP1 DIV PUSH1 0xFF AND PUSH2 0x255 JUMPI PUSH1 0x40 MLOAD PUSH32 0x8C379A000000000000000000000000000000000000000000000000000000000 DUP2 MSTORE PUSH1 0x4 ADD PUSH2 0x24C SWAP1 PUSH2 0x1446 JUMP JUMPDEST PUSH1 0x40 MLOAD DUP1 SWAP2 SUB SWAP1 REVERT JUMPDEST PUSH0 PUSH0 DUP11 PUSH1 0x40 MLOAD PUSH2 0x265 SWAP2 SWAP1 PUSH2 0x13E6 JUMP JUMPDEST SWAP1 DUP2 MSTORE PUSH1 0x20 ADD PUSH1 0x40 MLOAD DUP1 SWAP2 SUB SWAP1 KECCAK256 PUSH1 0x40 MLOAD DUP1 PUSH2 0x120 ADD PUSH1 0x40 MSTORE SWAP1 DUP2 PUSH0 DUP3 ADD DUP1 SLOAD PUSH2 0x28E SWAP1 PUSH2 0x1491 JUMP JUMPDEST DUP1 PUSH1 0x1F ADD PUSH1 0x20 DUP1 SWAP2 DIV MUL PUSH1 0x20 ADD PUSH1 0x40 MLOAD SWAP1 DUP2 ADD PUSH1 0x40 MSTORE DUP1 SWAP3 SWAP2 SWAP1 DUP2 DUP2 MSTORE PUSH1 0x20 ADD DUP3 DUP1 SLOAD PUSH2 0x2BA SWAP1 PUSH2 0x1491 JUMP JUMPDEST DUP1 ISZERO PUSH2 0x305 JUMPI DUP1 PUSH1 0x1F LT PUSH2 0x2DC JUMPI PUSH2 0x100 DUP1 DUP4 SLOAD DIV MUL DUP4 MSTORE SWAP2 PUSH1 0x20 ADD SWAP2 PUSH2 0x305 JUMP JUMPDEST DUP3 ADD SWAP2 SWAP1 PUSH0 MSTORE PUSH1 0x20 PUSH0 KECCAK256 SWAP1 JUMPDEST DUP2 SLOAD DUP2 MSTORE SWAP1 PUSH1 0x1 ADD SWAP1 PUSH1 0x20 ADD DUP1 DUP4 GT PUSH2 0x2E8 JUMPI DUP3 SWAP1 SUB PUSH1 0x1F AND DUP3 ADD SWAP2 JUMPDEST POP POP POP POP POP DUP2 MSTORE PUSH1 0x20 ADD PUSH1 0x1 DUP3 ADD SLOAD DUP2 MSTORE PUSH1 0x20 ADD PUSH1 0x2 DUP3 ADD SLOAD DUP2 MSTORE PUSH1 0x20 ADD PUSH1 0x3 DUP3 ADD PUSH0 SWAP1 SLOAD SWAP1 PUSH2 0x100 EXP SWAP1 DIV PUSH20 0xFFFFFFFFFFFFFFFFFFFFFFFFFFFFFFFFFFFFFFFF AND PUSH20 0xFFFFFFFFFFFFFFFFFFFFFFFFFFFFFFFFFFFFFFFF AND PUSH20 0xFFFFFFFFFFFFFFFFFFFFFFFFFFFFFFFFFFFFFFFF AND DUP2 MSTORE PUSH1 0x20 ADD PUSH1 0x4 DUP3 ADD DUP1 SLOAD PUSH2 0x387 SWAP1 PUSH2 0x1491 JUMP JUMPDEST DUP1 PUSH1 0x1F ADD PUSH1 0x20 DUP1 SWAP2 DIV MUL PUSH1 0x20 ADD PUSH1 0x40 MLOAD SWAP1 DUP2 ADD PUSH1 0x40 MSTORE DUP1 SWAP3 SWAP2 SWAP1 DUP2 DUP2 MSTORE PUSH1 0x20 ADD DUP3 DUP1 SLOAD PUSH2 0x3B3 SWAP1 PUSH2 0x1491 JUMP JUMPDEST DUP1 ISZERO PUSH2 0x3FE JUMPI DUP1 PUSH1 0x1F LT PUSH2 0x3D5 JUMPI PUSH2 0x100 DUP1 DUP4 SLOAD DIV MUL DUP4 MSTORE SWAP2 PUSH1 0x20 ADD SWAP2 PUSH2 0x3FE JUMP JUMPDEST DUP3 ADD SWAP2 SWAP1 PUSH0 MSTORE PUSH1 0x20 PUSH0 KECCAK256 SWAP1 JUMPDEST DUP2 SLOAD DUP2 MSTORE SWAP1 PUSH1 0x1 ADD SWAP1 PUSH1 0x20 ADD DUP1 DUP4 GT PUSH2 0x3E1 JUMPI DUP3 SWAP1 SUB PUSH1 0x1F AND DUP3 ADD SWAP2 JUMPDEST POP POP POP POP POP DUP2 MSTORE PUSH1 0x20 ADD PUSH1 0x5 DUP3 ADD SLOAD DUP2 MSTORE PUSH1 0x20 ADD PUSH1 0x6 DUP3 ADD SLOAD DUP2 MSTORE PUSH1 0x20 ADD PUSH1 0x7 DUP3 ADD SLOAD DUP2 MSTORE PUSH1 0x20 ADD PUSH1 0x8 DUP3 ADD PUSH0 SWAP1 SLOAD SWAP1 PUSH2 0x100 EXP SWAP1 DIV PUSH1 0xFF AND ISZERO ISZERO ISZERO ISZERO DUP2 MSTORE POP POP SWAP1 POP DUP1 PUSH0 ADD MLOAD DUP2 PUSH1 0x20 ADD MLOAD DUP3 PUSH1 0x40 ADD MLOAD DUP4 PUSH1 0x60 ADD MLOAD DUP5 PUSH1 0x80 ADD MLOAD DUP6 PUSH1 0xA0 ADD MLOAD DUP7 PUSH1 0xC0 ADD MLOAD DUP8 PUSH1 0xE0 ADD MLOAD SWAP9 POP SWAP9 POP SWAP9 POP SWAP9 POP SWAP9 POP SWAP9 POP SWAP9 POP SWAP9 POP POP SWAP2 SWAP4 SWAP6 SWAP8 POP SWAP2 SWAP4 SWAP6 SWAP8 JUMP JUMPDEST PUSH0 PUSH1 0x1 DUP1 SLOAD SWAP1 POP SWAP1 POP SWAP1 JUMP JUMPDEST PUSH1 0x60 PUSH1 0x1 DUP1 SLOAD SWAP1 POP DUP3 LT PUSH2 0x4D9 JUMPI PUSH1 0x40 MLOAD PUSH32 0x8C379A000000000000000000000000000000000000000000000000000000000 DUP2 MSTORE PUSH1 0x4 ADD PUSH2 0x4D0 SWAP1 PUSH2 0x150B JUMP JUMPDEST PUSH1 0x40 MLOAD DUP1 SWAP2 SUB SWAP1 REVERT JUMPDEST PUSH1 0x1 DUP3 DUP2 SLOAD DUP2 LT PUSH2 0x4ED JUMPI PUSH2 0x4EC PUSH2 0x1529 JUMP JUMPDEST JUMPDEST SWAP1 PUSH0 MSTORE PUSH1 0x20 PUSH0 KECCAK256 ADD DUP1 SLOAD PUSH2 0x500 SWAP1 PUSH2 0x1491 JUMP JUMPDEST DUP1 PUSH1 0x1F ADD PUSH1 0x20 DUP1 SWAP2 DIV MUL PUSH1 0x20 ADD PUSH1 0x40 MLOAD SWAP1 DUP2 ADD PUSH1 0x40 MSTORE DUP1 SWAP3 SWAP2 SWAP1 DUP2 DUP2 MSTORE PUSH1 0x20 ADD DUP3 DUP1 SLOAD PUSH2 0x52C SWAP1 PUSH2 0x1491 JUMP JUMPDEST DUP1 ISZERO PUSH2 0x577 JUMPI DUP1 PUSH1 0x1F LT PUSH2 0x54E JUMPI PUSH2 0x100 DUP1 DUP4 SLOAD DIV MUL DUP4 MSTORE SWAP2 PUSH1 0x20 ADD SWAP2 PUSH2 0x577 JUMP JUMPDEST DUP3 ADD SWAP2 SWAP1 PUSH0 MSTORE PUSH1 0x20 PUSH0 KECCAK256 SWAP1 JUMPDEST DUP2 SLOAD DUP2 MSTORE SWAP1 PUSH1 0x1 ADD SWAP1 PUSH1 0x20 ADD DUP1 DUP4 GT PUSH2 0x55A JUMPI DUP3 SWAP1 SUB PUSH1 0x1F AND DUP3 ADD SWAP2 JUMPDEST POP POP POP POP POP SWAP1 POP SWAP2 SWAP1 POP JUMP JUMPDEST PUSH0 DUP6 PUSH1 0x40 MLOAD PUSH2 0x592 SWAP2 SWAP1 PUSH2 0x13E6 JUMP JUMPDEST SWAP1 DUP2 MSTORE PUSH1 0x20 ADD PUSH1 0x40 MLOAD DUP1 SWAP2 SUB SWAP1 KECCAK256 PUSH1 0x8 ADD PUSH0 SWAP1 SLOAD SWAP1 PUSH2 0x100 EXP SWAP1 DIV PUSH1 0xFF AND ISZERO PUSH2 0x5F0 JUMPI PUSH1 0x40 MLOAD PUSH32 0x8C379A000000000000000000000000000000000000000000000000000000000 DUP2 MSTORE PUSH1 0x4 ADD PUSH2 0x5E7 SWAP1 PUSH2 0x15A0 JUMP JUMPDEST PUSH1 0x40 MLOAD DUP1 SWAP2 SUB SWAP1 REVERT JUMPDEST PUSH0 DUP6 MLOAD GT PUSH2 0x633 JUMPI PUSH1 0x40 MLOAD PUSH32 0x8C379A000000000000000000000000000000000000000000000000000000000 DUP2 MSTORE PUSH1 0x4 ADD PUSH2 0x62A SWAP1 PUSH2 0x1608 JUMP JUMPDEST PUSH1 0x40 MLOAD DUP1 SWAP2 SUB SWAP1 REVERT JUMPDEST PUSH0 PUSH0 SHL DUP5 SUB PUSH2 0x677 JUMPI PUSH1 0x40 MLOAD PUSH32 0x8C379A000000000000000000000000000000000000000000000000000000000 DUP2 MSTORE PUSH1 0x4 ADD PUSH2 0x66E SWAP1 PUSH2 0x1670 JUMP JUMPDEST PUSH1 0x40 MLOAD DUP1 SWAP2 SUB SWAP1 REVERT JUMPDEST PUSH1 0x40 MLOAD DUP1 PUSH2 0x120 ADD PUSH1 0x40 MSTORE DUP1 DUP7 DUP2 MSTORE PUSH1 0x20 ADD DUP6 DUP2 MSTORE PUSH1 0x20 ADD TIMESTAMP DUP2 MSTORE PUSH1 0x20 ADD CALLER PUSH20 0xFFFFFFFFFFFFFFFFFFFFFFFFFFFFFFFFFFFFFFFF AND DUP2 MSTORE PUSH1 0x20 ADD DUP5 DUP2 MSTORE PUSH1 0x20 ADD DUP4 DUP2 MSTORE PUSH1 0x20 ADD DUP3 DUP2 MSTORE PUSH1 0x20 ADD PUSH0 DUP2 MSTORE PUSH1 0x20 ADD PUSH1 0x1 ISZERO ISZERO DUP2 MSTORE POP PUSH0 DUP7 PUSH1 0x40 MLOAD PUSH2 0x6DF SWAP2 SWAP1 PUSH2 0x13E6 JUMP JUMPDEST SWAP1 DUP2 MSTORE PUSH1 0x20 ADD PUSH1 0x40 MLOAD DUP1 SWAP2 SUB SWAP1 KECCAK256 PUSH0 DUP3 ADD MLOAD DUP2 PUSH0 ADD SWAP1 DUP2 PUSH2 0x700 SWAP2 SWAP1 PUSH2 0x182E JUMP JUMPDEST POP PUSH1 0x20 DUP3 ADD MLOAD DUP2 PUSH1 0x1 ADD SSTORE PUSH1 0x40 DUP3 ADD MLOAD DUP2 PUSH1 0x2 ADD SSTORE PUSH1 0x60 DUP3 ADD MLOAD DUP2 PUSH1 0x3 ADD PUSH0 PUSH2 0x100 EXP DUP2 SLOAD DUP2 PUSH20 0xFFFFFFFFFFFFFFFFFFFFFFFFFFFFFFFFFFFFFFFF MUL NOT AND SWAP1 DUP4 PUSH20 0xFFFFFFFFFFFFFFFFFFFFFFFFFFFFFFFFFFFFFFFF AND MUL OR SWAP1 SSTORE POP PUSH1 0x80 DUP3 ADD MLOAD DUP2 PUSH1 0x4 ADD SWAP1 DUP2 PUSH2 0x770 SWAP2 SWAP1 PUSH2 0x182E JUMP JUMPDEST POP PUSH1 0xA0 DUP3 ADD MLOAD DUP2 PUSH1 0x5 ADD SSTORE PUSH1 0xC0 DUP3 ADD MLOAD DUP2 PUSH1 0x6 ADD SSTORE PUSH1 0xE0 DUP3 ADD MLOAD DUP2 PUSH1 0x7 ADD SSTORE PUSH2 0x100 DUP3 ADD MLOAD DUP2 PUSH1 0x8 ADD PUSH0 PUSH2 0x100 EXP DUP2 SLOAD DUP2 PUSH1 0xFF MUL NOT AND SWAP1 DUP4 ISZERO ISZERO MUL OR SWAP1 SSTORE POP SWAP1 POP POP PUSH1 0x1 DUP6 SWAP1 DUP1 PUSH1 0x1 DUP2 SLOAD ADD DUP1 DUP3 SSTORE DUP1 SWAP2 POP POP PUSH1 0x1 SWAP1 SUB SWAP1 PUSH0 MSTORE PUSH1 0x20 PUSH0 KECCAK256 ADD PUSH0 SWAP1 SWAP2 SWAP1 SWAP2 SWAP1 SWAP2 POP SWAP1 DUP2 PUSH2 0x7E3 SWAP2 SWAP1 PUSH2 0x182E JUMP JUMPDEST POP DUP5 PUSH1 0x40 MLOAD PUSH2 0x7F2 SWAP2 SWAP1 PUSH2 0x13E6 JUMP JUMPDEST PUSH1 0x40 MLOAD DUP1 SWAP2 SUB SWAP1 KECCAK256 PUSH32 0x57E59320C8B483F9AEFD540DC61987F2C7A6B6A3F50BB3951E2CCB7842355259 DUP6 TIMESTAMP CALLER PUSH1 0x40 MLOAD PUSH2 0x82D SWAP4 SWAP3 SWAP2 SWAP1 PUSH2 0x18FD JUMP JUMPDEST PUSH1 0x40 MLOAD DUP1 SWAP2 SUB SWAP1 LOG2 POP POP POP POP POP JUMP JUMPDEST PUSH0 PUSH0 DUP4 PUSH1 0x40 MLOAD PUSH2 0x84C SWAP2 SWAP1 PUSH2 0x13E6 JUMP JUMPDEST SWAP1 DUP2 MSTORE PUSH1 0x20 ADD PUSH1 0x40 MLOAD DUP1 SWAP2 SUB SWAP1 KECCAK256 PUSH1 0x8 ADD PUSH0 SWAP1 SLOAD SWAP1 PUSH2 0x100 EXP SWAP1 DIV PUSH1 0xFF AND PUSH2 0x8A9 JUMPI PUSH1 0x40 MLOAD PUSH32 0x8C379A000000000000000000000000000000000000000000000000000000000 DUP2 MSTORE PUSH1 0x4 ADD PUSH2 0x8A0 SWAP1 PUSH2 0x1446 JUMP JUMPDEST PUSH1 0x40 MLOAD DUP1 SWAP2 SUB SWAP1 REVERT JUMPDEST DUP2 PUSH0 DUP5 PUSH1 0x40 MLOAD PUSH2 0x8B9 SWAP2 SWAP1 PUSH2 0x13E6 JUMP JUMPDEST SWAP1 DUP2 MSTORE PUSH1 0x20 ADD PUSH1 0x40 MLOAD DUP1 SWAP2 SUB SWAP1 KECCAK256 PUSH1 0x1 ADD SLOAD EQ SWAP1 POP SWAP3 SWAP2 POP POP JUMP JUMPDEST PUSH1 0x1 DUP2 DUP2 SLOAD DUP2 LT PUSH2 0x8E3 JUMPI PUSH0 DUP1 REVERT JUMPDEST SWAP1 PUSH0 MSTORE PUSH1 0x20 PUSH0 KECCAK256 ADD PUSH0 SWAP2 POP SWAP1 POP DUP1 SLOAD PUSH2 0x8FB SWAP1 PUSH2 0x1491 JUMP JUMPDEST DUP1 PUSH1 0x1F ADD PUSH1 0x20 DUP1 SWAP2 DIV MUL PUSH1 0x20 ADD PUSH1 0x40 MLOAD SWAP1 DUP2 ADD PUSH1 0x40 MSTORE DUP1 SWAP3 SWAP2 SWAP1 DUP2 DUP2 MSTORE PUSH1 0x20 ADD DUP3 DUP1 SLOAD PUSH2 0x927 SWAP1 PUSH2 0x1491 JUMP JUMPDEST DUP1 ISZERO PUSH2 0x972 JUMPI DUP1 PUSH1 0x1F LT PUSH2 0x949 JUMPI PUSH2 0x100 DUP1 DUP4 SLOAD DIV MUL DUP4 MSTORE SWAP2 PUSH1 0x20 ADD SWAP2 PUSH2 0x972 JUMP JUMPDEST DUP3 ADD SWAP2 SWAP1 PUSH0 MSTORE PUSH1 0x20 PUSH0 KECCAK256 SWAP1 JUMPDEST DUP2 SLOAD DUP2 MSTORE SWAP1 PUSH1 0x1 ADD SWAP1 PUSH1 0x20 ADD DUP1 DUP4 GT PUSH2 0x955 JUMPI DUP3 SWAP1 SUB PUSH1 0x1F AND DUP3 ADD SWAP2 JUMPDEST POP POP POP POP POP DUP2 JUMP JUMPDEST PUSH0 DUP2 DUP1 MLOAD PUSH1 0x20 DUP2 ADD DUP3 ADD DUP1 MLOAD DUP5 DUP3 MSTORE PUSH1 0x20 DUP4 ADD PUSH1 0x20 DUP6 ADD KECCAK256 DUP2 DUP4 MSTORE DUP1 SWAP6 POP POP POP POP POP POP PUSH0 SWAP2 POP SWAP1 POP DUP1 PUSH0 ADD DUP1 SLOAD PUSH2 0x9B0 SWAP1 PUSH2 0x1491 JUMP JUMPDEST DUP1 PUSH1 0x1F ADD PUSH1 0x20 DUP1 SWAP2 DIV MUL PUSH1 0x20 ADD PUSH1 0x40 MLOAD SWAP1 DUP2 ADD PUSH1 0x40 MSTORE DUP1 SWAP3 SWAP2 SWAP1 DUP2 DUP2 MSTORE PUSH1 0x20 ADD DUP3 DUP1 SLOAD PUSH2 0x9DC SWAP1 PUSH2 0x1491 JUMP JUMPDEST DUP1 ISZERO PUSH2 0xA27 JUMPI DUP1 PUSH1 0x1F LT PUSH2 0x9FE JUMPI PUSH2 0x100 DUP1 DUP4 SLOAD DIV MUL DUP4 MSTORE SWAP2 PUSH1 0x20 ADD SWAP2 PUSH2 0xA27 JUMP JUMPDEST DUP3 ADD SWAP2 SWAP1 PUSH0 MSTORE PUSH1 0x20 PUSH0 KECCAK256 SWAP1 JUMPDEST DUP2 SLOAD DUP2 MSTORE SWAP1 PUSH1 0x1 ADD SWAP1 PUSH1 0x20 ADD DUP1 DUP4 GT PUSH2 0xA0A JUMPI DUP3 SWAP1 SUB PUSH1 0x1F AND DUP3 ADD SWAP2 JUMPDEST POP POP POP POP POP SWAP1 DUP1 PUSH1 0x1 ADD SLOAD SWAP1 DUP1 PUSH1 0x2 ADD SLOAD SWAP1 DUP1 PUSH1 0x3 ADD PUSH0 SWAP1 SLOAD SWAP1 PUSH2 0x100 EXP SWAP1 DIV PUSH20 0xFFFFFFFFFFFFFFFFFFFFFFFFFFFFFFFFFFFFFFFF AND SWAP1 DUP1 PUSH1 0x4 ADD DUP1 SLOAD PUSH2 0xA6D SWAP1 PUSH2 0x1491 JUMP JUMPDEST DUP1 PUSH1 0x1F ADD PUSH1 0x20 DUP1 SWAP2 DIV MUL PUSH1 0x20 ADD PUSH1 0x40 MLOAD SWAP1 DUP2 ADD PUSH1 0x40 MSTORE DUP1 SWAP3 SWAP2 SWAP1 DUP2 DUP2 MSTORE PUSH1 0x20 ADD DUP3 DUP1 SLOAD PUSH2 0xA99 SWAP1 PUSH2 0x1491 JUMP JUMPDEST DUP1 ISZERO PUSH2 0xAE4 JUMPI DUP1 PUSH1 0x1F LT PUSH2 0xABB JUMPI PUSH2 0x100 DUP1 DUP4 SLOAD DIV MUL DUP4 MSTORE SWAP2 PUSH1 0x20 ADD SWAP2 PUSH2 0xAE4 JUMP JUMPDEST DUP3 ADD SWAP2 SWAP1 PUSH0 MSTORE PUSH1 0x20 PUSH0 KECCAK256 SWAP1 JUMPDEST DUP2 SLOAD DUP2 MSTORE SWAP1 PUSH1 0x1 ADD SWAP1 PUSH1 0x20 ADD DUP1 DUP4 GT PUSH2 0xAC7 JUMPI DUP3 SWAP1 SUB PUSH1 0x1F AND DUP3 ADD SWAP2 JUMPDEST POP POP POP POP POP SWAP1 DUP1 PUSH1 0x5 ADD SLOAD SWAP1 DUP1 PUSH1 0x6 ADD SLOAD SWAP1 DUP1 PUSH1 0x7 ADD SLOAD SWAP1 DUP1 PUSH1 0x8 ADD PUSH0 SWAP1 SLOAD SWAP1 PUSH2 0x100 EXP SWAP1 DIV PUSH1 0xFF AND SWAP1 POP DUP10 JUMP JUMPDEST PUSH0 DUP5 PUSH1 0x40 MLOAD PUSH2 0xB21 SWAP2 SWAP1 PUSH2 0x13E6 JUMP JUMPDEST SWAP1 DUP2 MSTORE PUSH1 0x20 ADD PUSH1 0x40 MLOAD DUP1 SWAP2 SUB SWAP1 KECCAK256 PUSH1 0x8 ADD PUSH0 SWAP1 SLOAD SWAP1 PUSH2 0x100 EXP SWAP1 DIV PUSH1 0xFF AND PUSH2 0xB7E JUMPI PUSH1 0x40 MLOAD PUSH32 0x8C379A000000000000000000000000000000000000000000000000000000000 DUP2 MSTORE PUSH1 0x4 ADD PUSH2 0xB75 SWAP1 PUSH2 0x1446 JUMP JUMPDEST PUSH1 0x40 MLOAD DUP1 SWAP2 SUB SWAP1 REVERT JUMPDEST CALLER PUSH20 0xFFFFFFFFFFFFFFFFFFFFFFFFFFFFFFFFFFFFFFFF AND PUSH0 DUP6 PUSH1 0x40 MLOAD PUSH2 0xBA4 SWAP2 SWAP1 PUSH2 0x13E6 JUMP JUMPDEST SWAP1 DUP2 MSTORE PUSH1 0x20 ADD PUSH1 0x40 MLOAD DUP1 SWAP2 SUB SWAP1 KECCAK256 PUSH1 0x3 ADD PUSH0 SWAP1 SLOAD SWAP1 PUSH2 0x100 EXP SWAP1 DIV PUSH20 0xFFFFFFFFFFFFFFFFFFFFFFFFFFFFFFFFFFFFFFFF AND PUSH20 0xFFFFFFFFFFFFFFFFFFFFFFFFFFFFFFFFFFFFFFFF AND EQ PUSH2 0xC2B JUMPI PUSH1 0x40 MLOAD PUSH32 0x8C379A000000000000000000000000000000000000000000000000000000000 DUP2 MSTORE PUSH1 0x4 ADD PUSH2 0xC22 SWAP1 PUSH2 0x197C JUMP JUMPDEST PUSH1 0x40 MLOAD DUP1 SWAP2 SUB SWAP1 REVERT JUMPDEST DUP3 PUSH0 DUP6 PUSH1 0x40 MLOAD PUSH2 0xC3B SWAP2 SWAP1 PUSH2 0x13E6 JUMP JUMPDEST SWAP1 DUP2 MSTORE PUSH1 0x20 ADD PUSH1 0x40 MLOAD DUP1 SWAP2 SUB SWAP1 KECCAK256 PUSH1 0x1 ADD DUP2 SWAP1 SSTORE POP DUP2 PUSH0 DUP6 PUSH1 0x40 MLOAD PUSH2 0xC60 SWAP2 SWAP1 PUSH2 0x13E6 JUMP JUMPDEST SWAP1 DUP2 MSTORE PUSH1 0x20 ADD PUSH1 0x40 MLOAD DUP1 SWAP2 SUB SWAP1 KECCAK256 PUSH1 0x4 ADD SWAP1 DUP2 PUSH2 0xC7D SWAP2 SWAP1 PUSH2 0x182E JUMP JUMPDEST POP DUP1 PUSH0 DUP6 PUSH1 0x40 MLOAD PUSH2 0xC8E SWAP2 SWAP1 PUSH2 0x13E6 JUMP JUMPDEST SWAP1 DUP2 MSTORE PUSH1 0x20 ADD PUSH1 0x40 MLOAD DUP1 SWAP2 SUB SWAP1 KECCAK256 PUSH1 0x7 ADD DUP2 SWAP1 SSTORE POP DUP4 PUSH1 0x40 MLOAD PUSH2 0xCB1 SWAP2 SWAP1 PUSH2 0x13E6 JUMP JUMPDEST PUSH1 0x40 MLOAD DUP1 SWAP2 SUB SWAP1 KECCAK256 PUSH32 0x271724F27B6D5816A761EAF896BB494FE7B522D450082A5C23C4F932552C6C62 DUP5 DUP5 TIMESTAMP PUSH1 0x40 MLOAD PUSH2 0xCEC SWAP4 SWAP3 SWAP2 SWAP1 PUSH2 0x199A JUMP JUMPDEST PUSH1 0x40 MLOAD DUP1 SWAP2 SUB SWAP1 LOG2 PUSH1 0x40 MLOAD DUP1 PUSH1 0x40 ADD PUSH1 0x40 MSTORE DUP1 PUSH1 0x9 DUP2 MSTORE PUSH1 0x20 ADD PUSH32 0x636F6D706C657465640000000000000000000000000000000000000000000000 DUP2 MSTORE POP DUP1 MLOAD SWAP1 PUSH1 0x20 ADD KECCAK256 DUP3 DUP1 MLOAD SWAP1 PUSH1 0x20 ADD KECCAK256 SUB PUSH2 0xD90 JUMPI DUP4 PUSH1 0x40 MLOAD PUSH2 0xD4C SWAP2 SWAP1 PUSH2 0x13E6 JUMP JUMPDEST PUSH1 0x40 MLOAD DUP1 SWAP2 SUB SWAP1 KECCAK256 PUSH32 0xD290CDB2C9D5693B27DDC7D98E4D18CB82A75B991EF8022BCF438C214BE7BCE5 DUP5 DUP4 TIMESTAMP PUSH1 0x40 MLOAD PUSH2 0xD87 SWAP4 SWAP3 SWAP2 SWAP1 PUSH2 0x19D6 JUMP JUMPDEST PUSH1 0x40 MLOAD DUP1 SWAP2 SUB SWAP1 LOG2 JUMPDEST POP POP POP POP JUMP JUMPDEST PUSH0 PUSH1 0x40 MLOAD SWAP1 POP SWAP1 JUMP JUMPDEST PUSH0 PUSH0 REVERT JUMPDEST PUSH0 PUSH0 REVERT JUMPDEST PUSH0 PUSH0 REVERT JUMPDEST PUSH0 PUSH0 REVERT JUMPDEST PUSH0 PUSH1 0x1F NOT PUSH1 0x1F DUP4 ADD AND SWAP1 POP SWAP2 SWAP1 POP JUMP JUMPDEST PUSH32 0x4E487B7100000000000000000000000000000000000000000000000000000000 PUSH0 MSTORE PUSH1 0x41 PUSH1 0x4 MSTORE PUSH1 0x24 PUSH0 REVERT JUMPDEST PUSH2 0xDF5 DUP3 PUSH2 0xDAF JUMP JUMPDEST DUP2 ADD DUP2 DUP2 LT PUSH8 0xFFFFFFFFFFFFFFFF DUP3 GT OR ISZERO PUSH2 0xE14 JUMPI PUSH2 0xE13 PUSH2 0xDBF JUMP JUMPDEST JUMPDEST DUP1 PUSH1 0x40 MSTORE POP POP POP JUMP JUMPDEST PUSH0 PUSH2 0xE26 PUSH2 0xD96 JUMP JUMPDEST SWAP1 POP PUSH2 0xE32 DUP3 DUP3 PUSH2 0xDEC JUMP JUMPDEST SWAP2 SWAP1 POP JUMP JUMPDEST PUSH0 PUSH8 0xFFFFFFFFFFFFFFFF DUP3 GT ISZERO PUSH2 0xE51 JUMPI PUSH2 0xE50 PUSH2 0xDBF JUMP JUMPDEST JUMPDEST PUSH2 0xE5A DUP3 PUSH2 0xDAF JUMP JUMPDEST SWAP1 POP PUSH1 0x20 DUP2 ADD SWAP1 POP SWAP2 SWAP1 POP JUMP JUMPDEST DUP3 DUP2 DUP4 CALLDATACOPY PUSH0 DUP4 DUP4 ADD MSTORE POP POP POP JUMP JUMPDEST PUSH0 PUSH2 0xE87 PUSH2 0xE82 DUP5 PUSH2 0xE37 JUMP JUMPDEST PUSH2 0xE1D JUMP JUMPDEST SWAP1 POP DUP3 DUP2 MSTORE PUSH1 0x20 DUP2 ADD DUP5 DUP5 DUP5 ADD GT ISZERO PUSH2 0xEA3 JUMPI PUSH2 0xEA2 PUSH2 0xDAB JUMP JUMPDEST JUMPDEST PUSH2 0xEAE DUP5 DUP3 DUP6 PUSH2 0xE67 JUMP JUMPDEST POP SWAP4 SWAP3 POP POP POP JUMP JUMPDEST PUSH0 DUP3 PUSH1 0x1F DUP4 ADD SLT PUSH2 0xECA JUMPI PUSH2 0xEC9 PUSH2 0xDA7 JUMP JUMPDEST JUMPDEST DUP2 CALLDATALOAD PUSH2 0xEDA DUP5 DUP3 PUSH1 0x20 DUP7 ADD PUSH2 0xE75 JUMP JUMPDEST SWAP2 POP POP SWAP3 SWAP2 POP POP JUMP JUMPDEST PUSH0 PUSH1 0x20 DUP3 DUP5 SUB SLT ISZERO PUSH2 0xEF8 JUMPI PUSH2 0xEF7 PUSH2 0xD9F JUMP JUMPDEST JUMPDEST PUSH0 DUP3 ADD CALLDATALOAD PUSH8 0xFFFFFFFFFFFFFFFF DUP2 GT ISZERO PUSH2 0xF15 JUMPI PUSH2 0xF14 PUSH2 0xDA3 JUMP JUMPDEST JUMPDEST PUSH2 0xF21 DUP5 DUP3 DUP6 ADD PUSH2 0xEB6 JUMP JUMPDEST SWAP2 POP POP SWAP3 SWAP2 POP POP JUMP JUMPDEST PUSH0 DUP2 MLOAD SWAP1 POP SWAP2 SWAP1 POP JUMP JUMPDEST PUSH0 DUP3 DUP3 MSTORE PUSH1 0x20 DUP3 ADD SWAP1 POP SWAP3 SWAP2 POP POP JUMP JUMPDEST DUP3 DUP2 DUP4 MCOPY PUSH0 DUP4 DUP4 ADD MSTORE POP POP POP JUMP JUMPDEST PUSH0 PUSH2 0xF5C DUP3 PUSH2 0xF2A JUMP JUMPDEST PUSH2 0xF66 DUP2 DUP6 PUSH2 0xF34 JUMP JUMPDEST SWAP4 POP PUSH2 0xF76 DUP2 DUP6 PUSH1 0x20 DUP7 ADD PUSH2 0xF44 JUMP JUMPDEST PUSH2 0xF7F DUP2 PUSH2 0xDAF JUMP JUMPDEST DUP5 ADD SWAP2 POP POP SWAP3 SWAP2 POP POP JUMP JUMPDEST PUSH0 DUP2 SWAP1 POP SWAP2 SWAP1 POP JUMP JUMPDEST PUSH2 0xF9C DUP2 PUSH2 0xF8A JUMP JUMPDEST DUP3 MSTORE POP POP JUMP JUMPDEST PUSH0 DUP2 SWAP1 POP SWAP2 SWAP1 POP JUMP JUMPDEST PUSH2 0xFB4 DUP2 PUSH2 0xFA2 JUMP JUMPDEST DUP3 MSTORE POP POP JUMP JUMPDEST PUSH0 PUSH20 0xFFFFFFFFFFFFFFFFFFFFFFFFFFFFFFFFFFFFFFFF DUP3 AND SWAP1 POP SWAP2 SWAP1 POP JUMP JUMPDEST PUSH0 PUSH2 0xFE3 DUP3 PUSH2 0xFBA JUMP JUMPDEST SWAP1 POP SWAP2 SWAP1 POP JUMP JUMPDEST PUSH2 0xFF3 DUP2 PUSH2 0xFD9 JUMP JUMPDEST DUP3 MSTORE POP POP JUMP JUMPDEST PUSH0 PUSH2 0x100 DUP3 ADD SWAP1 POP DUP2 DUP2 SUB PUSH0 DUP4 ADD MSTORE PUSH2 0x1012 DUP2 DUP12 PUSH2 0xF52 JUMP JUMPDEST SWAP1 POP PUSH2 0x1021 PUSH1 0x20 DUP4 ADD DUP11 PUSH2 0xF93 JUMP JUMPDEST PUSH2 0x102E PUSH1 0x40 DUP4 ADD DUP10 PUSH2 0xFAB JUMP JUMPDEST PUSH2 0x103B PUSH1 0x60 DUP4 ADD DUP9 PUSH2 0xFEA JUMP JUMPDEST DUP2 DUP2 SUB PUSH1 0x80 DUP4 ADD MSTORE PUSH2 0x104D DUP2 DUP8 PUSH2 0xF52 JUMP JUMPDEST SWAP1 POP PUSH2 0x105C PUSH1 0xA0 DUP4 ADD DUP7 PUSH2 0xFAB JUMP JUMPDEST PUSH2 0x1069 PUSH1 0xC0 DUP4 ADD DUP6 PUSH2 0xFAB JUMP JUMPDEST PUSH2 0x1076 PUSH1 0xE0 DUP4 ADD DUP5 PUSH2 0xFAB JUMP JUMPDEST SWAP10 SWAP9 POP POP POP POP POP POP POP POP POP JUMP JUMPDEST PUSH0 PUSH1 0x20 DUP3 ADD SWAP1 POP PUSH2 0x1096 PUSH0 DUP4 ADD DUP5 PUSH2 0xFAB JUMP JUMPDEST SWAP3 SWAP2 POP POP JUMP JUMPDEST PUSH2 0x10A5 DUP2 PUSH2 0xFA2 JUMP JUMPDEST DUP2 EQ PUSH2 0x10AF JUMPI PUSH0 PUSH0 REVERT JUMPDEST POP JUMP JUMPDEST PUSH0 DUP2 CALLDATALOAD SWAP1 POP PUSH2 0x10C0 DUP2 PUSH2 0x109C JUMP JUMPDEST SWAP3 SWAP2 POP POP JUMP JUMPDEST PUSH0 PUSH1 0x20 DUP3 DUP5 SUB SLT ISZERO PUSH2 0x10DB JUMPI PUSH2 0x10DA PUSH2 0xD9F JUMP JUMPDEST JUMPDEST PUSH0 PUSH2 0x10E8 DUP5 DUP3 DUP6 ADD PUSH2 0x10B2 JUMP JUMPDEST SWAP2 POP POP SWAP3 SWAP2 POP POP JUMP JUMPDEST PUSH0 PUSH1 0x20 DUP3 ADD SWAP1 POP DUP2 DUP2 SUB PUSH0 DUP4 ADD MSTORE PUSH2 0x1109 DUP2 DUP5 PUSH2 0xF52 JUMP JUMPDEST SWAP1 POP SWAP3 SWAP2 POP POP JUMP JUMPDEST PUSH2 0x111A DUP2 PUSH2 0xF8A JUMP JUMPDEST DUP2 EQ PUSH2 0x1124 JUMPI PUSH0 PUSH0 REVERT JUMPDEST POP JUMP JUMPDEST PUSH0 DUP2 CALLDATALOAD SWAP1 POP PUSH2 0x1135 DUP2 PUSH2 0x1111 JUMP JUMPDEST SWAP3 SWAP2 POP POP JUMP JUMPDEST PUSH0 PUSH0 PUSH0 PUSH0 PUSH0 PUSH1 0xA0 DUP7 DUP9 SUB SLT ISZERO PUSH2 0x1154 JUMPI PUSH2 0x1153 PUSH2 0xD9F JUMP JUMPDEST JUMPDEST PUSH0 DUP7 ADD CALLDATALOAD PUSH8 0xFFFFFFFFFFFFFFFF DUP2 GT ISZERO PUSH2 0x1171 JUMPI PUSH2 0x1170 PUSH2 0xDA3 JUMP JUMPDEST JUMPDEST PUSH2 0x117D DUP9 DUP3 DUP10 ADD PUSH2 0xEB6 JUMP JUMPDEST SWAP6 POP POP PUSH1 0x20 PUSH2 0x118E DUP9 DUP3 DUP10 ADD PUSH2 0x1127 JUMP JUMPDEST SWAP5 POP POP PUSH1 0x40 DUP7 ADD CALLDATALOAD PUSH8 0xFFFFFFFFFFFFFFFF DUP2 GT ISZERO PUSH2 0x11AF JUMPI PUSH2 0x11AE PUSH2 0xDA3 JUMP JUMPDEST JUMPDEST PUSH2 0x11BB DUP9 DUP3 DUP10 ADD PUSH2 0xEB6 JUMP JUMPDEST SWAP4 POP POP PUSH1 0x60 PUSH2 0x11CC DUP9 DUP3 DUP10 ADD PUSH2 0x10B2 JUMP JUMPDEST SWAP3 POP POP PUSH1 0x80 PUSH2 0x11DD DUP9 DUP3 DUP10 ADD PUSH2 0x10B2 JUMP JUMPDEST SWAP2 POP POP SWAP3 SWAP6 POP SWAP3 SWAP6 SWAP1 SWAP4 POP JUMP JUMPDEST PUSH0 PUSH0 PUSH1 0x40 DUP4 DUP6 SUB SLT ISZERO PUSH2 0x1200 JUMPI PUSH2 0x11FF PUSH2 0xD9F JUMP JUMPDEST JUMPDEST PUSH0 DUP4 ADD CALLDATALOAD PUSH8 0xFFFFFFFFFFFFFFFF DUP2 GT ISZERO PUSH2 0x121D JUMPI PUSH2 0x121C PUSH2 0xDA3 JUMP JUMPDEST JUMPDEST PUSH2 0x1229 DUP6 DUP3 DUP7 ADD PUSH2 0xEB6 JUMP JUMPDEST SWAP3 POP POP PUSH1 0x20 PUSH2 0x123A DUP6 DUP3 DUP7 ADD PUSH2 0x1127 JUMP JUMPDEST SWAP2 POP POP SWAP3 POP SWAP3 SWAP1 POP JUMP JUMPDEST PUSH0 DUP2 ISZERO ISZERO SWAP1 POP SWAP2 SWAP1 POP JUMP JUMPDEST PUSH2 0x1258 DUP2 PUSH2 0x1244 JUMP JUMPDEST DUP3 MSTORE POP POP JUMP JUMPDEST PUSH0 PUSH1 0x20 DUP3 ADD SWAP1 POP PUSH2 0x1271 PUSH0 DUP4 ADD DUP5 PUSH2 0x124F JUMP JUMPDEST SWAP3 SWAP2 POP POP JUMP JUMPDEST PUSH0 PUSH2 0x120 DUP3 ADD SWAP1 POP DUP2 DUP2 SUB PUSH0 DUP4 ADD MSTORE PUSH2 0x1290 DUP2 DUP13 PUSH2 0xF52 JUMP JUMPDEST SWAP1 POP PUSH2 0x129F PUSH1 0x20 DUP4 ADD DUP12 PUSH2 0xF93 JUMP JUMPDEST PUSH2 0x12AC PUSH1 0x40 DUP4 ADD DUP11 PUSH2 0xFAB JUMP JUMPDEST PUSH2 0x12B9 PUSH1 0x60 DUP4 ADD DUP10 PUSH2 0xFEA JUMP JUMPDEST DUP2 DUP2 SUB PUSH1 0x80 DUP4 ADD MSTORE PUSH2 0x12CB DUP2 DUP9 PUSH2 0xF52 JUMP JUMPDEST SWAP1 POP PUSH2 0x12DA PUSH1 0xA0 DUP4 ADD DUP8 PUSH2 0xFAB JUMP JUMPDEST PUSH2 0x12E7 PUSH1 0xC0 DUP4 ADD DUP7 PUSH2 0xFAB JUMP JUMPDEST PUSH2 0x12F4 PUSH1 0xE0 DUP4 ADD DUP6 PUSH2 0xFAB JUMP JUMPDEST PUSH2 0x1302 PUSH2 0x100 DUP4 ADD DUP5 PUSH2 0x124F JUMP JUMPDEST SWAP11 SWAP10 POP POP POP POP POP POP POP POP POP POP JUMP JUMPDEST PUSH0 PUSH0 PUSH0 PUSH0 PUSH1 0x80 DUP6 DUP8 SUB SLT ISZERO PUSH2 0x1328 JUMPI PUSH2 0x1327 PUSH2 0xD9F JUMP JUMPDEST JUMPDEST PUSH0 DUP6 ADD CALLDATALOAD PUSH8 0xFFFFFFFFFFFFFFFF DUP2 GT ISZERO PUSH2 0x1345 JUMPI PUSH2 0x1344 PUSH2 0xDA3 JUMP JUMPDEST JUMPDEST PUSH2 0x1351 DUP8 DUP3 DUP9 ADD PUSH2 0xEB6 JUMP JUMPDEST SWAP5 POP POP PUSH1 0x20 PUSH2 0x1362 DUP8 DUP3 DUP9 ADD PUSH2 0x1127 JUMP JUMPDEST SWAP4 POP POP PUSH1 0x40 DUP6 ADD CALLDATALOAD PUSH8 0xFFFFFFFFFFFFFFFF DUP2 GT ISZERO PUSH2 0x1383 JUMPI PUSH2 0x1382 PUSH2 0xDA3 JUMP JUMPDEST JUMPDEST PUSH2 0x138F DUP8 DUP3 DUP9 ADD PUSH2 0xEB6 JUMP JUMPDEST SWAP3 POP POP PUSH1 0x60 PUSH2 0x13A0 DUP8 DUP3 DUP9 ADD PUSH2 0x10B2 JUMP JUMPDEST SWAP2 POP POP SWAP3 SWAP6 SWAP2 SWAP5 POP SWAP3 POP JUMP JUMPDEST PUSH0 DUP2 SWAP1 POP SWAP3 SWAP2 POP POP JUMP JUMPDEST PUSH0 PUSH2 0x13C0 DUP3 PUSH2 0xF2A JUMP JUMPDEST PUSH2 0x13CA DUP2 DUP6 PUSH2 0x13AC JUMP JUMPDEST SWAP4 POP PUSH2 0x13DA DUP2 DUP6 PUSH1 0x20 DUP7 ADD PUSH2 0xF44 JUMP JUMPDEST DUP1 DUP5 ADD SWAP2 POP POP SWAP3 SWAP2 POP POP JUMP JUMPDEST PUSH0 PUSH2 0x13F1 DUP3 DUP5 PUSH2 0x13B6 JUMP JUMPDEST SWAP2 POP DUP2 SWAP1 POP SWAP3 SWAP2 POP POP JUMP JUMPDEST PUSH32 0x526F75746520646F6573206E6F74206578697374000000000000000000000000 PUSH0 DUP3 ADD MSTORE POP JUMP JUMPDEST PUSH0 PUSH2 0x1430 PUSH1 0x14 DUP4 PUSH2 0xF34 JUMP JUMPDEST SWAP2 POP PUSH2 0x143B DUP3 PUSH2 0x13FC JUMP JUMPDEST PUSH1 0x20 DUP3 ADD SWAP1 POP SWAP2 SWAP1 POP JUMP JUMPDEST PUSH0 PUSH1 0x20 DUP3 ADD SWAP1 POP DUP2 DUP2 SUB PUSH0 DUP4 ADD MSTORE PUSH2 0x145D DUP2 PUSH2 0x1424 JUMP JUMPDEST SWAP1 POP SWAP2 SWAP1 POP JUMP JUMPDEST PUSH32 0x4E487B7100000000000000000000000000000000000000000000000000000000 PUSH0 MSTORE PUSH1 0x22 PUSH1 0x4 MSTORE PUSH1 0x24 PUSH0 REVERT JUMPDEST PUSH0 PUSH1 0x2 DUP3 DIV SWAP1 POP PUSH1 0x1 DUP3 AND DUP1 PUSH2 0x14A8 JUMPI PUSH1 0x7F DUP3 AND SWAP2 POP JUMPDEST PUSH1 0x20 DUP3 LT DUP2 SUB PUSH2 0x14BB JUMPI PUSH2 0x14BA PUSH2 0x1464 JUMP JUMPDEST JUMPDEST POP SWAP2 SWAP1 POP JUMP JUMPDEST PUSH32 0x496E646578206F7574206F6620626F756E647300000000000000000000000000 PUSH0 DUP3 ADD MSTORE POP JUMP JUMPDEST PUSH0 PUSH2 0x14F5 PUSH1 0x13 DUP4 PUSH2 0xF34 JUMP JUMPDEST SWAP2 POP PUSH2 0x1500 DUP3 PUSH2 0x14C1 JUMP JUMPDEST PUSH1 0x20 DUP3 ADD SWAP1 POP SWAP2 SWAP1 POP JUMP JUMPDEST PUSH0 PUSH1 0x20 DUP3 ADD SWAP1 POP DUP2 DUP2 SUB PUSH0 DUP4 ADD MSTORE PUSH2 0x1522 DUP2 PUSH2 0x14E9 JUMP JUMPDEST SWAP1 POP SWAP2 SWAP1 POP JUMP JUMPDEST PUSH32 0x4E487B7100000000000000000000000000000000000000000000000000000000 PUSH0 MSTORE PUSH1 0x32 PUSH1 0x4 MSTORE PUSH1 0x24 PUSH0 REVERT JUMPDEST PUSH32 0x526F75746520616C726561647920657869737473000000000000000000000000 PUSH0 DUP3 ADD MSTORE POP JUMP JUMPDEST PUSH0 PUSH2 0x158A PUSH1 0x14 DUP4 PUSH2 0xF34 JUMP JUMPDEST SWAP2 POP PUSH2 0x1595 DUP3 PUSH2 0x1556 JUMP JUMPDEST PUSH1 0x20 DUP3 ADD SWAP1 POP SWAP2 SWAP1 POP JUMP JUMPDEST PUSH0 PUSH1 0x20 DUP3 ADD SWAP1 POP DUP2 DUP2 SUB PUSH0 DUP4 ADD MSTORE PUSH2 0x15B7 DUP2 PUSH2 0x157E JUMP JUMPDEST SWAP1 POP SWAP2 SWAP1 POP JUMP JUMPDEST PUSH32 0x526F7574652049442063616E6E6F7420626520656D7074790000000000000000 PUSH0 DUP3 ADD MSTORE POP JUMP JUMPDEST PUSH0 PUSH2 0x15F2 PUSH1 0x18 DUP4 PUSH2 0xF34 JUMP JUMPDEST SWAP2 POP PUSH2 0x15FD DUP3 PUSH2 0x15BE JUMP JUMPDEST PUSH1 0x20 DUP3 ADD SWAP1 POP SWAP2 SWAP1 POP JUMP JUMPDEST PUSH0 PUSH1 0x20 DUP3 ADD SWAP1 POP DUP2 DUP2 SUB PUSH0 DUP4 ADD MSTORE PUSH2 0x161F DUP2 PUSH2 0x15E6 JUMP JUMPDEST SWAP1 POP SWAP2 SWAP1 POP JUMP JUMPDEST PUSH32 0x4461746120686173682063616E6E6F7420626520656D70747900000000000000 PUSH0 DUP3 ADD MSTORE POP JUMP JUMPDEST PUSH0 PUSH2 0x165A PUSH1 0x19 DUP4 PUSH2 0xF34 JUMP JUMPDEST SWAP2 POP PUSH2 0x1665 DUP3 PUSH2 0x1626 JUMP JUMPDEST PUSH1 0x20 DUP3 ADD SWAP1 POP SWAP2 SWAP1 POP JUMP JUMPDEST PUSH0 PUSH1 0x20 DUP3 ADD SWAP1 POP DUP2 DUP2 SUB PUSH0 DUP4 ADD MSTORE PUSH2 0x1687 DUP2 PUSH2 0x164E JUMP JUMPDEST SWAP1 POP SWAP2 SWAP1 POP JUMP JUMPDEST PUSH0 DUP2 SWAP1 POP DUP2 PUSH0 MSTORE PUSH1 0x20 PUSH0 KECCAK256 SWAP1 POP SWAP2 SWAP1 POP JUMP JUMPDEST PUSH0 PUSH1 0x20 PUSH1 0x1F DUP4 ADD DIV SWAP1 POP SWAP2 SWAP1 POP JUMP JUMPDEST PUSH0 DUP3 DUP3 SHL SWAP1 POP SWAP3 SWAP2 POP POP JUMP JUMPDEST PUSH0 PUSH1 0x8 DUP4 MUL PUSH2 0x16EA PUSH32 0xFFFFFFFFFFFFFFFFFFFFFFFFFFFFFFFFFFFFFFFFFFFFFFFFFFFFFFFFFFFFFFFF DUP3 PUSH2 0x16AF JUMP JUMPDEST PUSH2 0x16F4 DUP7 DUP4 PUSH2 0x16AF JUMP JUMPDEST SWAP6 POP DUP1 NOT DUP5 AND SWAP4 POP DUP1 DUP7 AND DUP5 OR SWAP3 POP POP POP SWAP4 SWAP3 POP POP POP JUMP JUMPDEST PUSH0 DUP2 SWAP1 POP SWAP2 SWAP1 POP JUMP JUMPDEST PUSH0 PUSH2 0x172F PUSH2 0x172A PUSH2 0x1725 DUP5 PUSH2 0xFA2 JUMP JUMPDEST PUSH2 0x170C JUMP JUMPDEST PUSH2 0xFA2 JUMP JUMPDEST SWAP1 POP SWAP2 SWAP1 POP JUMP JUMPDEST PUSH0 DUP2 SWAP1 POP SWAP2 SWAP1 POP JUMP JUMPDEST PUSH2 0x1748 DUP4 PUSH2 0x1715 JUMP JUMPDEST PUSH2 0x175C PUSH2 0x1754 DUP3 PUSH2 0x1736 JUMP JUMPDEST DUP5 DUP5 SLOAD PUSH2 0x16BB JUMP JUMPDEST DUP3 SSTORE POP POP POP POP JUMP JUMPDEST PUSH0 PUSH0 SWAP1 POP SWAP1 JUMP JUMPDEST PUSH2 0x1773 PUSH2 0x1764 JUMP JUMPDEST PUSH2 0x177E DUP2 DUP5 DUP5 PUSH2 0x173F JUMP JUMPDEST POP POP POP JUMP JUMPDEST JUMPDEST DUP2 DUP2 LT ISZERO PUSH2 0x17A1 JUMPI PUSH2 0x1796 PUSH0 DUP3 PUSH2 0x176B JUMP JUMPDEST PUSH1 0x1 DUP2 ADD SWAP1 POP PUSH2 0x1784 JUMP JUMPDEST POP POP JUMP JUMPDEST PUSH1 0x1F DUP3 GT ISZERO PUSH2 0x17E6 JUMPI PUSH2 0x17B7 DUP2 PUSH2 0x168E JUMP JUMPDEST PUSH2 0x17C0 DUP5 PUSH2 0x16A0 JUMP JUMPDEST DUP2 ADD PUSH1 0x20 DUP6 LT ISZERO PUSH2 0x17CF JUMPI DUP2 SWAP1 POP JUMPDEST PUSH2 0x17E3 PUSH2 0x17DB DUP6 PUSH2 0x16A0 JUMP JUMPDEST DUP4 ADD DUP3 PUSH2 0x1783 JUMP JUMPDEST POP POP JUMPDEST POP POP POP JUMP JUMPDEST PUSH0 DUP3 DUP3 SHR SWAP1 POP SWAP3 SWAP2 POP POP JUMP JUMPDEST PUSH0 PUSH2 0x1806 PUSH0 NOT DUP5 PUSH1 0x8 MUL PUSH2 0x17EB JUMP JUMPDEST NOT DUP1 DUP4 AND SWAP2 POP POP SWAP3 SWAP2 POP POP JUMP JUMPDEST PUSH0 PUSH2 0x181E DUP4 DUP4 PUSH2 0x17F7 JUMP JUMPDEST SWAP2 POP DUP3 PUSH1 0x2 MUL DUP3 OR SWAP1 POP SWAP3 SWAP2 POP POP JUMP JUMPDEST PUSH2 0x1837 DUP3 PUSH2 0xF2A JUMP JUMPDEST PUSH8 0xFFFFFFFFFFFFFFFF DUP2 GT ISZERO PUSH2 0x1850 JUMPI PUSH2 0x184F PUSH2 0xDBF JUMP JUMPDEST JUMPDEST PUSH2 0x185A DUP3 SLOAD PUSH2 0x1491 JUMP JUMPDEST PUSH2 0x1865 DUP3 DUP3 DUP6 PUSH2 0x17A5 JUMP JUMPDEST PUSH0 PUSH1 0x20 SWAP1 POP PUSH1 0x1F DUP4 GT PUSH1 0x1 DUP2 EQ PUSH2 0x1896 JUMPI PUSH0 DUP5 ISZERO PUSH2 0x1884 JUMPI DUP3 DUP8 ADD MLOAD SWAP1 POP JUMPDEST PUSH2 0x188E DUP6 DUP3 PUSH2 0x1813 JUMP JUMPDEST DUP7 SSTORE POP PUSH2 0x18F5 JUMP JUMPDEST PUSH1 0x1F NOT DUP5 AND PUSH2 0x18A4 DUP7 PUSH2 0x168E JUMP JUMPDEST PUSH0 JUMPDEST DUP3 DUP2 LT ISZERO PUSH2 0x18CB JUMPI DUP5 DUP10 ADD MLOAD DUP3 SSTORE PUSH1 0x1 DUP3 ADD SWAP2 POP PUSH1 0x20 DUP6 ADD SWAP5 POP PUSH1 0x20 DUP2 ADD SWAP1 POP PUSH2 0x18A6 JUMP JUMPDEST DUP7 DUP4 LT ISZERO PUSH2 0x18E8 JUMPI DUP5 DUP10 ADD MLOAD PUSH2 0x18E4 PUSH1 0x1F DUP10 AND DUP3 PUSH2 0x17F7 JUMP JUMPDEST DUP4 SSTORE POP JUMPDEST PUSH1 0x1 PUSH1 0x2 DUP9 MUL ADD DUP9 SSTORE POP POP POP JUMPDEST POP POP POP POP POP POP JUMP JUMPDEST PUSH0 PUSH1 0x60 DUP3 ADD SWAP1 POP PUSH2 0x1910 PUSH0 DUP4 ADD DUP7 PUSH2 0xF93 JUMP JUMPDEST PUSH2 0x191D PUSH1 0x20 DUP4 ADD DUP6 PUSH2 0xFAB JUMP JUMPDEST PUSH2 0x192A PUSH1 0x40 DUP4 ADD DUP5 PUSH2 0xFEA JUMP JUMPDEST SWAP5 SWAP4 POP POP POP POP JUMP JUMPDEST PUSH32 0x4F6E6C79206F726967696E616C206472697665722063616E2075706461746500 PUSH0 DUP3 ADD MSTORE POP JUMP JUMPDEST PUSH0 PUSH2 0x1966 PUSH1 0x1F DUP4 PUSH2 0xF34 JUMP JUMPDEST SWAP2 POP PUSH2 0x1971 DUP3 PUSH2 0x1932 JUMP JUMPDEST PUSH1 0x20 DUP3 ADD SWAP1 POP SWAP2 SWAP1 POP JUMP JUMPDEST PUSH0 PUSH1 0x20 DUP3 ADD SWAP1 POP DUP2 DUP2 SUB PUSH0 DUP4 ADD MSTORE PUSH2 0x1993 DUP2 PUSH2 0x195A JUMP JUMPDEST SWAP1 POP SWAP2 SWAP1 POP JUMP JUMPDEST PUSH0 PUSH1 0x60 DUP3 ADD SWAP1 POP PUSH2 0x19AD PUSH0 DUP4 ADD DUP7 PUSH2 0xF93 JUMP JUMPDEST DUP2 DUP2 SUB PUSH1 0x20 DUP4 ADD MSTORE PUSH2 0x19BF DUP2 DUP6 PUSH2 0xF52 JUMP JUMPDEST SWAP1 POP PUSH2 0x19CE PUSH1 0x40 DUP4 ADD DUP5 PUSH2 0xFAB JUMP JUMPDEST SWAP5 SWAP4 POP POP POP POP JUMP JUMPDEST PUSH0 PUSH1 0x60 DUP3 ADD SWAP1 POP PUSH2 0x19E9 PUSH0 DUP4 ADD DUP7 PUSH2 0xF93 JUMP JUMPDEST PUSH2 0x19F6 PUSH1 0x20 DUP4 ADD DUP6 PUSH2 0xFAB JUMP JUMPDEST PUSH2 0x1A03 PUSH1 0x40 DUP4 ADD DUP5 PUSH2 0xFAB JUMP JUMPDEST SWAP5 SWAP4 POP POP POP POP JUMP INVALID LOG2 PUSH5 0x6970667358 0x22 SLT KECCAK256 0xBB PREVRANDAO LOG1 CODECOPY LT CODECOPY DUP7 0x2D 0xD2 DIV 0xC TLOAD PUSH17 0xDCC9B358CF7FE0A312E492C0BEAD4011C4 0xDB KECCAK256 PUSH5 0x736F6C6343 STOP ADDMOD 0x1E STOP CALLER "
				},
				"gasEstimates": {
					"creation": {
						"codeDepositCost": "1344200",
						"executionCost": "1401",
						"totalCost": "1345601"
					},
					"external": {
						"createRoute(string,bytes32,string,uint256,uint256)": "infinite",
						"getRoute(string)": "infinite",
						"getRouteCount()": "2463",
						"getRouteIdByIndex(uint256)": "infinite",
						"routeIds(uint256)": "infinite",
						"routes(string)": "infinite",
						"updateRoute(string,bytes32,string,uint256)": "infinite",
						"verifyRoute(string,bytes32)": "infinite"
					}
				},
				"methodIdentifiers": {
					"createRoute(string,bytes32,string,uint256,uint256)": "69d1d76a",
					"getRoute(string)": "1b5f03a6",
					"getRouteCount()": "32252057",
					"getRouteIdByIndex(uint256)": "5f2a1cc4",
					"routeIds(uint256)": "be1af925",
					"routes(string)": "cffbffb5",
					"updateRoute(string,bytes32,string,uint256)": "fcbb3c47",
					"verifyRoute(string,bytes32)": "7bce49d9"
				}
			},
			"storageLayout": {
				"storage": [
					{
						"astId": 26,
						"contract": "blockchain/contracts/RouteRegistry.sol:RouteRegistry",
						"label": "routes",
						"offset": 0,
						"slot": "0",
						"type": "t_mapping(t_string_memory_ptr,t_struct(RouteRecord)21_storage)"
					},
					{
						"astId": 29,
						"contract": "blockchain/contracts/RouteRegistry.sol:RouteRegistry",
						"label": "routeIds",
						"offset": 0,
						"slot": "1",
						"type": "t_array(t_string_storage)dyn_storage"
					}
				],
				"types": {
					"t_address": {
						"encoding": "inplace",
						"label": "address",
						"numberOfBytes": "20"
					},
					"t_array(t_string_storage)dyn_storage": {
						"base": "t_string_storage",
						"encoding": "dynamic_array",
						"label": "string[]",
						"numberOfBytes": "32"
					},
					"t_bool": {
						"encoding": "inplace",
						"label": "bool",
						"numberOfBytes": "1"
					},
					"t_bytes32": {
						"encoding": "inplace",
						"label": "bytes32",
						"numberOfBytes": "32"
					},
					"t_mapping(t_string_memory_ptr,t_struct(RouteRecord)21_storage)": {
						"encoding": "mapping",
						"key": "t_string_memory_ptr",
						"label": "mapping(string => struct RouteRegistry.RouteRecord)",
						"numberOfBytes": "32",
						"value": "t_struct(RouteRecord)21_storage"
					},
					"t_string_memory_ptr": {
						"encoding": "bytes",
						"label": "string",
						"numberOfBytes": "32"
					},
					"t_string_storage": {
						"encoding": "bytes",
						"label": "string",
						"numberOfBytes": "32"
					},
					"t_struct(RouteRecord)21_storage": {
						"encoding": "inplace",
						"label": "struct RouteRegistry.RouteRecord",
						"members": [
							{
								"astId": 4,
								"contract": "blockchain/contracts/RouteRegistry.sol:RouteRegistry",
								"label": "routeId",
								"offset": 0,
								"slot": "0",
								"type": "t_string_storage"
							},
							{
								"astId": 6,
								"contract": "blockchain/contracts/RouteRegistry.sol:RouteRegistry",
								"label": "dataHash",
								"offset": 0,
								"slot": "1",
								"type": "t_bytes32"
							},
							{
								"astId": 8,
								"contract": "blockchain/contracts/RouteRegistry.sol:RouteRegistry",
								"label": "timestamp",
								"offset": 0,
								"slot": "2",
								"type": "t_uint256"
							},
							{
								"astId": 10,
								"contract": "blockchain/contracts/RouteRegistry.sol:RouteRegistry",
								"label": "driver",
								"offset": 0,
								"slot": "3",
								"type": "t_address"
							},
							{
								"astId": 12,
								"contract": "blockchain/contracts/RouteRegistry.sol:RouteRegistry",
								"label": "status",
								"offset": 0,
								"slot": "4",
								"type": "t_string_storage"
							},
							{
								"astId": 14,
								"contract": "blockchain/contracts/RouteRegistry.sol:RouteRegistry",
								"label": "totalDistance",
								"offset": 0,
								"slot": "5",
								"type": "t_uint256"
							},
							{
								"astId": 16,
								"contract": "blockchain/contracts/RouteRegistry.sol:RouteRegistry",
								"label": "deliveryCount",
								"offset": 0,
								"slot": "6",
								"type": "t_uint256"
							},
							{
								"astId": 18,
								"contract": "blockchain/contracts/RouteRegistry.sol:RouteRegistry",
								"label": "completedDeliveries",
								"offset": 0,
								"slot": "7",
								"type": "t_uint256"
							},
							{
								"astId": 20,
								"contract": "blockchain/contracts/RouteRegistry.sol:RouteRegistry",
								"label": "exists",
								"offset": 0,
								"slot": "8",
								"type": "t_bool"
							}
						],
						"numberOfBytes": "288"
					},
					"t_uint256": {
						"encoding": "inplace",
						"label": "uint256",
						"numberOfBytes": "32"
					}
				}
			},
			"userdoc": {
				"kind": "user",
				"methods": {
					"createRoute(string,bytes32,string,uint256,uint256)": {
						"notice": "Record a new route on the blockchain  This function should be called when a route is first optimized. It creates an immutable record of the route's initial state. "
					},
					"getRoute(string)": {
						"notice": "Get route details  Retrieves complete route record from blockchain. "
					},
					"getRouteCount()": {
						"notice": "Get total number of routes "
					},
					"getRouteIdByIndex(uint256)": {
						"notice": "Get route ID by index  Useful for iterating through all routes. "
					},
					"updateRoute(string,bytes32,string,uint256)": {
						"notice": "Update route status and data hash  Called when route status changes (e.g., optimized -> in_progress -> completed). Updates the data hash to reflect current state. "
					},
					"verifyRoute(string,bytes32)": {
						"notice": "Verify route data integrity  Checks if the provided data hash matches the stored hash. Used to verify that route data hasn't been tampered with. "
					}
				},
				"notice": "RouteRegistry Smart Contract  This contract stores immutable records of delivery routes on the Ethereum blockchain.  Features: - Store route completion data with hash verification - Verify route integrity using stored hashes - Track route status progression - Emit events for external monitoring  Use Cases: - Proof of delivery completion - Immutable audit trail - Dispute resolution - Regulatory compliance",
				"version": 1
			}
		}
	}
}